{
  "_format": "hh-sol-artifact-1",
  "contractName": "BasicNft",
  "sourceName": "contracts/test/BasicNft.sol",
  "abi": [
    {
      "inputs": [],
      "stateMutability": "nonpayable",
      "type": "constructor"
    },
    {
      "anonymous": false,
      "inputs": [
        {
          "indexed": true,
          "internalType": "address",
          "name": "owner",
          "type": "address"
        },
        {
          "indexed": true,
          "internalType": "address",
          "name": "approved",
          "type": "address"
        },
        {
          "indexed": true,
          "internalType": "uint256",
          "name": "tokenId",
          "type": "uint256"
        }
      ],
      "name": "Approval",
      "type": "event"
    },
    {
      "anonymous": false,
      "inputs": [
        {
          "indexed": true,
          "internalType": "address",
          "name": "owner",
          "type": "address"
        },
        {
          "indexed": true,
          "internalType": "address",
          "name": "operator",
          "type": "address"
        },
        {
          "indexed": false,
          "internalType": "bool",
          "name": "approved",
          "type": "bool"
        }
      ],
      "name": "ApprovalForAll",
      "type": "event"
    },
    {
      "anonymous": false,
      "inputs": [
        {
          "indexed": true,
          "internalType": "address",
          "name": "from",
          "type": "address"
        },
        {
          "indexed": true,
          "internalType": "address",
          "name": "to",
          "type": "address"
        },
        {
          "indexed": true,
          "internalType": "uint256",
          "name": "tokenId",
          "type": "uint256"
        }
      ],
      "name": "Transfer",
      "type": "event"
    },
    {
      "inputs": [
        {
          "internalType": "address",
          "name": "to",
          "type": "address"
        },
        {
          "internalType": "uint256",
          "name": "tokenId",
          "type": "uint256"
        }
      ],
      "name": "approve",
      "outputs": [],
      "stateMutability": "nonpayable",
      "type": "function"
    },
    {
      "inputs": [
        {
          "internalType": "address",
          "name": "owner",
          "type": "address"
        }
      ],
      "name": "balanceOf",
      "outputs": [
        {
          "internalType": "uint256",
          "name": "",
          "type": "uint256"
        }
      ],
      "stateMutability": "view",
      "type": "function"
    },
    {
      "inputs": [
        {
          "internalType": "uint256",
          "name": "tokenId",
          "type": "uint256"
        }
      ],
      "name": "getApproved",
      "outputs": [
        {
          "internalType": "address",
          "name": "",
          "type": "address"
        }
      ],
      "stateMutability": "view",
      "type": "function"
    },
    {
      "inputs": [
        {
          "internalType": "address",
          "name": "owner",
          "type": "address"
        },
        {
          "internalType": "address",
          "name": "operator",
          "type": "address"
        }
      ],
      "name": "isApprovedForAll",
      "outputs": [
        {
          "internalType": "bool",
          "name": "",
          "type": "bool"
        }
      ],
      "stateMutability": "view",
      "type": "function"
    },
    {
      "inputs": [],
      "name": "mintNft",
      "outputs": [],
      "stateMutability": "nonpayable",
      "type": "function"
    },
    {
      "inputs": [],
      "name": "name",
      "outputs": [
        {
          "internalType": "string",
          "name": "",
          "type": "string"
        }
      ],
      "stateMutability": "view",
      "type": "function"
    },
    {
      "inputs": [
        {
          "internalType": "uint256",
          "name": "tokenId",
          "type": "uint256"
        }
      ],
      "name": "ownerOf",
      "outputs": [
        {
          "internalType": "address",
          "name": "",
          "type": "address"
        }
      ],
      "stateMutability": "view",
      "type": "function"
    },
    {
      "inputs": [
        {
          "internalType": "address",
          "name": "from",
          "type": "address"
        },
        {
          "internalType": "address",
          "name": "to",
          "type": "address"
        },
        {
          "internalType": "uint256",
          "name": "tokenId",
          "type": "uint256"
        }
      ],
      "name": "safeTransferFrom",
      "outputs": [],
      "stateMutability": "nonpayable",
      "type": "function"
    },
    {
      "inputs": [
        {
          "internalType": "address",
          "name": "from",
          "type": "address"
        },
        {
          "internalType": "address",
          "name": "to",
          "type": "address"
        },
        {
          "internalType": "uint256",
          "name": "tokenId",
          "type": "uint256"
        },
        {
          "internalType": "bytes",
          "name": "data",
          "type": "bytes"
        }
      ],
      "name": "safeTransferFrom",
      "outputs": [],
      "stateMutability": "nonpayable",
      "type": "function"
    },
    {
      "inputs": [
        {
          "internalType": "address",
          "name": "operator",
          "type": "address"
        },
        {
          "internalType": "bool",
          "name": "approved",
          "type": "bool"
        }
      ],
      "name": "setApprovalForAll",
      "outputs": [],
      "stateMutability": "nonpayable",
      "type": "function"
    },
    {
      "inputs": [
        {
          "internalType": "bytes4",
          "name": "interfaceId",
          "type": "bytes4"
        }
      ],
      "name": "supportsInterface",
      "outputs": [
        {
          "internalType": "bool",
          "name": "",
          "type": "bool"
        }
      ],
      "stateMutability": "view",
      "type": "function"
    },
    {
      "inputs": [],
      "name": "symbol",
      "outputs": [
        {
          "internalType": "string",
          "name": "",
          "type": "string"
        }
      ],
      "stateMutability": "view",
      "type": "function"
    },
    {
      "inputs": [],
      "name": "tokenCounter",
      "outputs": [
        {
          "internalType": "uint256",
          "name": "",
          "type": "uint256"
        }
      ],
      "stateMutability": "view",
      "type": "function"
    },
    {
      "inputs": [
        {
          "internalType": "uint256",
          "name": "tokenId",
          "type": "uint256"
        }
      ],
      "name": "tokenURI",
      "outputs": [
        {
          "internalType": "string",
          "name": "",
          "type": "string"
        }
      ],
      "stateMutability": "view",
      "type": "function"
    },
    {
      "inputs": [
        {
          "internalType": "address",
          "name": "from",
          "type": "address"
        },
        {
          "internalType": "address",
          "name": "to",
          "type": "address"
        },
        {
          "internalType": "uint256",
          "name": "tokenId",
          "type": "uint256"
        }
      ],
      "name": "transferFrom",
      "outputs": [],
      "stateMutability": "nonpayable",
      "type": "function"
    }
  ],
  "bytecode": "0x60806040523480156200001157600080fd5b506040518060400160405280600981526020017f4261736963204e667400000000000000000000000000000000000000000000008152506040518060400160405280600481526020017f424e465400000000000000000000000000000000000000000000000000000000815250816000908051906020019062000096929190620000c0565b508060019080519060200190620000af929190620000c0565b5050506001600681905550620001d5565b828054620000ce9062000170565b90600052602060002090601f016020900481019282620000f257600085556200013e565b82601f106200010d57805160ff19168380011785556200013e565b828001600101855582156200013e579182015b828111156200013d57825182559160200191906001019062000120565b5b5090506200014d919062000151565b5090565b5b808211156200016c57600081600090555060010162000152565b5090565b600060028204905060018216806200018957607f821691505b60208210811415620001a0576200019f620001a6565b5b50919050565b7f4e487b7100000000000000000000000000000000000000000000000000000000600052602260045260246000fd5b61254480620001e56000396000f3fe608060405234801561001057600080fd5b50600436106100f55760003560e01c806370a0823111610097578063c2229fea11610066578063c2229fea14610282578063c87b56dd1461028c578063d082e381146102bc578063e985e9c5146102da576100f5565b806370a08231146101fc57806395d89b411461022c578063a22cb4651461024a578063b88d4fde14610266576100f5565b8063095ea7b3116100d3578063095ea7b31461017857806323b872dd1461019457806342842e0e146101b05780636352211e146101cc576100f5565b806301ffc9a7146100fa57806306fdde031461012a578063081812fc14610148575b600080fd5b610114600480360381019061010f91906118d3565b61030a565b6040516101219190611c36565b60405180910390f35b6101326103ec565b60405161013f9190611c51565b60405180910390f35b610162600480360381019061015d919061192d565b61047e565b60405161016f9190611bcf565b60405180910390f35b610192600480360381019061018d9190611893565b6104c4565b005b6101ae60048036038101906101a9919061177d565b6105dc565b005b6101ca60048036038101906101c5919061177d565b61063c565b005b6101e660048036038101906101e1919061192d565b61065c565b6040516101f39190611bcf565b60405180910390f35b61021660048036038101906102119190611710565b61070e565b6040516102239190611dd3565b60405180910390f35b6102346107c6565b6040516102419190611c51565b60405180910390f35b610264600480360381019061025f9190611853565b610858565b005b610280600480360381019061027b91906117d0565b61086e565b005b61028a6108d0565b005b6102a660048036038101906102a1919061192d565b6108ff565b6040516102b39190611c51565b60405180910390f35b6102c4610967565b6040516102d19190611dd3565b60405180910390f35b6102f460048036038101906102ef919061173d565b61096d565b6040516103019190611c36565b60405180910390f35b60007f80ac58cd000000000000000000000000000000000000000000000000000000007bffffffffffffffffffffffffffffffffffffffffffffffffffffffff1916827bffffffffffffffffffffffffffffffffffffffffffffffffffffffff191614806103d557507f5b5e139f000000000000000000000000000000000000000000000000000000007bffffffffffffffffffffffffffffffffffffffffffffffffffffffff1916827bffffffffffffffffffffffffffffffffffffffffffffffffffffffff1916145b806103e557506103e482610a01565b5b9050919050565b6060600080546103fb90611ff8565b80601f016020809104026020016040519081016040528092919081815260200182805461042790611ff8565b80156104745780601f1061044957610100808354040283529160200191610474565b820191906000526020600020905b81548152906001019060200180831161045757829003601f168201915b5050505050905090565b600061048982610a6b565b6004600083815260200190815260200160002060009054906101000a900473ffffffffffffffffffffffffffffffffffffffff169050919050565b60006104cf8261065c565b90508073ffffffffffffffffffffffffffffffffffffffff168373ffffffffffffffffffffffffffffffffffffffff161415610540576040517f08c379a000000000000000000000000000000000000000000000000000000000815260040161053790611d93565b60405180910390fd5b8073ffffffffffffffffffffffffffffffffffffffff1661055f610ab6565b73ffffffffffffffffffffffffffffffffffffffff16148061058e575061058d81610588610ab6565b61096d565b5b6105cd576040517f08c379a00000000000000000000000000000000000000000000000000000000081526004016105c490611d33565b60405180910390fd5b6105d78383610abe565b505050565b6105ed6105e7610ab6565b82610b77565b61062c576040517f08c379a000000000000000000000000000000000000000000000000000000000815260040161062390611db3565b60405180910390fd5b610637838383610c0c565b505050565b6106578383836040518060200160405280600081525061086e565b505050565b6000806002600084815260200190815260200160002060009054906101000a900473ffffffffffffffffffffffffffffffffffffffff169050600073ffffffffffffffffffffffffffffffffffffffff168173ffffffffffffffffffffffffffffffffffffffff161415610705576040517f08c379a00000000000000000000000000000000000000000000000000000000081526004016106fc90611d73565b60405180910390fd5b80915050919050565b60008073ffffffffffffffffffffffffffffffffffffffff168273ffffffffffffffffffffffffffffffffffffffff16141561077f576040517f08c379a000000000000000000000000000000000000000000000000000000000815260040161077690611d13565b60405180910390fd5b600360008373ffffffffffffffffffffffffffffffffffffffff1673ffffffffffffffffffffffffffffffffffffffff168152602001908152602001600020549050919050565b6060600180546107d590611ff8565b80601f016020809104026020016040519081016040528092919081815260200182805461080190611ff8565b801561084e5780601f106108235761010080835404028352916020019161084e565b820191906000526020600020905b81548152906001019060200180831161083157829003601f168201915b5050505050905090565b61086a610863610ab6565b8383610e73565b5050565b61087f610879610ab6565b83610b77565b6108be576040517f08c379a00000000000000000000000000000000000000000000000000000000081526004016108b590611db3565b60405180910390fd5b6108ca84848484610fe0565b50505050565b6108e36108db610ab6565b60065461103c565b6001600660008282546108f69190611e87565b92505081905550565b606061090a82610a6b565b600061091461105a565b90506000815111610934576040518060200160405280600081525061095f565b8061093e84611071565b60405160200161094f929190611bab565b6040516020818303038152906040525b915050919050565b60065481565b6000600560008473ffffffffffffffffffffffffffffffffffffffff1673ffffffffffffffffffffffffffffffffffffffff16815260200190815260200160002060008373ffffffffffffffffffffffffffffffffffffffff1673ffffffffffffffffffffffffffffffffffffffff16815260200190815260200160002060009054906101000a900460ff16905092915050565b60007f01ffc9a7000000000000000000000000000000000000000000000000000000007bffffffffffffffffffffffffffffffffffffffffffffffffffffffff1916827bffffffffffffffffffffffffffffffffffffffffffffffffffffffff1916149050919050565b610a74816111d2565b610ab3576040517f08c379a0000000000000000000000000000000000000000000000000000000008152600401610aaa90611d73565b60405180910390fd5b50565b600033905090565b816004600083815260200190815260200160002060006101000a81548173ffffffffffffffffffffffffffffffffffffffff021916908373ffffffffffffffffffffffffffffffffffffffff160217905550808273ffffffffffffffffffffffffffffffffffffffff16610b318361065c565b73ffffffffffffffffffffffffffffffffffffffff167f8c5be1e5ebec7d5bd14f71427d1e84f3dd0314c0f7b2291e5b200ac8c7c3b92560405160405180910390a45050565b600080610b838361065c565b90508073ffffffffffffffffffffffffffffffffffffffff168473ffffffffffffffffffffffffffffffffffffffff161480610bc55750610bc4818561096d565b5b80610c0357508373ffffffffffffffffffffffffffffffffffffffff16610beb8461047e565b73ffffffffffffffffffffffffffffffffffffffff16145b91505092915050565b8273ffffffffffffffffffffffffffffffffffffffff16610c2c8261065c565b73ffffffffffffffffffffffffffffffffffffffff1614610c82576040517f08c379a0000000000000000000000000000000000000000000000000000000008152600401610c7990611c93565b60405180910390fd5b600073ffffffffffffffffffffffffffffffffffffffff168273ffffffffffffffffffffffffffffffffffffffff161415610cf2576040517f08c379a0000000000000000000000000000000000000000000000000000000008152600401610ce990611cd3565b60405180910390fd5b610cfd83838361123e565b610d08600082610abe565b6001600360008573ffffffffffffffffffffffffffffffffffffffff1673ffffffffffffffffffffffffffffffffffffffff1681526020019081526020016000206000828254610d589190611f0e565b925050819055506001600360008473ffffffffffffffffffffffffffffffffffffffff1673ffffffffffffffffffffffffffffffffffffffff1681526020019081526020016000206000828254610daf9190611e87565b92505081905550816002600083815260200190815260200160002060006101000a81548173ffffffffffffffffffffffffffffffffffffffff021916908373ffffffffffffffffffffffffffffffffffffffff160217905550808273ffffffffffffffffffffffffffffffffffffffff168473ffffffffffffffffffffffffffffffffffffffff167fddf252ad1be2c89b69c2b068fc378daa952ba7f163c4a11628f55a4df523b3ef60405160405180910390a4610e6e838383611243565b505050565b8173ffffffffffffffffffffffffffffffffffffffff168373ffffffffffffffffffffffffffffffffffffffff161415610ee2576040517f08c379a0000000000000000000000000000000000000000000000000000000008152600401610ed990611cf3565b60405180910390fd5b80600560008573ffffffffffffffffffffffffffffffffffffffff1673ffffffffffffffffffffffffffffffffffffffff16815260200190815260200160002060008473ffffffffffffffffffffffffffffffffffffffff1673ffffffffffffffffffffffffffffffffffffffff16815260200190815260200160002060006101000a81548160ff0219169083151502179055508173ffffffffffffffffffffffffffffffffffffffff168373ffffffffffffffffffffffffffffffffffffffff167f17307eab39ab6107e8899845ad3d59bd9653f200f220920489ca2b5937696c3183604051610fd39190611c36565b60405180910390a3505050565b610feb848484610c0c565b610ff784848484611248565b611036576040517f08c379a000000000000000000000000000000000000000000000000000000000815260040161102d90611c73565b60405180910390fd5b50505050565b6110568282604051806020016040528060008152506113df565b5050565b606060405180602001604052806000815250905090565b606060008214156110b9576040518060400160405280600181526020017f300000000000000000000000000000000000000000000000000000000000000081525090506111cd565b600082905060005b600082146110eb5780806110d49061205b565b915050600a826110e49190611edd565b91506110c1565b60008167ffffffffffffffff81111561110757611106612191565b5b6040519080825280601f01601f1916602001820160405280156111395781602001600182028036833780820191505090505b5090505b600085146111c6576001826111529190611f0e565b9150600a8561116191906120a4565b603061116d9190611e87565b60f81b81838151811061118357611182612162565b5b60200101907effffffffffffffffffffffffffffffffffffffffffffffffffffffffffffff1916908160001a905350600a856111bf9190611edd565b945061113d565b8093505050505b919050565b60008073ffffffffffffffffffffffffffffffffffffffff166002600084815260200190815260200160002060009054906101000a900473ffffffffffffffffffffffffffffffffffffffff1673ffffffffffffffffffffffffffffffffffffffff1614159050919050565b505050565b505050565b60006112698473ffffffffffffffffffffffffffffffffffffffff1661143a565b156113d2578373ffffffffffffffffffffffffffffffffffffffff1663150b7a02611292610ab6565b8786866040518563ffffffff1660e01b81526004016112b49493929190611bea565b602060405180830381600087803b1580156112ce57600080fd5b505af19250505080156112ff57506040513d601f19601f820116820180604052508101906112fc9190611900565b60015b611382573d806000811461132f576040519150601f19603f3d011682016040523d82523d6000602084013e611334565b606091505b5060008151141561137a576040517f08c379a000000000000000000000000000000000000000000000000000000000815260040161137190611c73565b60405180910390fd5b805181602001fd5b63150b7a0260e01b7bffffffffffffffffffffffffffffffffffffffffffffffffffffffff1916817bffffffffffffffffffffffffffffffffffffffffffffffffffffffff1916149150506113d7565b600190505b949350505050565b6113e9838361145d565b6113f66000848484611248565b611435576040517f08c379a000000000000000000000000000000000000000000000000000000000815260040161142c90611c73565b60405180910390fd5b505050565b6000808273ffffffffffffffffffffffffffffffffffffffff163b119050919050565b600073ffffffffffffffffffffffffffffffffffffffff168273ffffffffffffffffffffffffffffffffffffffff1614156114cd576040517f08c379a00000000000000000000000000000000000000000000000000000000081526004016114c490611d53565b60405180910390fd5b6114d6816111d2565b15611516576040517f08c379a000000000000000000000000000000000000000000000000000000000815260040161150d90611cb3565b60405180910390fd5b6115226000838361123e565b6001600360008473ffffffffffffffffffffffffffffffffffffffff1673ffffffffffffffffffffffffffffffffffffffff16815260200190815260200160002060008282546115729190611e87565b92505081905550816002600083815260200190815260200160002060006101000a81548173ffffffffffffffffffffffffffffffffffffffff021916908373ffffffffffffffffffffffffffffffffffffffff160217905550808273ffffffffffffffffffffffffffffffffffffffff16600073ffffffffffffffffffffffffffffffffffffffff167fddf252ad1be2c89b69c2b068fc378daa952ba7f163c4a11628f55a4df523b3ef60405160405180910390a461163360008383611243565b5050565b600061164a61164584611e13565b611dee565b905082815260208101848484011115611666576116656121c5565b5b611671848285611fb6565b509392505050565b600081359050611688816124b2565b92915050565b60008135905061169d816124c9565b92915050565b6000813590506116b2816124e0565b92915050565b6000815190506116c7816124e0565b92915050565b600082601f8301126116e2576116e16121c0565b5b81356116f2848260208601611637565b91505092915050565b60008135905061170a816124f7565b92915050565b600060208284031215611726576117256121cf565b5b600061173484828501611679565b91505092915050565b60008060408385031215611754576117536121cf565b5b600061176285828601611679565b925050602061177385828601611679565b9150509250929050565b600080600060608486031215611796576117956121cf565b5b60006117a486828701611679565b93505060206117b586828701611679565b92505060406117c6868287016116fb565b9150509250925092565b600080600080608085870312156117ea576117e96121cf565b5b60006117f887828801611679565b945050602061180987828801611679565b935050604061181a878288016116fb565b925050606085013567ffffffffffffffff81111561183b5761183a6121ca565b5b611847878288016116cd565b91505092959194509250565b6000806040838503121561186a576118696121cf565b5b600061187885828601611679565b92505060206118898582860161168e565b9150509250929050565b600080604083850312156118aa576118a96121cf565b5b60006118b885828601611679565b92505060206118c9858286016116fb565b9150509250929050565b6000602082840312156118e9576118e86121cf565b5b60006118f7848285016116a3565b91505092915050565b600060208284031215611916576119156121cf565b5b6000611924848285016116b8565b91505092915050565b600060208284031215611943576119426121cf565b5b6000611951848285016116fb565b91505092915050565b61196381611f42565b82525050565b61197281611f54565b82525050565b600061198382611e44565b61198d8185611e5a565b935061199d818560208601611fc5565b6119a6816121d4565b840191505092915050565b60006119bc82611e4f565b6119c68185611e6b565b93506119d6818560208601611fc5565b6119df816121d4565b840191505092915050565b60006119f582611e4f565b6119ff8185611e7c565b9350611a0f818560208601611fc5565b80840191505092915050565b6000611a28603283611e6b565b9150611a33826121e5565b604082019050919050565b6000611a4b602583611e6b565b9150611a5682612234565b604082019050919050565b6000611a6e601c83611e6b565b9150611a7982612283565b602082019050919050565b6000611a91602483611e6b565b9150611a9c826122ac565b604082019050919050565b6000611ab4601983611e6b565b9150611abf826122fb565b602082019050919050565b6000611ad7602983611e6b565b9150611ae282612324565b604082019050919050565b6000611afa603e83611e6b565b9150611b0582612373565b604082019050919050565b6000611b1d602083611e6b565b9150611b28826123c2565b602082019050919050565b6000611b40601883611e6b565b9150611b4b826123eb565b602082019050919050565b6000611b63602183611e6b565b9150611b6e82612414565b604082019050919050565b6000611b86602e83611e6b565b9150611b9182612463565b604082019050919050565b611ba581611fac565b82525050565b6000611bb782856119ea565b9150611bc382846119ea565b91508190509392505050565b6000602082019050611be4600083018461195a565b92915050565b6000608082019050611bff600083018761195a565b611c0c602083018661195a565b611c196040830185611b9c565b8181036060830152611c2b8184611978565b905095945050505050565b6000602082019050611c4b6000830184611969565b92915050565b60006020820190508181036000830152611c6b81846119b1565b905092915050565b60006020820190508181036000830152611c8c81611a1b565b9050919050565b60006020820190508181036000830152611cac81611a3e565b9050919050565b60006020820190508181036000830152611ccc81611a61565b9050919050565b60006020820190508181036000830152611cec81611a84565b9050919050565b60006020820190508181036000830152611d0c81611aa7565b9050919050565b60006020820190508181036000830152611d2c81611aca565b9050919050565b60006020820190508181036000830152611d4c81611aed565b9050919050565b60006020820190508181036000830152611d6c81611b10565b9050919050565b60006020820190508181036000830152611d8c81611b33565b9050919050565b60006020820190508181036000830152611dac81611b56565b9050919050565b60006020820190508181036000830152611dcc81611b79565b9050919050565b6000602082019050611de86000830184611b9c565b92915050565b6000611df8611e09565b9050611e04828261202a565b919050565b6000604051905090565b600067ffffffffffffffff821115611e2e57611e2d612191565b5b611e37826121d4565b9050602081019050919050565b600081519050919050565b600081519050919050565b600082825260208201905092915050565b600082825260208201905092915050565b600081905092915050565b6000611e9282611fac565b9150611e9d83611fac565b9250827fffffffffffffffffffffffffffffffffffffffffffffffffffffffffffffffff03821115611ed257611ed16120d5565b5b828201905092915050565b6000611ee882611fac565b9150611ef383611fac565b925082611f0357611f02612104565b5b828204905092915050565b6000611f1982611fac565b9150611f2483611fac565b925082821015611f3757611f366120d5565b5b828203905092915050565b6000611f4d82611f8c565b9050919050565b60008115159050919050565b60007fffffffff0000000000000000000000000000000000000000000000000000000082169050919050565b600073ffffffffffffffffffffffffffffffffffffffff82169050919050565b6000819050919050565b82818337600083830152505050565b60005b83811015611fe3578082015181840152602081019050611fc8565b83811115611ff2576000848401525b50505050565b6000600282049050600182168061201057607f821691505b6020821081141561202457612023612133565b5b50919050565b612033826121d4565b810181811067ffffffffffffffff8211171561205257612051612191565b5b80604052505050565b600061206682611fac565b91507fffffffffffffffffffffffffffffffffffffffffffffffffffffffffffffffff821415612099576120986120d5565b5b600182019050919050565b60006120af82611fac565b91506120ba83611fac565b9250826120ca576120c9612104565b5b828206905092915050565b7f4e487b7100000000000000000000000000000000000000000000000000000000600052601160045260246000fd5b7f4e487b7100000000000000000000000000000000000000000000000000000000600052601260045260246000fd5b7f4e487b7100000000000000000000000000000000000000000000000000000000600052602260045260246000fd5b7f4e487b7100000000000000000000000000000000000000000000000000000000600052603260045260246000fd5b7f4e487b7100000000000000000000000000000000000000000000000000000000600052604160045260246000fd5b600080fd5b600080fd5b600080fd5b600080fd5b6000601f19601f8301169050919050565b7f4552433732313a207472616e7366657220746f206e6f6e20455243373231526560008201527f63656976657220696d706c656d656e7465720000000000000000000000000000602082015250565b7f4552433732313a207472616e736665722066726f6d20696e636f72726563742060008201527f6f776e6572000000000000000000000000000000000000000000000000000000602082015250565b7f4552433732313a20746f6b656e20616c7265616479206d696e74656400000000600082015250565b7f4552433732313a207472616e7366657220746f20746865207a65726f2061646460008201527f7265737300000000000000000000000000000000000000000000000000000000602082015250565b7f4552433732313a20617070726f766520746f2063616c6c657200000000000000600082015250565b7f4552433732313a2061646472657373207a65726f206973206e6f74206120766160008201527f6c6964206f776e65720000000000000000000000000000000000000000000000602082015250565b7f4552433732313a20617070726f76652063616c6c6572206973206e6f7420746f60008201527f6b656e206f776e6572206e6f7220617070726f76656420666f7220616c6c0000602082015250565b7f4552433732313a206d696e7420746f20746865207a65726f2061646472657373600082015250565b7f4552433732313a20696e76616c696420746f6b656e2049440000000000000000600082015250565b7f4552433732313a20617070726f76616c20746f2063757272656e74206f776e6560008201527f7200000000000000000000000000000000000000000000000000000000000000602082015250565b7f4552433732313a2063616c6c6572206973206e6f7420746f6b656e206f776e6560008201527f72206e6f7220617070726f766564000000000000000000000000000000000000602082015250565b6124bb81611f42565b81146124c657600080fd5b50565b6124d281611f54565b81146124dd57600080fd5b50565b6124e981611f60565b81146124f457600080fd5b50565b61250081611fac565b811461250b57600080fd5b5056fea2646970667358221220d013ce0f59b685133b0f3f609b4ec0592901123ae8a908f5513281500379666764736f6c63430008070033",
  "linkReferences": {},
  "deployedLinkReferences": {}
}