{
  "address": "0x14089c81a3d21d6A7A9A74cF5a05735e5473adE2",
  "abi": [
    {
      "inputs": [
        {
          "internalType": "string",
          "name": "name_",
          "type": "string"
        },
        {
          "internalType": "string",
          "name": "symbol_",
          "type": "string"
        }
      ],
      "stateMutability": "nonpayable",
      "type": "constructor"
    },
    {
      "anonymous": false,
      "inputs": [
        {
          "indexed": true,
          "internalType": "address",
          "name": "owner",
          "type": "address"
        },
        {
          "indexed": true,
          "internalType": "address",
          "name": "approved",
          "type": "address"
        },
        {
          "indexed": true,
          "internalType": "uint256",
          "name": "tokenId",
          "type": "uint256"
        }
      ],
      "name": "Approval",
      "type": "event"
    },
    {
      "anonymous": false,
      "inputs": [
        {
          "indexed": true,
          "internalType": "address",
          "name": "owner",
          "type": "address"
        },
        {
          "indexed": true,
          "internalType": "address",
          "name": "operator",
          "type": "address"
        },
        {
          "indexed": false,
          "internalType": "bool",
          "name": "approved",
          "type": "bool"
        }
      ],
      "name": "ApprovalForAll",
      "type": "event"
    },
    {
      "anonymous": false,
      "inputs": [
        {
          "indexed": true,
          "internalType": "address",
          "name": "from",
          "type": "address"
        },
        {
          "indexed": true,
          "internalType": "address",
          "name": "to",
          "type": "address"
        },
        {
          "indexed": true,
          "internalType": "uint256",
          "name": "tokenId",
          "type": "uint256"
        }
      ],
      "name": "Transfer",
      "type": "event"
    },
    {
      "inputs": [
        {
          "internalType": "address",
          "name": "to",
          "type": "address"
        },
        {
          "internalType": "uint256",
          "name": "tokenId",
          "type": "uint256"
        }
      ],
      "name": "approve",
      "outputs": [],
      "stateMutability": "nonpayable",
      "type": "function"
    },
    {
      "inputs": [
        {
          "internalType": "address",
          "name": "owner",
          "type": "address"
        }
      ],
      "name": "balanceOf",
      "outputs": [
        {
          "internalType": "uint256",
          "name": "",
          "type": "uint256"
        }
      ],
      "stateMutability": "view",
      "type": "function"
    },
    {
      "inputs": [
        {
          "internalType": "uint256",
          "name": "tokenId",
          "type": "uint256"
        }
      ],
      "name": "getApproved",
      "outputs": [
        {
          "internalType": "address",
          "name": "",
          "type": "address"
        }
      ],
      "stateMutability": "view",
      "type": "function"
    },
    {
      "inputs": [
        {
          "internalType": "address",
          "name": "owner",
          "type": "address"
        },
        {
          "internalType": "address",
          "name": "operator",
          "type": "address"
        }
      ],
      "name": "isApprovedForAll",
      "outputs": [
        {
          "internalType": "bool",
          "name": "",
          "type": "bool"
        }
      ],
      "stateMutability": "view",
      "type": "function"
    },
    {
      "inputs": [
        {
          "internalType": "string",
          "name": "uri",
          "type": "string"
        }
      ],
      "name": "mint",
      "outputs": [],
      "stateMutability": "nonpayable",
      "type": "function"
    },
    {
      "inputs": [],
      "name": "name",
      "outputs": [
        {
          "internalType": "string",
          "name": "",
          "type": "string"
        }
      ],
      "stateMutability": "view",
      "type": "function"
    },
    {
      "inputs": [
        {
          "internalType": "uint256",
          "name": "tokenId",
          "type": "uint256"
        }
      ],
      "name": "ownerOf",
      "outputs": [
        {
          "internalType": "address",
          "name": "",
          "type": "address"
        }
      ],
      "stateMutability": "view",
      "type": "function"
    },
    {
      "inputs": [
        {
          "internalType": "address",
          "name": "from",
          "type": "address"
        },
        {
          "internalType": "address",
          "name": "to",
          "type": "address"
        },
        {
          "internalType": "uint256",
          "name": "tokenId",
          "type": "uint256"
        }
      ],
      "name": "safeTransferFrom",
      "outputs": [],
      "stateMutability": "nonpayable",
      "type": "function"
    },
    {
      "inputs": [
        {
          "internalType": "address",
          "name": "from",
          "type": "address"
        },
        {
          "internalType": "address",
          "name": "to",
          "type": "address"
        },
        {
          "internalType": "uint256",
          "name": "tokenId",
          "type": "uint256"
        },
        {
          "internalType": "bytes",
          "name": "data",
          "type": "bytes"
        }
      ],
      "name": "safeTransferFrom",
      "outputs": [],
      "stateMutability": "nonpayable",
      "type": "function"
    },
    {
      "inputs": [
        {
          "internalType": "address",
          "name": "operator",
          "type": "address"
        },
        {
          "internalType": "bool",
          "name": "approved",
          "type": "bool"
        }
      ],
      "name": "setApprovalForAll",
      "outputs": [],
      "stateMutability": "nonpayable",
      "type": "function"
    },
    {
      "inputs": [
        {
          "internalType": "bytes4",
          "name": "interfaceId",
          "type": "bytes4"
        }
      ],
      "name": "supportsInterface",
      "outputs": [
        {
          "internalType": "bool",
          "name": "",
          "type": "bool"
        }
      ],
      "stateMutability": "view",
      "type": "function"
    },
    {
      "inputs": [],
      "name": "symbol",
      "outputs": [
        {
          "internalType": "string",
          "name": "",
          "type": "string"
        }
      ],
      "stateMutability": "view",
      "type": "function"
    },
    {
      "inputs": [],
      "name": "tokenCounter",
      "outputs": [
        {
          "internalType": "uint256",
          "name": "",
          "type": "uint256"
        }
      ],
      "stateMutability": "view",
      "type": "function"
    },
    {
      "inputs": [
        {
          "internalType": "uint256",
          "name": "tokenId",
          "type": "uint256"
        }
      ],
      "name": "tokenURI",
      "outputs": [
        {
          "internalType": "string",
          "name": "",
          "type": "string"
        }
      ],
      "stateMutability": "view",
      "type": "function"
    },
    {
      "inputs": [
        {
          "internalType": "address",
          "name": "from",
          "type": "address"
        },
        {
          "internalType": "address",
          "name": "to",
          "type": "address"
        },
        {
          "internalType": "uint256",
          "name": "tokenId",
          "type": "uint256"
        }
      ],
      "name": "transferFrom",
      "outputs": [],
      "stateMutability": "nonpayable",
      "type": "function"
    }
  ],
  "transactionHash": "0xad328b9286d9ae9075ad5c8be33d9d0c969b666d63bc6c0a34aa76bf0a4d6d2f",
  "args": [
    "Rentoken NFT",
    "RTNFT"
  ],
  "numDeployments": 1,
  "solcInputHash": "6d9bda4da0050a9be86bdb79a66e08f4",
  "bytecode": "0x60806040523480156200001157600080fd5b5060405162002c5838038062002c588339818101604052810190620000379190620001ab565b81818160009080519060200190620000519291906200007d565b5080600190805190602001906200006a9291906200007d565b50505060016007819055505050620003b4565b8280546200008b90620002c5565b90600052602060002090601f016020900481019282620000af5760008555620000fb565b82601f10620000ca57805160ff1916838001178555620000fb565b82800160010185558215620000fb579182015b82811115620000fa578251825591602001919060010190620000dd565b5b5090506200010a91906200010e565b5090565b5b80821115620001295760008160009055506001016200010f565b5090565b6000620001446200013e8462000259565b62000230565b90508281526020810184848401111562000163576200016262000394565b5b620001708482856200028f565b509392505050565b600082601f83011262000190576200018f6200038f565b5b8151620001a28482602086016200012d565b91505092915050565b60008060408385031215620001c557620001c46200039e565b5b600083015167ffffffffffffffff811115620001e657620001e562000399565b5b620001f48582860162000178565b925050602083015167ffffffffffffffff81111562000218576200021762000399565b5b620002268582860162000178565b9150509250929050565b60006200023c6200024f565b90506200024a8282620002fb565b919050565b6000604051905090565b600067ffffffffffffffff82111562000277576200027662000360565b5b6200028282620003a3565b9050602081019050919050565b60005b83811015620002af57808201518184015260208101905062000292565b83811115620002bf576000848401525b50505050565b60006002820490506001821680620002de57607f821691505b60208210811415620002f557620002f462000331565b5b50919050565b6200030682620003a3565b810181811067ffffffffffffffff8211171562000328576200032762000360565b5b80604052505050565b7f4e487b7100000000000000000000000000000000000000000000000000000000600052602260045260246000fd5b7f4e487b7100000000000000000000000000000000000000000000000000000000600052604160045260246000fd5b600080fd5b600080fd5b600080fd5b600080fd5b6000601f19601f8301169050919050565b61289480620003c46000396000f3fe608060405234801561001057600080fd5b50600436106100f55760003560e01c806370a0823111610097578063c87b56dd11610066578063c87b56dd14610282578063d082e381146102b2578063d85d3d27146102d0578063e985e9c5146102ec576100f5565b806370a08231146101fc57806395d89b411461022c578063a22cb4651461024a578063b88d4fde14610266576100f5565b8063095ea7b3116100d3578063095ea7b31461017857806323b872dd1461019457806342842e0e146101b05780636352211e146101cc576100f5565b806301ffc9a7146100fa57806306fdde031461012a578063081812fc14610148575b600080fd5b610114600480360381019061010f9190611b17565b61031c565b6040516101219190611ee6565b60405180910390f35b6101326103fe565b60405161013f9190611f01565b60405180910390f35b610162600480360381019061015d9190611bba565b610490565b60405161016f9190611e7f565b60405180910390f35b610192600480360381019061018d9190611ad7565b6104d6565b005b6101ae60048036038101906101a991906119c1565b6105ee565b005b6101ca60048036038101906101c591906119c1565b61064e565b005b6101e660048036038101906101e19190611bba565b61066e565b6040516101f39190611e7f565b60405180910390f35b61021660048036038101906102119190611954565b610720565b60405161022391906120a3565b60405180910390f35b6102346107d8565b6040516102419190611f01565b60405180910390f35b610264600480360381019061025f9190611a97565b61086a565b005b610280600480360381019061027b9190611a14565b610880565b005b61029c60048036038101906102979190611bba565b6108e2565b6040516102a99190611f01565b60405180910390f35b6102ba6109f5565b6040516102c791906120a3565b60405180910390f35b6102ea60048036038101906102e59190611b71565b6109fb565b005b61030660048036038101906103019190611981565b610a3b565b6040516103139190611ee6565b60405180910390f35b60007f80ac58cd000000000000000000000000000000000000000000000000000000007bffffffffffffffffffffffffffffffffffffffffffffffffffffffff1916827bffffffffffffffffffffffffffffffffffffffffffffffffffffffff191614806103e757507f5b5e139f000000000000000000000000000000000000000000000000000000007bffffffffffffffffffffffffffffffffffffffffffffffffffffffff1916827bffffffffffffffffffffffffffffffffffffffffffffffffffffffff1916145b806103f757506103f682610acf565b5b9050919050565b60606000805461040d906122f9565b80601f0160208091040260200160405190810160405280929190818152602001828054610439906122f9565b80156104865780601f1061045b57610100808354040283529160200191610486565b820191906000526020600020905b81548152906001019060200180831161046957829003601f168201915b5050505050905090565b600061049b82610b39565b6004600083815260200190815260200160002060009054906101000a900473ffffffffffffffffffffffffffffffffffffffff169050919050565b60006104e18261066e565b90508073ffffffffffffffffffffffffffffffffffffffff168373ffffffffffffffffffffffffffffffffffffffff161415610552576040517f08c379a000000000000000000000000000000000000000000000000000000000815260040161054990612063565b60405180910390fd5b8073ffffffffffffffffffffffffffffffffffffffff16610571610b84565b73ffffffffffffffffffffffffffffffffffffffff1614806105a0575061059f8161059a610b84565b610a3b565b5b6105df576040517f08c379a00000000000000000000000000000000000000000000000000000000081526004016105d690612003565b60405180910390fd5b6105e98383610b8c565b505050565b6105ff6105f9610b84565b82610c45565b61063e576040517f08c379a000000000000000000000000000000000000000000000000000000000815260040161063590612083565b60405180910390fd5b610649838383610cda565b505050565b61066983838360405180602001604052806000815250610880565b505050565b6000806002600084815260200190815260200160002060009054906101000a900473ffffffffffffffffffffffffffffffffffffffff169050600073ffffffffffffffffffffffffffffffffffffffff168173ffffffffffffffffffffffffffffffffffffffff161415610717576040517f08c379a000000000000000000000000000000000000000000000000000000000815260040161070e90612043565b60405180910390fd5b80915050919050565b60008073ffffffffffffffffffffffffffffffffffffffff168273ffffffffffffffffffffffffffffffffffffffff161415610791576040517f08c379a000000000000000000000000000000000000000000000000000000000815260040161078890611fc3565b60405180910390fd5b600360008373ffffffffffffffffffffffffffffffffffffffff1673ffffffffffffffffffffffffffffffffffffffff168152602001908152602001600020549050919050565b6060600180546107e7906122f9565b80601f0160208091040260200160405190810160405280929190818152602001828054610813906122f9565b80156108605780601f1061083557610100808354040283529160200191610860565b820191906000526020600020905b81548152906001019060200180831161084357829003601f168201915b5050505050905090565b61087c610875610b84565b8383610f41565b5050565b61089161088b610b84565b83610c45565b6108d0576040517f08c379a00000000000000000000000000000000000000000000000000000000081526004016108c790612083565b60405180910390fd5b6108dc848484846110ae565b50505050565b60606108ed82610b39565b600060066000848152602001908152602001600020805461090d906122f9565b80601f0160208091040260200160405190810160405280929190818152602001828054610939906122f9565b80156109865780601f1061095b57610100808354040283529160200191610986565b820191906000526020600020905b81548152906001019060200180831161096957829003601f168201915b50505050509050600061099761110a565b90506000815114156109ad5781925050506109f0565b6000825111156109e25780826040516020016109ca929190611e5b565b604051602081830303815290604052925050506109f0565b6109eb84611121565b925050505b919050565b60075481565b60006007549050600160076000828254610a159190612188565b92505081905550610a2d610a27610b84565b82611189565b610a378183611363565b5050565b6000600560008473ffffffffffffffffffffffffffffffffffffffff1673ffffffffffffffffffffffffffffffffffffffff16815260200190815260200160002060008373ffffffffffffffffffffffffffffffffffffffff1673ffffffffffffffffffffffffffffffffffffffff16815260200190815260200160002060009054906101000a900460ff16905092915050565b60007f01ffc9a7000000000000000000000000000000000000000000000000000000007bffffffffffffffffffffffffffffffffffffffffffffffffffffffff1916827bffffffffffffffffffffffffffffffffffffffffffffffffffffffff1916149050919050565b610b42816113d7565b610b81576040517f08c379a0000000000000000000000000000000000000000000000000000000008152600401610b7890612043565b60405180910390fd5b50565b600033905090565b816004600083815260200190815260200160002060006101000a81548173ffffffffffffffffffffffffffffffffffffffff021916908373ffffffffffffffffffffffffffffffffffffffff160217905550808273ffffffffffffffffffffffffffffffffffffffff16610bff8361066e565b73ffffffffffffffffffffffffffffffffffffffff167f8c5be1e5ebec7d5bd14f71427d1e84f3dd0314c0f7b2291e5b200ac8c7c3b92560405160405180910390a45050565b600080610c518361066e565b90508073ffffffffffffffffffffffffffffffffffffffff168473ffffffffffffffffffffffffffffffffffffffff161480610c935750610c928185610a3b565b5b80610cd157508373ffffffffffffffffffffffffffffffffffffffff16610cb984610490565b73ffffffffffffffffffffffffffffffffffffffff16145b91505092915050565b8273ffffffffffffffffffffffffffffffffffffffff16610cfa8261066e565b73ffffffffffffffffffffffffffffffffffffffff1614610d50576040517f08c379a0000000000000000000000000000000000000000000000000000000008152600401610d4790611f43565b60405180910390fd5b600073ffffffffffffffffffffffffffffffffffffffff168273ffffffffffffffffffffffffffffffffffffffff161415610dc0576040517f08c379a0000000000000000000000000000000000000000000000000000000008152600401610db790611f83565b60405180910390fd5b610dcb838383611443565b610dd6600082610b8c565b6001600360008573ffffffffffffffffffffffffffffffffffffffff1673ffffffffffffffffffffffffffffffffffffffff1681526020019081526020016000206000828254610e26919061220f565b925050819055506001600360008473ffffffffffffffffffffffffffffffffffffffff1673ffffffffffffffffffffffffffffffffffffffff1681526020019081526020016000206000828254610e7d9190612188565b92505081905550816002600083815260200190815260200160002060006101000a81548173ffffffffffffffffffffffffffffffffffffffff021916908373ffffffffffffffffffffffffffffffffffffffff160217905550808273ffffffffffffffffffffffffffffffffffffffff168473ffffffffffffffffffffffffffffffffffffffff167fddf252ad1be2c89b69c2b068fc378daa952ba7f163c4a11628f55a4df523b3ef60405160405180910390a4610f3c838383611448565b505050565b8173ffffffffffffffffffffffffffffffffffffffff168373ffffffffffffffffffffffffffffffffffffffff161415610fb0576040517f08c379a0000000000000000000000000000000000000000000000000000000008152600401610fa790611fa3565b60405180910390fd5b80600560008573ffffffffffffffffffffffffffffffffffffffff1673ffffffffffffffffffffffffffffffffffffffff16815260200190815260200160002060008473ffffffffffffffffffffffffffffffffffffffff1673ffffffffffffffffffffffffffffffffffffffff16815260200190815260200160002060006101000a81548160ff0219169083151502179055508173ffffffffffffffffffffffffffffffffffffffff168373ffffffffffffffffffffffffffffffffffffffff167f17307eab39ab6107e8899845ad3d59bd9653f200f220920489ca2b5937696c31836040516110a19190611ee6565b60405180910390a3505050565b6110b9848484610cda565b6110c58484848461144d565b611104576040517f08c379a00000000000000000000000000000000000000000000000000000000081526004016110fb90611f23565b60405180910390fd5b50505050565b606060405180602001604052806000815250905090565b606061112c82610b39565b600061113661110a565b905060008151116111565760405180602001604052806000815250611181565b80611160846115e4565b604051602001611171929190611e5b565b6040516020818303038152906040525b915050919050565b600073ffffffffffffffffffffffffffffffffffffffff168273ffffffffffffffffffffffffffffffffffffffff1614156111f9576040517f08c379a00000000000000000000000000000000000000000000000000000000081526004016111f090612023565b60405180910390fd5b611202816113d7565b15611242576040517f08c379a000000000000000000000000000000000000000000000000000000000815260040161123990611f63565b60405180910390fd5b61124e60008383611443565b6001600360008473ffffffffffffffffffffffffffffffffffffffff1673ffffffffffffffffffffffffffffffffffffffff168152602001908152602001600020600082825461129e9190612188565b92505081905550816002600083815260200190815260200160002060006101000a81548173ffffffffffffffffffffffffffffffffffffffff021916908373ffffffffffffffffffffffffffffffffffffffff160217905550808273ffffffffffffffffffffffffffffffffffffffff16600073ffffffffffffffffffffffffffffffffffffffff167fddf252ad1be2c89b69c2b068fc378daa952ba7f163c4a11628f55a4df523b3ef60405160405180910390a461135f60008383611448565b5050565b61136c826113d7565b6113ab576040517f08c379a00000000000000000000000000000000000000000000000000000000081526004016113a290611fe3565b60405180910390fd5b806006600084815260200190815260200160002090805190602001906113d2929190611768565b505050565b60008073ffffffffffffffffffffffffffffffffffffffff166002600084815260200190815260200160002060009054906101000a900473ffffffffffffffffffffffffffffffffffffffff1673ffffffffffffffffffffffffffffffffffffffff1614159050919050565b505050565b505050565b600061146e8473ffffffffffffffffffffffffffffffffffffffff16611745565b156115d7578373ffffffffffffffffffffffffffffffffffffffff1663150b7a02611497610b84565b8786866040518563ffffffff1660e01b81526004016114b99493929190611e9a565b602060405180830381600087803b1580156114d357600080fd5b505af192505050801561150457506040513d601f19601f820116820180604052508101906115019190611b44565b60015b611587573d8060008114611534576040519150601f19603f3d011682016040523d82523d6000602084013e611539565b606091505b5060008151141561157f576040517f08c379a000000000000000000000000000000000000000000000000000000000815260040161157690611f23565b60405180910390fd5b805181602001fd5b63150b7a0260e01b7bffffffffffffffffffffffffffffffffffffffffffffffffffffffff1916817bffffffffffffffffffffffffffffffffffffffffffffffffffffffff1916149150506115dc565b600190505b949350505050565b6060600082141561162c576040518060400160405280600181526020017f30000000000000000000000000000000000000000000000000000000000000008152509050611740565b600082905060005b6000821461165e5780806116479061235c565b915050600a8261165791906121de565b9150611634565b60008167ffffffffffffffff81111561167a57611679612492565b5b6040519080825280601f01601f1916602001820160405280156116ac5781602001600182028036833780820191505090505b5090505b60008514611739576001826116c5919061220f565b9150600a856116d491906123a5565b60306116e09190612188565b60f81b8183815181106116f6576116f5612463565b5b60200101907effffffffffffffffffffffffffffffffffffffffffffffffffffffffffffff1916908160001a905350600a8561173291906121de565b94506116b0565b8093505050505b919050565b6000808273ffffffffffffffffffffffffffffffffffffffff163b119050919050565b828054611774906122f9565b90600052602060002090601f01602090048101928261179657600085556117dd565b82601f106117af57805160ff19168380011785556117dd565b828001600101855582156117dd579182015b828111156117dc5782518255916020019190600101906117c1565b5b5090506117ea91906117ee565b5090565b5b808211156118075760008160009055506001016117ef565b5090565b600061181e611819846120e3565b6120be565b90508281526020810184848401111561183a576118396124c6565b5b6118458482856122b7565b509392505050565b600061186061185b84612114565b6120be565b90508281526020810184848401111561187c5761187b6124c6565b5b6118878482856122b7565b509392505050565b60008135905061189e81612802565b92915050565b6000813590506118b381612819565b92915050565b6000813590506118c881612830565b92915050565b6000815190506118dd81612830565b92915050565b600082601f8301126118f8576118f76124c1565b5b813561190884826020860161180b565b91505092915050565b600082601f830112611926576119256124c1565b5b813561193684826020860161184d565b91505092915050565b60008135905061194e81612847565b92915050565b60006020828403121561196a576119696124d0565b5b60006119788482850161188f565b91505092915050565b60008060408385031215611998576119976124d0565b5b60006119a68582860161188f565b92505060206119b78582860161188f565b9150509250929050565b6000806000606084860312156119da576119d96124d0565b5b60006119e88682870161188f565b93505060206119f98682870161188f565b9250506040611a0a8682870161193f565b9150509250925092565b60008060008060808587031215611a2e57611a2d6124d0565b5b6000611a3c8782880161188f565b9450506020611a4d8782880161188f565b9350506040611a5e8782880161193f565b925050606085013567ffffffffffffffff811115611a7f57611a7e6124cb565b5b611a8b878288016118e3565b91505092959194509250565b60008060408385031215611aae57611aad6124d0565b5b6000611abc8582860161188f565b9250506020611acd858286016118a4565b9150509250929050565b60008060408385031215611aee57611aed6124d0565b5b6000611afc8582860161188f565b9250506020611b0d8582860161193f565b9150509250929050565b600060208284031215611b2d57611b2c6124d0565b5b6000611b3b848285016118b9565b91505092915050565b600060208284031215611b5a57611b596124d0565b5b6000611b68848285016118ce565b91505092915050565b600060208284031215611b8757611b866124d0565b5b600082013567ffffffffffffffff811115611ba557611ba46124cb565b5b611bb184828501611911565b91505092915050565b600060208284031215611bd057611bcf6124d0565b5b6000611bde8482850161193f565b91505092915050565b611bf081612243565b82525050565b611bff81612255565b82525050565b6000611c1082612145565b611c1a818561215b565b9350611c2a8185602086016122c6565b611c33816124d5565b840191505092915050565b6000611c4982612150565b611c53818561216c565b9350611c638185602086016122c6565b611c6c816124d5565b840191505092915050565b6000611c8282612150565b611c8c818561217d565b9350611c9c8185602086016122c6565b80840191505092915050565b6000611cb560328361216c565b9150611cc0826124e6565b604082019050919050565b6000611cd860258361216c565b9150611ce382612535565b604082019050919050565b6000611cfb601c8361216c565b9150611d0682612584565b602082019050919050565b6000611d1e60248361216c565b9150611d29826125ad565b604082019050919050565b6000611d4160198361216c565b9150611d4c826125fc565b602082019050919050565b6000611d6460298361216c565b9150611d6f82612625565b604082019050919050565b6000611d87602e8361216c565b9150611d9282612674565b604082019050919050565b6000611daa603e8361216c565b9150611db5826126c3565b604082019050919050565b6000611dcd60208361216c565b9150611dd882612712565b602082019050919050565b6000611df060188361216c565b9150611dfb8261273b565b602082019050919050565b6000611e1360218361216c565b9150611e1e82612764565b604082019050919050565b6000611e36602e8361216c565b9150611e41826127b3565b604082019050919050565b611e55816122ad565b82525050565b6000611e678285611c77565b9150611e738284611c77565b91508190509392505050565b6000602082019050611e946000830184611be7565b92915050565b6000608082019050611eaf6000830187611be7565b611ebc6020830186611be7565b611ec96040830185611e4c565b8181036060830152611edb8184611c05565b905095945050505050565b6000602082019050611efb6000830184611bf6565b92915050565b60006020820190508181036000830152611f1b8184611c3e565b905092915050565b60006020820190508181036000830152611f3c81611ca8565b9050919050565b60006020820190508181036000830152611f5c81611ccb565b9050919050565b60006020820190508181036000830152611f7c81611cee565b9050919050565b60006020820190508181036000830152611f9c81611d11565b9050919050565b60006020820190508181036000830152611fbc81611d34565b9050919050565b60006020820190508181036000830152611fdc81611d57565b9050919050565b60006020820190508181036000830152611ffc81611d7a565b9050919050565b6000602082019050818103600083015261201c81611d9d565b9050919050565b6000602082019050818103600083015261203c81611dc0565b9050919050565b6000602082019050818103600083015261205c81611de3565b9050919050565b6000602082019050818103600083015261207c81611e06565b9050919050565b6000602082019050818103600083015261209c81611e29565b9050919050565b60006020820190506120b86000830184611e4c565b92915050565b60006120c86120d9565b90506120d4828261232b565b919050565b6000604051905090565b600067ffffffffffffffff8211156120fe576120fd612492565b5b612107826124d5565b9050602081019050919050565b600067ffffffffffffffff82111561212f5761212e612492565b5b612138826124d5565b9050602081019050919050565b600081519050919050565b600081519050919050565b600082825260208201905092915050565b600082825260208201905092915050565b600081905092915050565b6000612193826122ad565b915061219e836122ad565b9250827fffffffffffffffffffffffffffffffffffffffffffffffffffffffffffffffff038211156121d3576121d26123d6565b5b828201905092915050565b60006121e9826122ad565b91506121f4836122ad565b92508261220457612203612405565b5b828204905092915050565b600061221a826122ad565b9150612225836122ad565b925082821015612238576122376123d6565b5b828203905092915050565b600061224e8261228d565b9050919050565b60008115159050919050565b60007fffffffff0000000000000000000000000000000000000000000000000000000082169050919050565b600073ffffffffffffffffffffffffffffffffffffffff82169050919050565b6000819050919050565b82818337600083830152505050565b60005b838110156122e45780820151818401526020810190506122c9565b838111156122f3576000848401525b50505050565b6000600282049050600182168061231157607f821691505b6020821081141561232557612324612434565b5b50919050565b612334826124d5565b810181811067ffffffffffffffff8211171561235357612352612492565b5b80604052505050565b6000612367826122ad565b91507fffffffffffffffffffffffffffffffffffffffffffffffffffffffffffffffff82141561239a576123996123d6565b5b600182019050919050565b60006123b0826122ad565b91506123bb836122ad565b9250826123cb576123ca612405565b5b828206905092915050565b7f4e487b7100000000000000000000000000000000000000000000000000000000600052601160045260246000fd5b7f4e487b7100000000000000000000000000000000000000000000000000000000600052601260045260246000fd5b7f4e487b7100000000000000000000000000000000000000000000000000000000600052602260045260246000fd5b7f4e487b7100000000000000000000000000000000000000000000000000000000600052603260045260246000fd5b7f4e487b7100000000000000000000000000000000000000000000000000000000600052604160045260246000fd5b600080fd5b600080fd5b600080fd5b600080fd5b6000601f19601f8301169050919050565b7f4552433732313a207472616e7366657220746f206e6f6e20455243373231526560008201527f63656976657220696d706c656d656e7465720000000000000000000000000000602082015250565b7f4552433732313a207472616e736665722066726f6d20696e636f72726563742060008201527f6f776e6572000000000000000000000000000000000000000000000000000000602082015250565b7f4552433732313a20746f6b656e20616c7265616479206d696e74656400000000600082015250565b7f4552433732313a207472616e7366657220746f20746865207a65726f2061646460008201527f7265737300000000000000000000000000000000000000000000000000000000602082015250565b7f4552433732313a20617070726f766520746f2063616c6c657200000000000000600082015250565b7f4552433732313a2061646472657373207a65726f206973206e6f74206120766160008201527f6c6964206f776e65720000000000000000000000000000000000000000000000602082015250565b7f45524337323155524953746f726167653a2055524920736574206f66206e6f6e60008201527f6578697374656e7420746f6b656e000000000000000000000000000000000000602082015250565b7f4552433732313a20617070726f76652063616c6c6572206973206e6f7420746f60008201527f6b656e206f776e6572206e6f7220617070726f76656420666f7220616c6c0000602082015250565b7f4552433732313a206d696e7420746f20746865207a65726f2061646472657373600082015250565b7f4552433732313a20696e76616c696420746f6b656e2049440000000000000000600082015250565b7f4552433732313a20617070726f76616c20746f2063757272656e74206f776e6560008201527f7200000000000000000000000000000000000000000000000000000000000000602082015250565b7f4552433732313a2063616c6c6572206973206e6f7420746f6b656e206f776e6560008201527f72206e6f7220617070726f766564000000000000000000000000000000000000602082015250565b61280b81612243565b811461281657600080fd5b50565b61282281612255565b811461282d57600080fd5b50565b61283981612261565b811461284457600080fd5b50565b612850816122ad565b811461285b57600080fd5b5056fea264697066735822122095568f9be716fe6f4565db6bd57432357cc50f91622c1f7b4e8402bcb8616e5b64736f6c63430008070033",
  "devdoc": {
    "kind": "dev",
    "methods": {
      "approve(address,uint256)": {
        "details": "See {IERC721-approve}."
      },
      "balanceOf(address)": {
        "details": "See {IERC721-balanceOf}."
      },
      "getApproved(uint256)": {
        "details": "See {IERC721-getApproved}."
      },
      "isApprovedForAll(address,address)": {
        "details": "See {IERC721-isApprovedForAll}."
      },
      "name()": {
        "details": "See {IERC721Metadata-name}."
      },
      "ownerOf(uint256)": {
        "details": "See {IERC721-ownerOf}."
      },
      "safeTransferFrom(address,address,uint256)": {
        "details": "See {IERC721-safeTransferFrom}."
      },
      "safeTransferFrom(address,address,uint256,bytes)": {
        "details": "See {IERC721-safeTransferFrom}."
      },
      "setApprovalForAll(address,bool)": {
        "details": "See {IERC721-setApprovalForAll}."
      },
      "supportsInterface(bytes4)": {
        "details": "See {IERC165-supportsInterface}."
      },
      "symbol()": {
        "details": "See {IERC721Metadata-symbol}."
      },
      "tokenURI(uint256)": {
        "details": "See {IERC721Metadata-tokenURI}."
      },
      "transferFrom(address,address,uint256)": {
        "details": "See {IERC721-transferFrom}."
      }
    },
    "version": 1
  },
  "userdoc": {
    "kind": "user",
    "methods": {},
    "version": 1
  },
  "storageLayout": {
    "storage": [
      {
        "astId": 25,
        "contract": "contracts/test/NftUriStorage.sol:NftUriStorage",
        "label": "_name",
        "offset": 0,
        "slot": "0",
        "type": "t_string_storage"
      },
      {
        "astId": 27,
        "contract": "contracts/test/NftUriStorage.sol:NftUriStorage",
        "label": "_symbol",
        "offset": 0,
        "slot": "1",
        "type": "t_string_storage"
      },
      {
        "astId": 31,
        "contract": "contracts/test/NftUriStorage.sol:NftUriStorage",
        "label": "_owners",
        "offset": 0,
        "slot": "2",
        "type": "t_mapping(t_uint256,t_address)"
      },
      {
        "astId": 35,
        "contract": "contracts/test/NftUriStorage.sol:NftUriStorage",
        "label": "_balances",
        "offset": 0,
        "slot": "3",
        "type": "t_mapping(t_address,t_uint256)"
      },
      {
        "astId": 39,
        "contract": "contracts/test/NftUriStorage.sol:NftUriStorage",
        "label": "_tokenApprovals",
        "offset": 0,
        "slot": "4",
        "type": "t_mapping(t_uint256,t_address)"
      },
      {
        "astId": 45,
        "contract": "contracts/test/NftUriStorage.sol:NftUriStorage",
        "label": "_operatorApprovals",
        "offset": 0,
        "slot": "5",
        "type": "t_mapping(t_address,t_mapping(t_address,t_bool))"
      },
      {
        "astId": 1013,
        "contract": "contracts/test/NftUriStorage.sol:NftUriStorage",
        "label": "_tokenURIs",
        "offset": 0,
        "slot": "6",
        "type": "t_mapping(t_uint256,t_string_storage)"
      },
      {
        "astId": 1738,
        "contract": "contracts/test/NftUriStorage.sol:NftUriStorage",
        "label": "tokenCounter",
        "offset": 0,
        "slot": "7",
        "type": "t_uint256"
      }
    ],
    "types": {
      "t_address": {
        "encoding": "inplace",
        "label": "address",
        "numberOfBytes": "20"
      },
      "t_bool": {
        "encoding": "inplace",
        "label": "bool",
        "numberOfBytes": "1"
      },
      "t_mapping(t_address,t_bool)": {
        "encoding": "mapping",
        "key": "t_address",
        "label": "mapping(address => bool)",
        "numberOfBytes": "32",
        "value": "t_bool"
      },
      "t_mapping(t_address,t_mapping(t_address,t_bool))": {
        "encoding": "mapping",
        "key": "t_address",
        "label": "mapping(address => mapping(address => bool))",
        "numberOfBytes": "32",
        "value": "t_mapping(t_address,t_bool)"
      },
      "t_mapping(t_address,t_uint256)": {
        "encoding": "mapping",
        "key": "t_address",
        "label": "mapping(address => uint256)",
        "numberOfBytes": "32",
        "value": "t_uint256"
      },
      "t_mapping(t_uint256,t_address)": {
        "encoding": "mapping",
        "key": "t_uint256",
        "label": "mapping(uint256 => address)",
        "numberOfBytes": "32",
        "value": "t_address"
      },
      "t_mapping(t_uint256,t_string_storage)": {
        "encoding": "mapping",
        "key": "t_uint256",
        "label": "mapping(uint256 => string)",
        "numberOfBytes": "32",
        "value": "t_string_storage"
      },
      "t_string_storage": {
        "encoding": "bytes",
        "label": "string",
        "numberOfBytes": "32"
      },
      "t_uint256": {
        "encoding": "inplace",
        "label": "uint256",
        "numberOfBytes": "32"
      }
    }
  }
}