{
  "_format": "hh-sol-artifact-1",
  "contractName": "OkenV1RentableNft",
  "sourceName": "contracts/token/OkenV1RentableNft.sol",
  "abi": [
    {
      "inputs": [
        {
          "internalType": "string",
          "name": "name_",
          "type": "string"
        },
        {
          "internalType": "string",
          "name": "symbol_",
          "type": "string"
        },
        {
          "internalType": "address",
          "name": "rentMarketplace",
          "type": "address"
        },
        {
          "internalType": "address",
          "name": "sellMarketplace",
          "type": "address"
        },
        {
          "internalType": "uint256",
          "name": "platformFee",
          "type": "uint256"
        },
        {
          "internalType": "address payable",
          "name": "feeRecipient",
          "type": "address"
        }
      ],
      "stateMutability": "nonpayable",
      "type": "constructor"
    },
    {
      "inputs": [
        {
          "internalType": "uint256",
          "name": "expected",
          "type": "uint256"
        },
        {
          "internalType": "uint256",
          "name": "actual",
          "type": "uint256"
        }
      ],
      "name": "InsufficientFunds",
      "type": "error"
    },
    {
      "inputs": [
        {
          "internalType": "uint256",
          "name": "tokenId",
          "type": "uint256"
        }
      ],
      "name": "NotExists",
      "type": "error"
    },
    {
      "inputs": [
        {
          "internalType": "address",
          "name": "operator",
          "type": "address"
        }
      ],
      "name": "NotOwnerNorApproved",
      "type": "error"
    },
    {
      "inputs": [],
      "name": "TransferFailed",
      "type": "error"
    },
    {
      "anonymous": false,
      "inputs": [
        {
          "indexed": true,
          "internalType": "address",
          "name": "owner",
          "type": "address"
        },
        {
          "indexed": true,
          "internalType": "address",
          "name": "approved",
          "type": "address"
        },
        {
          "indexed": true,
          "internalType": "uint256",
          "name": "tokenId",
          "type": "uint256"
        }
      ],
      "name": "Approval",
      "type": "event"
    },
    {
      "anonymous": false,
      "inputs": [
        {
          "indexed": true,
          "internalType": "address",
          "name": "owner",
          "type": "address"
        },
        {
          "indexed": true,
          "internalType": "address",
          "name": "operator",
          "type": "address"
        },
        {
          "indexed": false,
          "internalType": "bool",
          "name": "approved",
          "type": "bool"
        }
      ],
      "name": "ApprovalForAll",
      "type": "event"
    },
    {
      "anonymous": false,
      "inputs": [
        {
          "indexed": true,
          "internalType": "uint256",
          "name": "tokenId",
          "type": "uint256"
        },
        {
          "indexed": true,
          "internalType": "address",
          "name": "operator",
          "type": "address"
        }
      ],
      "name": "Burned",
      "type": "event"
    },
    {
      "anonymous": false,
      "inputs": [
        {
          "indexed": true,
          "internalType": "address payable",
          "name": "newRecipient",
          "type": "address"
        }
      ],
      "name": "FeeRecipientUpdated",
      "type": "event"
    },
    {
      "anonymous": false,
      "inputs": [
        {
          "indexed": true,
          "internalType": "uint256",
          "name": "tokenId",
          "type": "uint256"
        },
        {
          "indexed": true,
          "internalType": "address",
          "name": "owner",
          "type": "address"
        },
        {
          "indexed": true,
          "internalType": "address",
          "name": "minter",
          "type": "address"
        }
      ],
      "name": "Minted",
      "type": "event"
    },
    {
      "anonymous": false,
      "inputs": [
        {
          "indexed": true,
          "internalType": "address",
          "name": "previousOwner",
          "type": "address"
        },
        {
          "indexed": true,
          "internalType": "address",
          "name": "newOwner",
          "type": "address"
        }
      ],
      "name": "OwnershipTransferred",
      "type": "event"
    },
    {
      "anonymous": false,
      "inputs": [
        {
          "indexed": true,
          "internalType": "uint256",
          "name": "newFee",
          "type": "uint256"
        }
      ],
      "name": "PlatformFeeUpdated",
      "type": "event"
    },
    {
      "anonymous": false,
      "inputs": [
        {
          "indexed": true,
          "internalType": "address",
          "name": "from",
          "type": "address"
        },
        {
          "indexed": true,
          "internalType": "address",
          "name": "to",
          "type": "address"
        },
        {
          "indexed": true,
          "internalType": "uint256",
          "name": "tokenId",
          "type": "uint256"
        }
      ],
      "name": "Transfer",
      "type": "event"
    },
    {
      "anonymous": false,
      "inputs": [
        {
          "indexed": true,
          "internalType": "uint256",
          "name": "tokenId",
          "type": "uint256"
        },
        {
          "indexed": true,
          "internalType": "address",
          "name": "user",
          "type": "address"
        },
        {
          "indexed": false,
          "internalType": "uint64",
          "name": "expires",
          "type": "uint64"
        }
      ],
      "name": "UpdateUser",
      "type": "event"
    },
    {
      "inputs": [
        {
          "internalType": "address",
          "name": "to",
          "type": "address"
        },
        {
          "internalType": "uint256",
          "name": "tokenId",
          "type": "uint256"
        }
      ],
      "name": "approve",
      "outputs": [],
      "stateMutability": "nonpayable",
      "type": "function"
    },
    {
      "inputs": [
        {
          "internalType": "address",
          "name": "owner",
          "type": "address"
        }
      ],
      "name": "balanceOf",
      "outputs": [
        {
          "internalType": "uint256",
          "name": "",
          "type": "uint256"
        }
      ],
      "stateMutability": "view",
      "type": "function"
    },
    {
      "inputs": [
        {
          "internalType": "uint256",
          "name": "tokenId",
          "type": "uint256"
        }
      ],
      "name": "burn",
      "outputs": [],
      "stateMutability": "nonpayable",
      "type": "function"
    },
    {
      "inputs": [
        {
          "internalType": "uint256",
          "name": "tokenId",
          "type": "uint256"
        }
      ],
      "name": "getApproved",
      "outputs": [
        {
          "internalType": "address",
          "name": "",
          "type": "address"
        }
      ],
      "stateMutability": "view",
      "type": "function"
    },
    {
      "inputs": [
        {
          "internalType": "uint256",
          "name": "tokenId",
          "type": "uint256"
        }
      ],
      "name": "getExists",
      "outputs": [
        {
          "internalType": "bool",
          "name": "",
          "type": "bool"
        }
      ],
      "stateMutability": "view",
      "type": "function"
    },
    {
      "inputs": [],
      "name": "getFeeRecipient",
      "outputs": [
        {
          "internalType": "address payable",
          "name": "",
          "type": "address"
        }
      ],
      "stateMutability": "view",
      "type": "function"
    },
    {
      "inputs": [],
      "name": "getPlatformFee",
      "outputs": [
        {
          "internalType": "uint256",
          "name": "",
          "type": "uint256"
        }
      ],
      "stateMutability": "view",
      "type": "function"
    },
    {
      "inputs": [],
      "name": "getRentMarketplace",
      "outputs": [
        {
          "internalType": "address",
          "name": "",
          "type": "address"
        }
      ],
      "stateMutability": "view",
      "type": "function"
    },
    {
      "inputs": [],
      "name": "getSellMarketplace",
      "outputs": [
        {
          "internalType": "address",
          "name": "",
          "type": "address"
        }
      ],
      "stateMutability": "view",
      "type": "function"
    },
    {
      "inputs": [],
      "name": "getTokenCounter",
      "outputs": [
        {
          "internalType": "uint256",
          "name": "",
          "type": "uint256"
        }
      ],
      "stateMutability": "view",
      "type": "function"
    },
    {
      "inputs": [
        {
          "internalType": "uint256",
          "name": "tokenId",
          "type": "uint256"
        },
        {
          "internalType": "address",
          "name": "operator",
          "type": "address"
        }
      ],
      "name": "isApproved",
      "outputs": [
        {
          "internalType": "bool",
          "name": "",
          "type": "bool"
        }
      ],
      "stateMutability": "view",
      "type": "function"
    },
    {
      "inputs": [
        {
          "internalType": "address",
          "name": "owner",
          "type": "address"
        },
        {
          "internalType": "address",
          "name": "operator",
          "type": "address"
        }
      ],
      "name": "isApprovedForAll",
      "outputs": [
        {
          "internalType": "bool",
          "name": "",
          "type": "bool"
        }
      ],
      "stateMutability": "view",
      "type": "function"
    },
    {
      "inputs": [
        {
          "internalType": "address",
          "name": "to",
          "type": "address"
        },
        {
          "internalType": "string",
          "name": "uri",
          "type": "string"
        }
      ],
      "name": "mint",
      "outputs": [],
      "stateMutability": "payable",
      "type": "function"
    },
    {
      "inputs": [],
      "name": "name",
      "outputs": [
        {
          "internalType": "string",
          "name": "",
          "type": "string"
        }
      ],
      "stateMutability": "view",
      "type": "function"
    },
    {
      "inputs": [],
      "name": "owner",
      "outputs": [
        {
          "internalType": "address",
          "name": "",
          "type": "address"
        }
      ],
      "stateMutability": "view",
      "type": "function"
    },
    {
      "inputs": [
        {
          "internalType": "uint256",
          "name": "tokenId",
          "type": "uint256"
        }
      ],
      "name": "ownerOf",
      "outputs": [
        {
          "internalType": "address",
          "name": "",
          "type": "address"
        }
      ],
      "stateMutability": "view",
      "type": "function"
    },
    {
      "inputs": [],
      "name": "renounceOwnership",
      "outputs": [],
      "stateMutability": "nonpayable",
      "type": "function"
    },
    {
      "inputs": [
        {
          "internalType": "address",
          "name": "from",
          "type": "address"
        },
        {
          "internalType": "address",
          "name": "to",
          "type": "address"
        },
        {
          "internalType": "uint256",
          "name": "tokenId",
          "type": "uint256"
        }
      ],
      "name": "safeTransferFrom",
      "outputs": [],
      "stateMutability": "nonpayable",
      "type": "function"
    },
    {
      "inputs": [
        {
          "internalType": "address",
          "name": "from",
          "type": "address"
        },
        {
          "internalType": "address",
          "name": "to",
          "type": "address"
        },
        {
          "internalType": "uint256",
          "name": "tokenId",
          "type": "uint256"
        },
        {
          "internalType": "bytes",
          "name": "data",
          "type": "bytes"
        }
      ],
      "name": "safeTransferFrom",
      "outputs": [],
      "stateMutability": "nonpayable",
      "type": "function"
    },
    {
      "inputs": [
        {
          "internalType": "address",
          "name": "operator",
          "type": "address"
        },
        {
          "internalType": "bool",
          "name": "approved",
          "type": "bool"
        }
      ],
      "name": "setApprovalForAll",
      "outputs": [],
      "stateMutability": "nonpayable",
      "type": "function"
    },
    {
      "inputs": [
        {
          "internalType": "address payable",
          "name": "newRecipient",
          "type": "address"
        }
      ],
      "name": "setFeeRecipient",
      "outputs": [],
      "stateMutability": "nonpayable",
      "type": "function"
    },
    {
      "inputs": [
        {
          "internalType": "uint256",
          "name": "newFee",
          "type": "uint256"
        }
      ],
      "name": "setPlatformFee",
      "outputs": [],
      "stateMutability": "nonpayable",
      "type": "function"
    },
    {
      "inputs": [
        {
          "internalType": "uint256",
          "name": "tokenId",
          "type": "uint256"
        },
        {
          "internalType": "address",
          "name": "user",
          "type": "address"
        },
        {
          "internalType": "uint64",
          "name": "expires",
          "type": "uint64"
        }
      ],
      "name": "setUser",
      "outputs": [],
      "stateMutability": "nonpayable",
      "type": "function"
    },
    {
      "inputs": [
        {
          "internalType": "bytes4",
          "name": "interfaceId",
          "type": "bytes4"
        }
      ],
      "name": "supportsInterface",
      "outputs": [
        {
          "internalType": "bool",
          "name": "",
          "type": "bool"
        }
      ],
      "stateMutability": "view",
      "type": "function"
    },
    {
      "inputs": [],
      "name": "symbol",
      "outputs": [
        {
          "internalType": "string",
          "name": "",
          "type": "string"
        }
      ],
      "stateMutability": "view",
      "type": "function"
    },
    {
      "inputs": [
        {
          "internalType": "uint256",
          "name": "tokenId",
          "type": "uint256"
        }
      ],
      "name": "tokenURI",
      "outputs": [
        {
          "internalType": "string",
          "name": "",
          "type": "string"
        }
      ],
      "stateMutability": "view",
      "type": "function"
    },
    {
      "inputs": [
        {
          "internalType": "address",
          "name": "from",
          "type": "address"
        },
        {
          "internalType": "address",
          "name": "to",
          "type": "address"
        },
        {
          "internalType": "uint256",
          "name": "tokenId",
          "type": "uint256"
        }
      ],
      "name": "transferFrom",
      "outputs": [],
      "stateMutability": "nonpayable",
      "type": "function"
    },
    {
      "inputs": [
        {
          "internalType": "address",
          "name": "newOwner",
          "type": "address"
        }
      ],
      "name": "transferOwnership",
      "outputs": [],
      "stateMutability": "nonpayable",
      "type": "function"
    },
    {
      "inputs": [
        {
          "internalType": "uint256",
          "name": "tokenId",
          "type": "uint256"
        }
      ],
      "name": "userExpires",
      "outputs": [
        {
          "internalType": "uint256",
          "name": "",
          "type": "uint256"
        }
      ],
      "stateMutability": "view",
      "type": "function"
    },
    {
      "inputs": [
        {
          "internalType": "uint256",
          "name": "tokenId",
          "type": "uint256"
        }
      ],
      "name": "userOf",
      "outputs": [
        {
          "internalType": "address",
          "name": "",
          "type": "address"
        }
      ],
      "stateMutability": "view",
      "type": "function"
    }
  ],
  "bytecode": "0x60806040523480156200001157600080fd5b506040516200450f3803806200450f83398181016040528101906200003791906200041c565b8585816000908051906020019062000051929190620002a9565b5080600190805190602001906200006a929190620002a9565b5050506200008d62000081620001db60201b60201c565b620001e360201b60201c565b600060098190555083600a60006101000a81548173ffffffffffffffffffffffffffffffffffffffff021916908373ffffffffffffffffffffffffffffffffffffffff16021790555082600b60006101000a81548173ffffffffffffffffffffffffffffffffffffffff021916908373ffffffffffffffffffffffffffffffffffffffff16021790555081600c81905550817f45610d581145924dd7090a5017e5f2b1d6f42213bb2e95707ff86846bbfcb1ca60405160405180910390a280600d60006101000a81548173ffffffffffffffffffffffffffffffffffffffff021916908373ffffffffffffffffffffffffffffffffffffffff1602179055508073ffffffffffffffffffffffffffffffffffffffff167f7a7b5a0a132f9e0581eb8527f66eae9ee89c2a3e79d4ac7e41a1f1f4d48a7fc260405160405180910390a25050505050506200071a565b600033905090565b6000600860009054906101000a900473ffffffffffffffffffffffffffffffffffffffff16905081600860006101000a81548173ffffffffffffffffffffffffffffffffffffffff021916908373ffffffffffffffffffffffffffffffffffffffff1602179055508173ffffffffffffffffffffffffffffffffffffffff168173ffffffffffffffffffffffffffffffffffffffff167f8be0079c531659141344cd1fd0a4f28419497f9722a3daafe3b4186f6b6457e060405160405180910390a35050565b828054620002b790620005dd565b90600052602060002090601f016020900481019282620002db576000855562000327565b82601f10620002f657805160ff191683800117855562000327565b8280016001018555821562000327579182015b828111156200032657825182559160200191906001019062000309565b5b5090506200033691906200033a565b5090565b5b80821115620003555760008160009055506001016200033b565b5090565b6000620003706200036a846200051f565b620004f6565b9050828152602081018484840111156200038f576200038e620006ac565b5b6200039c848285620005a7565b509392505050565b600081519050620003b581620006cc565b92915050565b600081519050620003cc81620006e6565b92915050565b600082601f830112620003ea57620003e9620006a7565b5b8151620003fc84826020860162000359565b91505092915050565b600081519050620004168162000700565b92915050565b60008060008060008060c087890312156200043c576200043b620006b6565b5b600087015167ffffffffffffffff8111156200045d576200045c620006b1565b5b6200046b89828a01620003d2565b965050602087015167ffffffffffffffff8111156200048f576200048e620006b1565b5b6200049d89828a01620003d2565b9550506040620004b089828a01620003a4565b9450506060620004c389828a01620003a4565b9350506080620004d689828a0162000405565b92505060a0620004e989828a01620003bb565b9150509295509295509295565b60006200050262000515565b905062000510828262000613565b919050565b6000604051905090565b600067ffffffffffffffff8211156200053d576200053c62000678565b5b6200054882620006bb565b9050602081019050919050565b600062000562826200057d565b9050919050565b600062000576826200057d565b9050919050565b600073ffffffffffffffffffffffffffffffffffffffff82169050919050565b6000819050919050565b60005b83811015620005c7578082015181840152602081019050620005aa565b83811115620005d7576000848401525b50505050565b60006002820490506001821680620005f657607f821691505b602082108114156200060d576200060c62000649565b5b50919050565b6200061e82620006bb565b810181811067ffffffffffffffff8211171562000640576200063f62000678565b5b80604052505050565b7f4e487b7100000000000000000000000000000000000000000000000000000000600052602260045260246000fd5b7f4e487b7100000000000000000000000000000000000000000000000000000000600052604160045260246000fd5b600080fd5b600080fd5b600080fd5b600080fd5b6000601f19601f8301169050919050565b620006d78162000555565b8114620006e357600080fd5b50565b620006f18162000569565b8114620006fd57600080fd5b50565b6200070b816200059d565b81146200071757600080fd5b50565b613de5806200072a6000396000f3fe6080604052600436106101cd5760003560e01c806376af5bf6116100f7578063c2f1f14a11610095578063e030565e11610064578063e030565e146106a1578063e74b981b146106ca578063e985e9c5146106f3578063f2fde38b14610730576101cd565b8063c2f1f14a146105e0578063c87b56dd1461061d578063d0def5211461065a578063df3025db14610676576101cd565b806395d89b41116100d157806395d89b41146105385780639ba4c80414610563578063a22cb4651461058e578063b88d4fde146105b7576101cd565b806376af5bf6146104935780638da5cb5b146104d05780638fc88c48146104fb576101cd565b806342966c681161016f5780636e02007d1161013e5780636e02007d146103e95780636ea8bc101461041457806370a082311461043f578063715018a61461047c576101cd565b806342966c681461031b5780634ccb20c01461034457806356c316371461036f5780636352211e146103ac576101cd565b8063095ea7b3116101ab578063095ea7b31461027757806312e8e2c3146102a057806323b872dd146102c957806342842e0e146102f2576101cd565b806301ffc9a7146101d257806306fdde031461020f578063081812fc1461023a575b600080fd5b3480156101de57600080fd5b506101f960048036038101906101f49190612d62565b610759565b6040516102069190613264565b60405180910390f35b34801561021b57600080fd5b506102246107d3565b604051610231919061329a565b60405180910390f35b34801561024657600080fd5b50610261600480360381019061025c9190612dbc565b610865565b60405161026e91906131e2565b60405180910390f35b34801561028357600080fd5b5061029e60048036038101906102999190612d22565b6108ab565b005b3480156102ac57600080fd5b506102c760048036038101906102c29190612dbc565b6109c3565b005b3480156102d557600080fd5b506102f060048036038101906102eb9190612bac565b610a02565b005b3480156102fe57600080fd5b5061031960048036038101906103149190612bac565b610a62565b005b34801561032757600080fd5b50610342600480360381019061033d9190612dbc565b610a82565b005b34801561035057600080fd5b50610359610b6c565b60405161036691906131fd565b60405180910390f35b34801561037b57600080fd5b5061039660048036038101906103919190612de9565b610b96565b6040516103a39190613264565b60405180910390f35b3480156103b857600080fd5b506103d360048036038101906103ce9190612dbc565b610bf0565b6040516103e091906131e2565b60405180910390f35b3480156103f557600080fd5b506103fe610ca2565b60405161040b919061349c565b60405180910390f35b34801561042057600080fd5b50610429610cac565b604051610436919061349c565b60405180910390f35b34801561044b57600080fd5b5061046660048036038101906104619190612b12565b610cb6565b604051610473919061349c565b60405180910390f35b34801561048857600080fd5b50610491610d6e565b005b34801561049f57600080fd5b506104ba60048036038101906104b59190612dbc565b610d82565b6040516104c79190613264565b60405180910390f35b3480156104dc57600080fd5b506104e5610d94565b6040516104f291906131e2565b60405180910390f35b34801561050757600080fd5b50610522600480360381019061051d9190612dbc565b610dbe565b60405161052f919061349c565b60405180910390f35b34801561054457600080fd5b5061054d610dfc565b60405161055a919061329a565b60405180910390f35b34801561056f57600080fd5b50610578610e8e565b60405161058591906131e2565b60405180910390f35b34801561059a57600080fd5b506105b560048036038101906105b09190612c82565b610eb8565b005b3480156105c357600080fd5b506105de60048036038101906105d99190612bff565b610ece565b005b3480156105ec57600080fd5b5061060760048036038101906106029190612dbc565b610f30565b60405161061491906131e2565b60405180910390f35b34801561062957600080fd5b50610644600480360381019061063f9190612dbc565b610fb5565b604051610651919061329a565b60405180910390f35b610674600480360381019061066f9190612cc2565b6110c8565b005b34801561068257600080fd5b5061068b6112bf565b60405161069891906131e2565b60405180910390f35b3480156106ad57600080fd5b506106c860048036038101906106c39190612e29565b6112e9565b005b3480156106d657600080fd5b506106f160048036038101906106ec9190612b3f565b61140c565b005b3480156106ff57600080fd5b5061071a60048036038101906107159190612b6c565b61149b565b6040516107279190613264565b60405180910390f35b34801561073c57600080fd5b5061075760048036038101906107529190612b12565b611567565b005b60007fad092b5c000000000000000000000000000000000000000000000000000000007bffffffffffffffffffffffffffffffffffffffffffffffffffffffff1916827bffffffffffffffffffffffffffffffffffffffffffffffffffffffff191614806107cc57506107cb826115eb565b5b9050919050565b6060600080546107e290613748565b80601f016020809104026020016040519081016040528092919081815260200182805461080e90613748565b801561085b5780601f106108305761010080835404028352916020019161085b565b820191906000526020600020905b81548152906001019060200180831161083e57829003601f168201915b5050505050905090565b6000610870826116cd565b6004600083815260200190815260200160002060009054906101000a900473ffffffffffffffffffffffffffffffffffffffff169050919050565b60006108b682610bf0565b90508073ffffffffffffffffffffffffffffffffffffffff168373ffffffffffffffffffffffffffffffffffffffff161415610927576040517f08c379a000000000000000000000000000000000000000000000000000000000815260040161091e9061343c565b60405180910390fd5b8073ffffffffffffffffffffffffffffffffffffffff16610946611718565b73ffffffffffffffffffffffffffffffffffffffff16148061097557506109748161096f611718565b61149b565b5b6109b4576040517f08c379a00000000000000000000000000000000000000000000000000000000081526004016109ab906133bc565b60405180910390fd5b6109be8383611720565b505050565b6109cb6117d9565b80600c81905550807f45610d581145924dd7090a5017e5f2b1d6f42213bb2e95707ff86846bbfcb1ca60405160405180910390a250565b610a13610a0d611718565b82611857565b610a52576040517f08c379a0000000000000000000000000000000000000000000000000000000008152600401610a499061347c565b60405180910390fd5b610a5d8383836118dd565b505050565b610a7d83838360405180602001604052806000815250610ece565b505050565b6000610a8c611718565b90508073ffffffffffffffffffffffffffffffffffffffff16610aae83610bf0565b73ffffffffffffffffffffffffffffffffffffffff1614158015610ad95750610ad78282610b96565b155b15610b1b57806040517fc476e34b000000000000000000000000000000000000000000000000000000008152600401610b1291906131e2565b60405180910390fd5b610b2482611b44565b8073ffffffffffffffffffffffffffffffffffffffff16827fe861e0b12c283de7ca3f4d68d33f3bfc6fc01e4896cddf05e52b8f2a1e548e2460405160405180910390a35050565b6000600d60009054906101000a900473ffffffffffffffffffffffffffffffffffffffff16905090565b6000610baa610ba484610bf0565b8361149b565b80610be857508173ffffffffffffffffffffffffffffffffffffffff16610bd084610865565b73ffffffffffffffffffffffffffffffffffffffff16145b905092915050565b6000806002600084815260200190815260200160002060009054906101000a900473ffffffffffffffffffffffffffffffffffffffff169050600073ffffffffffffffffffffffffffffffffffffffff168173ffffffffffffffffffffffffffffffffffffffff161415610c99576040517f08c379a0000000000000000000000000000000000000000000000000000000008152600401610c909061341c565b60405180910390fd5b80915050919050565b6000600954905090565b6000600c54905090565b60008073ffffffffffffffffffffffffffffffffffffffff168273ffffffffffffffffffffffffffffffffffffffff161415610d27576040517f08c379a0000000000000000000000000000000000000000000000000000000008152600401610d1e9061337c565b60405180910390fd5b600360008373ffffffffffffffffffffffffffffffffffffffff1673ffffffffffffffffffffffffffffffffffffffff168152602001908152602001600020549050919050565b610d766117d9565b610d806000611b97565b565b6000610d8d82611c5d565b9050919050565b6000600860009054906101000a900473ffffffffffffffffffffffffffffffffffffffff16905090565b60006007600083815260200190815260200160002060000160149054906101000a900467ffffffffffffffff1667ffffffffffffffff169050919050565b606060018054610e0b90613748565b80601f0160208091040260200160405190810160405280929190818152602001828054610e3790613748565b8015610e845780601f10610e5957610100808354040283529160200191610e84565b820191906000526020600020905b815481529060010190602001808311610e6757829003601f168201915b5050505050905090565b6000600a60009054906101000a900473ffffffffffffffffffffffffffffffffffffffff16905090565b610eca610ec3611718565b8383611cc9565b5050565b610edf610ed9611718565b83611857565b610f1e576040517f08c379a0000000000000000000000000000000000000000000000000000000008152600401610f159061347c565b60405180910390fd5b610f2a84848484611e36565b50505050565b6000426007600084815260200190815260200160002060000160149054906101000a900467ffffffffffffffff1667ffffffffffffffff1610610fab576007600083815260200190815260200160002060000160009054906101000a900473ffffffffffffffffffffffffffffffffffffffff169050610fb0565b600090505b919050565b6060610fc0826116cd565b6000600660008481526020019081526020016000208054610fe090613748565b80601f016020809104026020016040519081016040528092919081815260200182805461100c90613748565b80156110595780601f1061102e57610100808354040283529160200191611059565b820191906000526020600020905b81548152906001019060200180831161103c57829003601f168201915b50505050509050600061106a611e92565b90506000815114156110805781925050506110c3565b6000825111156110b557808260405160200161109d9291906131a9565b604051602081830303815290604052925050506110c3565b6110be84611ea9565b925050505b919050565b600c5434101561111357600c54346040517f03eb8b5400000000000000000000000000000000000000000000000000000000815260040161110a9291906134b7565b60405180910390fd5b600060095490506111248482611f11565b6111728184848080601f016020809104026020016040519081016040528093929190818152602001838380828437600081840152601f19601f82011690508083019250505050505050611f2f565b600160096000828254611185919061359f565b925050819055506000600d60009054906101000a900473ffffffffffffffffffffffffffffffffffffffff1673ffffffffffffffffffffffffffffffffffffffff16346108fc906040516111d8906131cd565b600060405180830381858888f193505050503d8060008114611216576040519150601f19603f3d011682016040523d82523d6000602084013e61121b565b606091505b5050905080611256576040517f90b8ec1800000000000000000000000000000000000000000000000000000000815260040160405180910390fd5b61125e611718565b73ffffffffffffffffffffffffffffffffffffffff168573ffffffffffffffffffffffffffffffffffffffff16837f5758c4c0a4d007ca9768a0a574eedc39af88c4423f4ad0f8895b1b8fd1e7613360405160405180910390a45050505050565b6000600b60009054906101000a900473ffffffffffffffffffffffffffffffffffffffff16905090565b6112f33384611857565b611332576040517f08c379a00000000000000000000000000000000000000000000000000000000081526004016113299061345c565b60405180910390fd5b6000600760008581526020019081526020016000209050828160000160006101000a81548173ffffffffffffffffffffffffffffffffffffffff021916908373ffffffffffffffffffffffffffffffffffffffff160217905550818160000160146101000a81548167ffffffffffffffff021916908367ffffffffffffffff1602179055508273ffffffffffffffffffffffffffffffffffffffff16847f4e06b4e7000e659094299b3533b47b6aa8ad048e95e872d23d1f4ee55af89cfe846040516113fe91906134e0565b60405180910390a350505050565b6114146117d9565b80600d60006101000a81548173ffffffffffffffffffffffffffffffffffffffff021916908373ffffffffffffffffffffffffffffffffffffffff1602179055508073ffffffffffffffffffffffffffffffffffffffff167f7a7b5a0a132f9e0581eb8527f66eae9ee89c2a3e79d4ac7e41a1f1f4d48a7fc260405160405180910390a250565b60008173ffffffffffffffffffffffffffffffffffffffff16600a60009054906101000a900473ffffffffffffffffffffffffffffffffffffffff1673ffffffffffffffffffffffffffffffffffffffff16148061154657508173ffffffffffffffffffffffffffffffffffffffff16600b60009054906101000a900473ffffffffffffffffffffffffffffffffffffffff1673ffffffffffffffffffffffffffffffffffffffff16145b156115545760019050611561565b61155e8383611fa3565b90505b92915050565b61156f6117d9565b600073ffffffffffffffffffffffffffffffffffffffff168173ffffffffffffffffffffffffffffffffffffffff1614156115df576040517f08c379a00000000000000000000000000000000000000000000000000000000081526004016115d6906132dc565b60405180910390fd5b6115e881611b97565b50565b60007f80ac58cd000000000000000000000000000000000000000000000000000000007bffffffffffffffffffffffffffffffffffffffffffffffffffffffff1916827bffffffffffffffffffffffffffffffffffffffffffffffffffffffff191614806116b657507f5b5e139f000000000000000000000000000000000000000000000000000000007bffffffffffffffffffffffffffffffffffffffffffffffffffffffff1916827bffffffffffffffffffffffffffffffffffffffffffffffffffffffff1916145b806116c657506116c582612037565b5b9050919050565b6116d681611c5d565b611715576040517f08c379a000000000000000000000000000000000000000000000000000000000815260040161170c9061341c565b60405180910390fd5b50565b600033905090565b816004600083815260200190815260200160002060006101000a81548173ffffffffffffffffffffffffffffffffffffffff021916908373ffffffffffffffffffffffffffffffffffffffff160217905550808273ffffffffffffffffffffffffffffffffffffffff1661179383610bf0565b73ffffffffffffffffffffffffffffffffffffffff167f8c5be1e5ebec7d5bd14f71427d1e84f3dd0314c0f7b2291e5b200ac8c7c3b92560405160405180910390a45050565b6117e1611718565b73ffffffffffffffffffffffffffffffffffffffff166117ff610d94565b73ffffffffffffffffffffffffffffffffffffffff1614611855576040517f08c379a000000000000000000000000000000000000000000000000000000000815260040161184c906133fc565b60405180910390fd5b565b600061186282611c5d565b6118a357816040517f4003283c00000000000000000000000000000000000000000000000000000000815260040161189a919061349c565b60405180910390fd5b60006118ae83610bf0565b90506118ba818561149b565b156118c95760019150506118d7565b6118d384846120a1565b9150505b92915050565b8273ffffffffffffffffffffffffffffffffffffffff166118fd82610bf0565b73ffffffffffffffffffffffffffffffffffffffff1614611953576040517f08c379a000000000000000000000000000000000000000000000000000000000815260040161194a906132fc565b60405180910390fd5b600073ffffffffffffffffffffffffffffffffffffffff168273ffffffffffffffffffffffffffffffffffffffff1614156119c3576040517f08c379a00000000000000000000000000000000000000000000000000000000081526004016119ba9061333c565b60405180910390fd5b6119ce838383612136565b6119d9600082611720565b6001600360008573ffffffffffffffffffffffffffffffffffffffff1673ffffffffffffffffffffffffffffffffffffffff1681526020019081526020016000206000828254611a299190613626565b925050819055506001600360008473ffffffffffffffffffffffffffffffffffffffff1673ffffffffffffffffffffffffffffffffffffffff1681526020019081526020016000206000828254611a80919061359f565b92505081905550816002600083815260200190815260200160002060006101000a81548173ffffffffffffffffffffffffffffffffffffffff021916908373ffffffffffffffffffffffffffffffffffffffff160217905550808273ffffffffffffffffffffffffffffffffffffffff168473ffffffffffffffffffffffffffffffffffffffff167fddf252ad1be2c89b69c2b068fc378daa952ba7f163c4a11628f55a4df523b3ef60405160405180910390a4611b3f83838361225f565b505050565b611b4d81612264565b6000600660008381526020019081526020016000208054611b6d90613748565b905014611b9457600660008281526020019081526020016000206000611b9391906128d6565b5b50565b6000600860009054906101000a900473ffffffffffffffffffffffffffffffffffffffff16905081600860006101000a81548173ffffffffffffffffffffffffffffffffffffffff021916908373ffffffffffffffffffffffffffffffffffffffff1602179055508173ffffffffffffffffffffffffffffffffffffffff168173ffffffffffffffffffffffffffffffffffffffff167f8be0079c531659141344cd1fd0a4f28419497f9722a3daafe3b4186f6b6457e060405160405180910390a35050565b60008073ffffffffffffffffffffffffffffffffffffffff166002600084815260200190815260200160002060009054906101000a900473ffffffffffffffffffffffffffffffffffffffff1673ffffffffffffffffffffffffffffffffffffffff1614159050919050565b8173ffffffffffffffffffffffffffffffffffffffff168373ffffffffffffffffffffffffffffffffffffffff161415611d38576040517f08c379a0000000000000000000000000000000000000000000000000000000008152600401611d2f9061335c565b60405180910390fd5b80600560008573ffffffffffffffffffffffffffffffffffffffff1673ffffffffffffffffffffffffffffffffffffffff16815260200190815260200160002060008473ffffffffffffffffffffffffffffffffffffffff1673ffffffffffffffffffffffffffffffffffffffff16815260200190815260200160002060006101000a81548160ff0219169083151502179055508173ffffffffffffffffffffffffffffffffffffffff168373ffffffffffffffffffffffffffffffffffffffff167f17307eab39ab6107e8899845ad3d59bd9653f200f220920489ca2b5937696c3183604051611e299190613264565b60405180910390a3505050565b611e418484846118dd565b611e4d84848484612381565b611e8c576040517f08c379a0000000000000000000000000000000000000000000000000000000008152600401611e83906132bc565b60405180910390fd5b50505050565b606060405180602001604052806000815250905090565b6060611eb4826116cd565b6000611ebe611e92565b90506000815111611ede5760405180602001604052806000815250611f09565b80611ee884612518565b604051602001611ef99291906131a9565b6040516020818303038152906040525b915050919050565b611f2b828260405180602001604052806000815250612679565b5050565b611f3882611c5d565b611f77576040517f08c379a0000000000000000000000000000000000000000000000000000000008152600401611f6e9061339c565b60405180910390fd5b80600660008481526020019081526020016000209080519060200190611f9e929190612916565b505050565b6000600560008473ffffffffffffffffffffffffffffffffffffffff1673ffffffffffffffffffffffffffffffffffffffff16815260200190815260200160002060008373ffffffffffffffffffffffffffffffffffffffff1673ffffffffffffffffffffffffffffffffffffffff16815260200190815260200160002060009054906101000a900460ff16905092915050565b60007f01ffc9a7000000000000000000000000000000000000000000000000000000007bffffffffffffffffffffffffffffffffffffffffffffffffffffffff1916827bffffffffffffffffffffffffffffffffffffffffffffffffffffffff1916149050919050565b6000806120ad83610bf0565b90508073ffffffffffffffffffffffffffffffffffffffff168473ffffffffffffffffffffffffffffffffffffffff1614806120ef57506120ee818561149b565b5b8061212d57508373ffffffffffffffffffffffffffffffffffffffff1661211584610865565b73ffffffffffffffffffffffffffffffffffffffff16145b91505092915050565b6121418383836126d4565b8173ffffffffffffffffffffffffffffffffffffffff168373ffffffffffffffffffffffffffffffffffffffff161461225a5760006007600083815260200190815260200160002060000160006101000a81548173ffffffffffffffffffffffffffffffffffffffff021916908373ffffffffffffffffffffffffffffffffffffffff16021790555060006007600083815260200190815260200160002060000160146101000a81548167ffffffffffffffff021916908367ffffffffffffffff160217905550600073ffffffffffffffffffffffffffffffffffffffff16817f4e06b4e7000e659094299b3533b47b6aa8ad048e95e872d23d1f4ee55af89cfe6000604051612251919061327f565b60405180910390a35b505050565b505050565b600061226f82610bf0565b905061227d81600084612136565b612288600083611720565b6001600360008373ffffffffffffffffffffffffffffffffffffffff1673ffffffffffffffffffffffffffffffffffffffff16815260200190815260200160002060008282546122d89190613626565b925050819055506002600083815260200190815260200160002060006101000a81549073ffffffffffffffffffffffffffffffffffffffff021916905581600073ffffffffffffffffffffffffffffffffffffffff168273ffffffffffffffffffffffffffffffffffffffff167fddf252ad1be2c89b69c2b068fc378daa952ba7f163c4a11628f55a4df523b3ef60405160405180910390a461237d8160008461225f565b5050565b60006123a28473ffffffffffffffffffffffffffffffffffffffff166126d9565b1561250b578373ffffffffffffffffffffffffffffffffffffffff1663150b7a026123cb611718565b8786866040518563ffffffff1660e01b81526004016123ed9493929190613218565b602060405180830381600087803b15801561240757600080fd5b505af192505050801561243857506040513d601f19601f820116820180604052508101906124359190612d8f565b60015b6124bb573d8060008114612468576040519150601f19603f3d011682016040523d82523d6000602084013e61246d565b606091505b506000815114156124b3576040517f08c379a00000000000000000000000000000000000000000000000000000000081526004016124aa906132bc565b60405180910390fd5b805181602001fd5b63150b7a0260e01b7bffffffffffffffffffffffffffffffffffffffffffffffffffffffff1916817bffffffffffffffffffffffffffffffffffffffffffffffffffffffff191614915050612510565b600190505b949350505050565b60606000821415612560576040518060400160405280600181526020017f30000000000000000000000000000000000000000000000000000000000000008152509050612674565b600082905060005b6000821461259257808061257b906137ab565b915050600a8261258b91906135f5565b9150612568565b60008167ffffffffffffffff8111156125ae576125ad6138e1565b5b6040519080825280601f01601f1916602001820160405280156125e05781602001600182028036833780820191505090505b5090505b6000851461266d576001826125f99190613626565b9150600a8561260891906137f4565b6030612614919061359f565b60f81b81838151811061262a576126296138b2565b5b60200101907effffffffffffffffffffffffffffffffffffffffffffffffffffffffffffff1916908160001a905350600a8561266691906135f5565b94506125e4565b8093505050505b919050565b61268383836126fc565b6126906000848484612381565b6126cf576040517f08c379a00000000000000000000000000000000000000000000000000000000081526004016126c6906132bc565b60405180910390fd5b505050565b505050565b6000808273ffffffffffffffffffffffffffffffffffffffff163b119050919050565b600073ffffffffffffffffffffffffffffffffffffffff168273ffffffffffffffffffffffffffffffffffffffff16141561276c576040517f08c379a0000000000000000000000000000000000000000000000000000000008152600401612763906133dc565b60405180910390fd5b61277581611c5d565b156127b5576040517f08c379a00000000000000000000000000000000000000000000000000000000081526004016127ac9061331c565b60405180910390fd5b6127c160008383612136565b6001600360008473ffffffffffffffffffffffffffffffffffffffff1673ffffffffffffffffffffffffffffffffffffffff1681526020019081526020016000206000828254612811919061359f565b92505081905550816002600083815260200190815260200160002060006101000a81548173ffffffffffffffffffffffffffffffffffffffff021916908373ffffffffffffffffffffffffffffffffffffffff160217905550808273ffffffffffffffffffffffffffffffffffffffff16600073ffffffffffffffffffffffffffffffffffffffff167fddf252ad1be2c89b69c2b068fc378daa952ba7f163c4a11628f55a4df523b3ef60405160405180910390a46128d26000838361225f565b5050565b5080546128e290613748565b6000825580601f106128f45750612913565b601f016020900490600052602060002090810190612912919061299c565b5b50565b82805461292290613748565b90600052602060002090601f016020900481019282612944576000855561298b565b82601f1061295d57805160ff191683800117855561298b565b8280016001018555821561298b579182015b8281111561298a57825182559160200191906001019061296f565b5b509050612998919061299c565b5090565b5b808211156129b557600081600090555060010161299d565b5090565b60006129cc6129c784613520565b6134fb565b9050828152602081018484840111156129e8576129e761391f565b5b6129f3848285613706565b509392505050565b600081359050612a0a81613d25565b92915050565b600081359050612a1f81613d3c565b92915050565b600081359050612a3481613d53565b92915050565b600081359050612a4981613d6a565b92915050565b600081519050612a5e81613d6a565b92915050565b600082601f830112612a7957612a78613915565b5b8135612a898482602086016129b9565b91505092915050565b60008083601f840112612aa857612aa7613915565b5b8235905067ffffffffffffffff811115612ac557612ac4613910565b5b602083019150836001820283011115612ae157612ae061391a565b5b9250929050565b600081359050612af781613d81565b92915050565b600081359050612b0c81613d98565b92915050565b600060208284031215612b2857612b27613929565b5b6000612b36848285016129fb565b91505092915050565b600060208284031215612b5557612b54613929565b5b6000612b6384828501612a10565b91505092915050565b60008060408385031215612b8357612b82613929565b5b6000612b91858286016129fb565b9250506020612ba2858286016129fb565b9150509250929050565b600080600060608486031215612bc557612bc4613929565b5b6000612bd3868287016129fb565b9350506020612be4868287016129fb565b9250506040612bf586828701612ae8565b9150509250925092565b60008060008060808587031215612c1957612c18613929565b5b6000612c27878288016129fb565b9450506020612c38878288016129fb565b9350506040612c4987828801612ae8565b925050606085013567ffffffffffffffff811115612c6a57612c69613924565b5b612c7687828801612a64565b91505092959194509250565b60008060408385031215612c9957612c98613929565b5b6000612ca7858286016129fb565b9250506020612cb885828601612a25565b9150509250929050565b600080600060408486031215612cdb57612cda613929565b5b6000612ce9868287016129fb565b935050602084013567ffffffffffffffff811115612d0a57612d09613924565b5b612d1686828701612a92565b92509250509250925092565b60008060408385031215612d3957612d38613929565b5b6000612d47858286016129fb565b9250506020612d5885828601612ae8565b9150509250929050565b600060208284031215612d7857612d77613929565b5b6000612d8684828501612a3a565b91505092915050565b600060208284031215612da557612da4613929565b5b6000612db384828501612a4f565b91505092915050565b600060208284031215612dd257612dd1613929565b5b6000612de084828501612ae8565b91505092915050565b60008060408385031215612e0057612dff613929565b5b6000612e0e85828601612ae8565b9250506020612e1f858286016129fb565b9150509250929050565b600080600060608486031215612e4257612e41613929565b5b6000612e5086828701612ae8565b9350506020612e61868287016129fb565b9250506040612e7286828701612afd565b9150509250925092565b612e858161366c565b82525050565b612e948161365a565b82525050565b612ea38161367e565b82525050565b6000612eb482613551565b612ebe8185613567565b9350612ece818560208601613715565b612ed78161392e565b840191505092915050565b612eeb816136f4565b82525050565b6000612efc8261355c565b612f068185613583565b9350612f16818560208601613715565b612f1f8161392e565b840191505092915050565b6000612f358261355c565b612f3f8185613594565b9350612f4f818560208601613715565b80840191505092915050565b6000612f68603283613583565b9150612f738261393f565b604082019050919050565b6000612f8b602683613583565b9150612f968261398e565b604082019050919050565b6000612fae602583613583565b9150612fb9826139dd565b604082019050919050565b6000612fd1601c83613583565b9150612fdc82613a2c565b602082019050919050565b6000612ff4602483613583565b9150612fff82613a55565b604082019050919050565b6000613017601983613583565b915061302282613aa4565b602082019050919050565b600061303a602983613583565b915061304582613acd565b604082019050919050565b600061305d602e83613583565b915061306882613b1c565b604082019050919050565b6000613080603e83613583565b915061308b82613b6b565b604082019050919050565b60006130a3602083613583565b91506130ae82613bba565b602082019050919050565b60006130c6602083613583565b91506130d182613be3565b602082019050919050565b60006130e9601883613583565b91506130f482613c0c565b602082019050919050565b600061310c602183613583565b915061311782613c35565b604082019050919050565b600061312f600083613578565b915061313a82613c84565b600082019050919050565b6000613152603183613583565b915061315d82613c87565b604082019050919050565b6000613175602e83613583565b915061318082613cd6565b604082019050919050565b613194816136d6565b82525050565b6131a3816136e0565b82525050565b60006131b58285612f2a565b91506131c18284612f2a565b91508190509392505050565b60006131d882613122565b9150819050919050565b60006020820190506131f76000830184612e8b565b92915050565b60006020820190506132126000830184612e7c565b92915050565b600060808201905061322d6000830187612e8b565b61323a6020830186612e8b565b613247604083018561318b565b81810360608301526132598184612ea9565b905095945050505050565b60006020820190506132796000830184612e9a565b92915050565b60006020820190506132946000830184612ee2565b92915050565b600060208201905081810360008301526132b48184612ef1565b905092915050565b600060208201905081810360008301526132d581612f5b565b9050919050565b600060208201905081810360008301526132f581612f7e565b9050919050565b6000602082019050818103600083015261331581612fa1565b9050919050565b6000602082019050818103600083015261333581612fc4565b9050919050565b6000602082019050818103600083015261335581612fe7565b9050919050565b600060208201905081810360008301526133758161300a565b9050919050565b600060208201905081810360008301526133958161302d565b9050919050565b600060208201905081810360008301526133b581613050565b9050919050565b600060208201905081810360008301526133d581613073565b9050919050565b600060208201905081810360008301526133f581613096565b9050919050565b60006020820190508181036000830152613415816130b9565b9050919050565b60006020820190508181036000830152613435816130dc565b9050919050565b60006020820190508181036000830152613455816130ff565b9050919050565b6000602082019050818103600083015261347581613145565b9050919050565b6000602082019050818103600083015261349581613168565b9050919050565b60006020820190506134b1600083018461318b565b92915050565b60006040820190506134cc600083018561318b565b6134d9602083018461318b565b9392505050565b60006020820190506134f5600083018461319a565b92915050565b6000613505613516565b9050613511828261377a565b919050565b6000604051905090565b600067ffffffffffffffff82111561353b5761353a6138e1565b5b6135448261392e565b9050602081019050919050565b600081519050919050565b600081519050919050565b600082825260208201905092915050565b600081905092915050565b600082825260208201905092915050565b600081905092915050565b60006135aa826136d6565b91506135b5836136d6565b9250827fffffffffffffffffffffffffffffffffffffffffffffffffffffffffffffffff038211156135ea576135e9613825565b5b828201905092915050565b6000613600826136d6565b915061360b836136d6565b92508261361b5761361a613854565b5b828204905092915050565b6000613631826136d6565b915061363c836136d6565b92508282101561364f5761364e613825565b5b828203905092915050565b6000613665826136b6565b9050919050565b6000613677826136b6565b9050919050565b60008115159050919050565b60007fffffffff0000000000000000000000000000000000000000000000000000000082169050919050565b600073ffffffffffffffffffffffffffffffffffffffff82169050919050565b6000819050919050565b600067ffffffffffffffff82169050919050565b60006136ff826136e0565b9050919050565b82818337600083830152505050565b60005b83811015613733578082015181840152602081019050613718565b83811115613742576000848401525b50505050565b6000600282049050600182168061376057607f821691505b6020821081141561377457613773613883565b5b50919050565b6137838261392e565b810181811067ffffffffffffffff821117156137a2576137a16138e1565b5b80604052505050565b60006137b6826136d6565b91507fffffffffffffffffffffffffffffffffffffffffffffffffffffffffffffffff8214156137e9576137e8613825565b5b600182019050919050565b60006137ff826136d6565b915061380a836136d6565b92508261381a57613819613854565b5b828206905092915050565b7f4e487b7100000000000000000000000000000000000000000000000000000000600052601160045260246000fd5b7f4e487b7100000000000000000000000000000000000000000000000000000000600052601260045260246000fd5b7f4e487b7100000000000000000000000000000000000000000000000000000000600052602260045260246000fd5b7f4e487b7100000000000000000000000000000000000000000000000000000000600052603260045260246000fd5b7f4e487b7100000000000000000000000000000000000000000000000000000000600052604160045260246000fd5b600080fd5b600080fd5b600080fd5b600080fd5b600080fd5b600080fd5b6000601f19601f8301169050919050565b7f4552433732313a207472616e7366657220746f206e6f6e20455243373231526560008201527f63656976657220696d706c656d656e7465720000000000000000000000000000602082015250565b7f4f776e61626c653a206e6577206f776e657220697320746865207a65726f206160008201527f6464726573730000000000000000000000000000000000000000000000000000602082015250565b7f4552433732313a207472616e736665722066726f6d20696e636f72726563742060008201527f6f776e6572000000000000000000000000000000000000000000000000000000602082015250565b7f4552433732313a20746f6b656e20616c7265616479206d696e74656400000000600082015250565b7f4552433732313a207472616e7366657220746f20746865207a65726f2061646460008201527f7265737300000000000000000000000000000000000000000000000000000000602082015250565b7f4552433732313a20617070726f766520746f2063616c6c657200000000000000600082015250565b7f4552433732313a2061646472657373207a65726f206973206e6f74206120766160008201527f6c6964206f776e65720000000000000000000000000000000000000000000000602082015250565b7f45524337323155524953746f726167653a2055524920736574206f66206e6f6e60008201527f6578697374656e7420746f6b656e000000000000000000000000000000000000602082015250565b7f4552433732313a20617070726f76652063616c6c6572206973206e6f7420746f60008201527f6b656e206f776e6572206e6f7220617070726f76656420666f7220616c6c0000602082015250565b7f4552433732313a206d696e7420746f20746865207a65726f2061646472657373600082015250565b7f4f776e61626c653a2063616c6c6572206973206e6f7420746865206f776e6572600082015250565b7f4552433732313a20696e76616c696420746f6b656e2049440000000000000000600082015250565b7f4552433732313a20617070726f76616c20746f2063757272656e74206f776e6560008201527f7200000000000000000000000000000000000000000000000000000000000000602082015250565b50565b7f4552433732313a207472616e736665722063616c6c6572206973206e6f74206f60008201527f776e6572206e6f7220617070726f766564000000000000000000000000000000602082015250565b7f4552433732313a2063616c6c6572206973206e6f7420746f6b656e206f776e6560008201527f72206e6f7220617070726f766564000000000000000000000000000000000000602082015250565b613d2e8161365a565b8114613d3957600080fd5b50565b613d458161366c565b8114613d5057600080fd5b50565b613d5c8161367e565b8114613d6757600080fd5b50565b613d738161368a565b8114613d7e57600080fd5b50565b613d8a816136d6565b8114613d9557600080fd5b50565b613da1816136e0565b8114613dac57600080fd5b5056fea2646970667358221220c53aa1de0ad4ce93260d3856ffad41a7f23475caac6a1866e3bca29c50ba0baf64736f6c63430008070033",
  "linkReferences": {},
  "deployedLinkReferences": {}
}