{
    "address": "0xEE16B713D034fB6574BBb69082A34cB9C1491efe",
    "abi": [
        {
            "inputs": [
                {
                    "internalType": "address payable",
                    "name": "feeRecipient",
                    "type": "address"
                },
                {
                    "internalType": "uint16",
                    "name": "platformFee",
                    "type": "uint16"
                }
            ],
            "stateMutability": "nonpayable",
            "type": "constructor"
        },
        {
            "inputs": [
                {
                    "internalType": "address",
                    "name": "nftAddress",
                    "type": "address"
                },
                {
                    "internalType": "uint256",
                    "name": "tokenId",
                    "type": "uint256"
                }
            ],
            "name": "AlreadyListed",
            "type": "error"
        },
        {
            "inputs": [
                {
                    "internalType": "address",
                    "name": "nftAddress",
                    "type": "address"
                },
                {
                    "internalType": "uint256",
                    "name": "tokenId",
                    "type": "uint256"
                }
            ],
            "name": "CurrentlyRented",
            "type": "error"
        },
        {
            "inputs": [
                {
                    "internalType": "bytes",
                    "name": "data",
                    "type": "bytes"
                }
            ],
            "name": "InvalidCall",
            "type": "error"
        },
        {
            "inputs": [
                {
                    "internalType": "uint64",
                    "name": "expires",
                    "type": "uint64"
                }
            ],
            "name": "InvalidExpires",
            "type": "error"
        },
        {
            "inputs": [
                {
                    "internalType": "address",
                    "name": "nftAddress",
                    "type": "address"
                }
            ],
            "name": "InvalidNftAddress",
            "type": "error"
        },
        {
            "inputs": [
                {
                    "internalType": "address",
                    "name": "payToken",
                    "type": "address"
                }
            ],
            "name": "InvalidPayToken",
            "type": "error"
        },
        {
            "inputs": [
                {
                    "internalType": "uint256",
                    "name": "price",
                    "type": "uint256"
                }
            ],
            "name": "InvalidPrice",
            "type": "error"
        },
        {
            "inputs": [
                {
                    "internalType": "address",
                    "name": "operator",
                    "type": "address"
                },
                {
                    "internalType": "address",
                    "name": "token",
                    "type": "address"
                }
            ],
            "name": "NoProceeds",
            "type": "error"
        },
        {
            "inputs": [
                {
                    "internalType": "address",
                    "name": "nftAddress",
                    "type": "address"
                },
                {
                    "internalType": "uint256",
                    "name": "tokenId",
                    "type": "uint256"
                }
            ],
            "name": "NotApproved",
            "type": "error"
        },
        {
            "inputs": [
                {
                    "internalType": "address",
                    "name": "nftAddress",
                    "type": "address"
                },
                {
                    "internalType": "uint256",
                    "name": "tokenId",
                    "type": "uint256"
                }
            ],
            "name": "NotListed",
            "type": "error"
        },
        {
            "inputs": [
                {
                    "internalType": "address",
                    "name": "operator",
                    "type": "address"
                }
            ],
            "name": "NotOwner",
            "type": "error"
        },
        {
            "inputs": [],
            "name": "TransferFailed",
            "type": "error"
        },
        {
            "anonymous": false,
            "inputs": [
                {
                    "indexed": true,
                    "internalType": "address",
                    "name": "owner",
                    "type": "address"
                },
                {
                    "indexed": true,
                    "internalType": "address",
                    "name": "nftAddress",
                    "type": "address"
                },
                {
                    "indexed": false,
                    "internalType": "uint256",
                    "name": "tokenId",
                    "type": "uint256"
                }
            ],
            "name": "ItemCanceled",
            "type": "event"
        },
        {
            "anonymous": false,
            "inputs": [
                {
                    "indexed": true,
                    "internalType": "address",
                    "name": "owner",
                    "type": "address"
                },
                {
                    "indexed": true,
                    "internalType": "address",
                    "name": "nftAddress",
                    "type": "address"
                },
                {
                    "indexed": false,
                    "internalType": "uint256",
                    "name": "tokenId",
                    "type": "uint256"
                },
                {
                    "indexed": false,
                    "internalType": "uint64",
                    "name": "expires",
                    "type": "uint64"
                },
                {
                    "indexed": false,
                    "internalType": "uint256",
                    "name": "pricePerSecond",
                    "type": "uint256"
                },
                {
                    "indexed": false,
                    "internalType": "address",
                    "name": "payToken",
                    "type": "address"
                }
            ],
            "name": "ItemListed",
            "type": "event"
        },
        {
            "anonymous": false,
            "inputs": [
                {
                    "indexed": true,
                    "internalType": "address",
                    "name": "owner",
                    "type": "address"
                },
                {
                    "indexed": true,
                    "internalType": "address",
                    "name": "nftAddress",
                    "type": "address"
                },
                {
                    "indexed": false,
                    "internalType": "uint256",
                    "name": "tokenId",
                    "type": "uint256"
                }
            ],
            "name": "ItemRedeemed",
            "type": "event"
        },
        {
            "anonymous": false,
            "inputs": [
                {
                    "indexed": true,
                    "internalType": "address",
                    "name": "lessor",
                    "type": "address"
                },
                {
                    "indexed": true,
                    "internalType": "address",
                    "name": "renter",
                    "type": "address"
                },
                {
                    "indexed": true,
                    "internalType": "address",
                    "name": "nftAddress",
                    "type": "address"
                },
                {
                    "indexed": false,
                    "internalType": "uint256",
                    "name": "tokenId",
                    "type": "uint256"
                },
                {
                    "indexed": false,
                    "internalType": "uint64",
                    "name": "expires",
                    "type": "uint64"
                },
                {
                    "indexed": false,
                    "internalType": "uint256",
                    "name": "pricePaid",
                    "type": "uint256"
                },
                {
                    "indexed": false,
                    "internalType": "address",
                    "name": "payToken",
                    "type": "address"
                }
            ],
            "name": "ItemRented",
            "type": "event"
        },
        {
            "anonymous": false,
            "inputs": [
                {
                    "indexed": true,
                    "internalType": "address",
                    "name": "owner",
                    "type": "address"
                },
                {
                    "indexed": true,
                    "internalType": "address",
                    "name": "nftAddress",
                    "type": "address"
                },
                {
                    "indexed": false,
                    "internalType": "uint256",
                    "name": "tokenId",
                    "type": "uint256"
                },
                {
                    "indexed": false,
                    "internalType": "uint64",
                    "name": "expires",
                    "type": "uint64"
                },
                {
                    "indexed": false,
                    "internalType": "uint256",
                    "name": "pricePerSecond",
                    "type": "uint256"
                },
                {
                    "indexed": false,
                    "internalType": "address",
                    "name": "payToken",
                    "type": "address"
                }
            ],
            "name": "ItemUpdated",
            "type": "event"
        },
        {
            "anonymous": false,
            "inputs": [
                {
                    "indexed": true,
                    "internalType": "address",
                    "name": "previousOwner",
                    "type": "address"
                },
                {
                    "indexed": true,
                    "internalType": "address",
                    "name": "newOwner",
                    "type": "address"
                }
            ],
            "name": "OwnershipTransferred",
            "type": "event"
        },
        {
            "anonymous": false,
            "inputs": [
                {
                    "indexed": true,
                    "internalType": "address",
                    "name": "operator",
                    "type": "address"
                },
                {
                    "indexed": true,
                    "internalType": "address",
                    "name": "token",
                    "type": "address"
                },
                {
                    "indexed": false,
                    "internalType": "uint256",
                    "name": "proceeds",
                    "type": "uint256"
                }
            ],
            "name": "ProceedsWithdrawn",
            "type": "event"
        },
        {
            "stateMutability": "payable",
            "type": "fallback"
        },
        {
            "inputs": [
                {
                    "internalType": "address",
                    "name": "nftAddress",
                    "type": "address"
                },
                {
                    "internalType": "uint256",
                    "name": "tokenId",
                    "type": "uint256"
                }
            ],
            "name": "cancelItem",
            "outputs": [],
            "stateMutability": "nonpayable",
            "type": "function"
        },
        {
            "inputs": [],
            "name": "getFeeRecipient",
            "outputs": [
                {
                    "internalType": "address",
                    "name": "",
                    "type": "address"
                }
            ],
            "stateMutability": "view",
            "type": "function"
        },
        {
            "inputs": [
                {
                    "internalType": "address",
                    "name": "nftAddress",
                    "type": "address"
                },
                {
                    "internalType": "uint256",
                    "name": "tokenId",
                    "type": "uint256"
                }
            ],
            "name": "getListing",
            "outputs": [
                {
                    "components": [
                        {
                            "internalType": "address",
                            "name": "owner",
                            "type": "address"
                        },
                        {
                            "internalType": "uint64",
                            "name": "expires",
                            "type": "uint64"
                        },
                        {
                            "internalType": "uint256",
                            "name": "pricePerSecond",
                            "type": "uint256"
                        },
                        {
                            "internalType": "address",
                            "name": "payToken",
                            "type": "address"
                        }
                    ],
                    "internalType": "struct IRentokenV1RentableNFTRentMarketplace.Listing",
                    "name": "",
                    "type": "tuple"
                }
            ],
            "stateMutability": "view",
            "type": "function"
        },
        {
            "inputs": [],
            "name": "getPlatformFee",
            "outputs": [
                {
                    "internalType": "uint16",
                    "name": "",
                    "type": "uint16"
                }
            ],
            "stateMutability": "view",
            "type": "function"
        },
        {
            "inputs": [
                {
                    "internalType": "address",
                    "name": "operator",
                    "type": "address"
                },
                {
                    "internalType": "address",
                    "name": "payToken",
                    "type": "address"
                }
            ],
            "name": "getProceeds",
            "outputs": [
                {
                    "internalType": "uint256",
                    "name": "",
                    "type": "uint256"
                }
            ],
            "stateMutability": "view",
            "type": "function"
        },
        {
            "inputs": [
                {
                    "internalType": "address",
                    "name": "nftAddress",
                    "type": "address"
                },
                {
                    "internalType": "uint256",
                    "name": "tokenId",
                    "type": "uint256"
                },
                {
                    "internalType": "uint64",
                    "name": "expires",
                    "type": "uint64"
                },
                {
                    "internalType": "uint256",
                    "name": "pricePerSecond",
                    "type": "uint256"
                },
                {
                    "internalType": "address",
                    "name": "payToken",
                    "type": "address"
                }
            ],
            "name": "listItem",
            "outputs": [],
            "stateMutability": "nonpayable",
            "type": "function"
        },
        {
            "inputs": [
                {
                    "internalType": "address",
                    "name": "_operator",
                    "type": "address"
                },
                {
                    "internalType": "address",
                    "name": "_from",
                    "type": "address"
                },
                {
                    "internalType": "uint256",
                    "name": "_tokenId",
                    "type": "uint256"
                },
                {
                    "internalType": "bytes",
                    "name": "_data",
                    "type": "bytes"
                }
            ],
            "name": "onERC721Received",
            "outputs": [
                {
                    "internalType": "bytes4",
                    "name": "",
                    "type": "bytes4"
                }
            ],
            "stateMutability": "pure",
            "type": "function"
        },
        {
            "inputs": [],
            "name": "owner",
            "outputs": [
                {
                    "internalType": "address",
                    "name": "",
                    "type": "address"
                }
            ],
            "stateMutability": "view",
            "type": "function"
        },
        {
            "inputs": [
                {
                    "internalType": "address",
                    "name": "nftAddress",
                    "type": "address"
                },
                {
                    "internalType": "uint256",
                    "name": "tokenId",
                    "type": "uint256"
                }
            ],
            "name": "redeemItem",
            "outputs": [],
            "stateMutability": "nonpayable",
            "type": "function"
        },
        {
            "inputs": [],
            "name": "renounceOwnership",
            "outputs": [],
            "stateMutability": "nonpayable",
            "type": "function"
        },
        {
            "inputs": [
                {
                    "internalType": "address",
                    "name": "nftAddress",
                    "type": "address"
                },
                {
                    "internalType": "uint256",
                    "name": "tokenId",
                    "type": "uint256"
                },
                {
                    "internalType": "uint64",
                    "name": "expires",
                    "type": "uint64"
                },
                {
                    "internalType": "address",
                    "name": "payToken",
                    "type": "address"
                }
            ],
            "name": "rentItem",
            "outputs": [],
            "stateMutability": "payable",
            "type": "function"
        },
        {
            "inputs": [
                {
                    "internalType": "address payable",
                    "name": "newFeeRecipient",
                    "type": "address"
                }
            ],
            "name": "setFeeRecipient",
            "outputs": [],
            "stateMutability": "nonpayable",
            "type": "function"
        },
        {
            "inputs": [
                {
                    "internalType": "uint16",
                    "name": "newPlatformFee",
                    "type": "uint16"
                }
            ],
            "name": "setPlatformFee",
            "outputs": [],
            "stateMutability": "nonpayable",
            "type": "function"
        },
        {
            "inputs": [
                {
                    "internalType": "address",
                    "name": "newOwner",
                    "type": "address"
                }
            ],
            "name": "transferOwnership",
            "outputs": [],
            "stateMutability": "nonpayable",
            "type": "function"
        },
        {
            "inputs": [
                {
                    "internalType": "address",
                    "name": "nftAddress",
                    "type": "address"
                },
                {
                    "internalType": "uint256",
                    "name": "tokenId",
                    "type": "uint256"
                },
                {
                    "internalType": "uint64",
                    "name": "expires",
                    "type": "uint64"
                },
                {
                    "internalType": "uint256",
                    "name": "pricePerSecond",
                    "type": "uint256"
                },
                {
                    "internalType": "address",
                    "name": "payToken",
                    "type": "address"
                }
            ],
            "name": "updateItem",
            "outputs": [],
            "stateMutability": "nonpayable",
            "type": "function"
        },
        {
            "inputs": [
                {
                    "internalType": "address",
                    "name": "token",
                    "type": "address"
                }
            ],
            "name": "withdrawProceeds",
            "outputs": [],
            "stateMutability": "nonpayable",
            "type": "function"
        },
        {
            "stateMutability": "payable",
            "type": "receive"
        }
    ],
    "transactionHash": "0x2e02b8e61574764e5c3cadf6f8f9e7e13b2e883718262ace054787663dee851d",
    "args": [
        "0x2d949C8bC0d866783C0a8629208cb9dd2a5d2302",
        "2500"
    ],
    "numDeployments": 1,
    "solcInputHash": "245c4820f6279bbd13355830e9994e3d",
    "bytecode": "0x60806040523480156200001157600080fd5b5060405162003aa838038062003aa88339818101604052810190620000379190620001b7565b620000576200004b620000bd60201b60201c565b620000c560201b60201c565b81600360026101000a81548173ffffffffffffffffffffffffffffffffffffffff021916908373ffffffffffffffffffffffffffffffffffffffff16021790555080600360006101000a81548161ffff021916908361ffff160217905550505062000279565b600033905090565b60008060009054906101000a900473ffffffffffffffffffffffffffffffffffffffff169050816000806101000a81548173ffffffffffffffffffffffffffffffffffffffff021916908373ffffffffffffffffffffffffffffffffffffffff1602179055508173ffffffffffffffffffffffffffffffffffffffff168173ffffffffffffffffffffffffffffffffffffffff167f8be0079c531659141344cd1fd0a4f28419497f9722a3daafe3b4186f6b6457e060405160405180910390a35050565b6000815190506200019a8162000245565b92915050565b600081519050620001b1816200025f565b92915050565b60008060408385031215620001d157620001d062000240565b5b6000620001e18582860162000189565b9250506020620001f485828601620001a0565b9150509250929050565b60006200020b8262000220565b9050919050565b600061ffff82169050919050565b600073ffffffffffffffffffffffffffffffffffffffff82169050919050565b600080fd5b6200025081620001fe565b81146200025c57600080fd5b50565b6200026a8162000212565b81146200027657600080fd5b50565b61381f80620002896000396000f3fe6080604052600436106100f75760003560e01c806380feeed51161008a578063bb306ed411610059578063bb306ed4146103e5578063e74b981b14610401578063f2fde38b1461042a578063fd782d081461045357610198565b806380feeed51461032b57806388700d1c146103545780638da5cb5b146103915780638f6d40d2146103bc57610198565b80636049fd46116100c65780636049fd461461029757806362810c81146102c05780636ea8bc10146102e9578063715018a61461031457610198565b8063071329a9146101dd578063150b7a02146102065780634ccb20c0146102435780635cbc742c1461026e57610198565b36610198573460026000610109610490565b73ffffffffffffffffffffffffffffffffffffffff1673ffffffffffffffffffffffffffffffffffffffff16815260200190815260200160002060008073ffffffffffffffffffffffffffffffffffffffff1673ffffffffffffffffffffffffffffffffffffffff168152602001908152602001600020600082825461018f9190613490565b92505081905550005b6101a0610498565b6040517fe23155b00000000000000000000000000000000000000000000000000000000081526004016101d4929190613317565b60405180910390fd5b3480156101e957600080fd5b5061020460048036038101906101ff9190612f64565b6104a5565b005b34801561021257600080fd5b5061022d60048036038101906102289190612edc565b610a1e565b60405161023a91906132fc565b60405180910390f35b34801561024f57600080fd5b50610258610a33565b6040516102659190613258565b60405180910390f35b34801561027a57600080fd5b50610295600480360381019061029091906130b3565b610a5d565b005b3480156102a357600080fd5b506102be60048036038101906102b9919061300b565b610a85565b005b3480156102cc57600080fd5b506102e760048036038101906102e29190612e15565b611077565b005b3480156102f557600080fd5b506102fe6113fc565b60405161030b9190613396565b60405180910390f35b34801561032057600080fd5b50610329611414565b005b34801561033757600080fd5b50610352600480360381019061034d919061300b565b611428565b005b34801561036057600080fd5b5061037b60048036038101906103769190612f64565b611a3c565b604051610388919061337b565b60405180910390f35b34801561039d57600080fd5b506103a6611b8f565b6040516103b39190613258565b60405180910390f35b3480156103c857600080fd5b506103e360048036038101906103de9190612f64565b611bb8565b005b6103ff60048036038101906103fa9190612fa4565b6120d7565b005b34801561040d57600080fd5b5061042860048036038101906104239190612e6f565b61290b565b005b34801561043657600080fd5b50610451600480360381019061044c9190612e15565b612957565b005b34801561045f57600080fd5b5061047a60048036038101906104759190612e9c565b6129db565b60405161048791906133b1565b60405180910390f35b600033905090565b3660008036915091509091565b81816000600160008473ffffffffffffffffffffffffffffffffffffffff1673ffffffffffffffffffffffffffffffffffffffff16815260200190815260200160002060008381526020019081526020016000206001015414156105425781816040517f6831488c0000000000000000000000000000000000000000000000000000000081526004016105399291906132d3565b60405180910390fd5b83836000600160008473ffffffffffffffffffffffffffffffffffffffff1673ffffffffffffffffffffffffffffffffffffffff16815260200190815260200160002060008381526020019081526020016000206040518060800160405290816000820160009054906101000a900473ffffffffffffffffffffffffffffffffffffffff1673ffffffffffffffffffffffffffffffffffffffff1673ffffffffffffffffffffffffffffffffffffffff1681526020016000820160149054906101000a900467ffffffffffffffff1667ffffffffffffffff1667ffffffffffffffff168152602001600182015481526020016002820160009054906101000a900473ffffffffffffffffffffffffffffffffffffffff1673ffffffffffffffffffffffffffffffffffffffff1673ffffffffffffffffffffffffffffffffffffffff16815250509050600073ffffffffffffffffffffffffffffffffffffffff168373ffffffffffffffffffffffffffffffffffffffff1663c2f1f14a846040518263ffffffff1660e01b81526004016106dc91906133b1565b60206040518083038186803b1580156106f457600080fd5b505afa158015610708573d6000803e3d6000fd5b505050506040513d601f19601f8201168201806040525081019061072c9190612e42565b73ffffffffffffffffffffffffffffffffffffffff16146107865782826040517f7778082100000000000000000000000000000000000000000000000000000000815260040161077d9291906132d3565b60405180910390fd5b6000600160008973ffffffffffffffffffffffffffffffffffffffff1673ffffffffffffffffffffffffffffffffffffffff168152602001908152602001600020600088815260200190815260200160002060000160009054906101000a900473ffffffffffffffffffffffffffffffffffffffff169050610806610490565b73ffffffffffffffffffffffffffffffffffffffff168173ffffffffffffffffffffffffffffffffffffffff161461087c57610840610490565b6040517f245aecd30000000000000000000000000000000000000000000000000000000081526004016108739190613258565b60405180910390fd5b8773ffffffffffffffffffffffffffffffffffffffff166323b872dd30838a6040518463ffffffff1660e01b81526004016108b99392919061329c565b600060405180830381600087803b1580156108d357600080fd5b505af11580156108e7573d6000803e3d6000fd5b50505050600160008973ffffffffffffffffffffffffffffffffffffffff1673ffffffffffffffffffffffffffffffffffffffff1681526020019081526020016000206000888152602001908152602001600020600080820160006101000a81549073ffffffffffffffffffffffffffffffffffffffff02191690556000820160146101000a81549067ffffffffffffffff021916905560018201600090556002820160006101000a81549073ffffffffffffffffffffffffffffffffffffffff021916905550508773ffffffffffffffffffffffffffffffffffffffff168173ffffffffffffffffffffffffffffffffffffffff167f88263c9cb5888120ba28a323e9b1bcd7155135bf7983bb03b9c0ffa77fb4e95c89604051610a0c91906133b1565b60405180910390a35050505050505050565b600063150b7a0260e01b905095945050505050565b6000600360029054906101000a900473ffffffffffffffffffffffffffffffffffffffff16905090565b610a65612a62565b80600360006101000a81548161ffff021916908361ffff16021790555050565b84846000600160008473ffffffffffffffffffffffffffffffffffffffff1673ffffffffffffffffffffffffffffffffffffffff1681526020019081526020016000206000838152602001908152602001600020600101541415610b225781816040517f6831488c000000000000000000000000000000000000000000000000000000008152600401610b199291906132d3565b60405180910390fd5b8686610b2c610490565b8073ffffffffffffffffffffffffffffffffffffffff168373ffffffffffffffffffffffffffffffffffffffff16636352211e846040518263ffffffff1660e01b8152600401610b7c91906133b1565b60206040518083038186803b158015610b9457600080fd5b505afa158015610ba8573d6000803e3d6000fd5b505050506040513d601f19601f82011682018060405250810190610bcc9190612e42565b73ffffffffffffffffffffffffffffffffffffffff1614610c2457806040517f245aecd3000000000000000000000000000000000000000000000000000000008152600401610c1b9190613258565b60405180910390fd5b89896000600160008473ffffffffffffffffffffffffffffffffffffffff1673ffffffffffffffffffffffffffffffffffffffff16815260200190815260200160002060008381526020019081526020016000206040518060800160405290816000820160009054906101000a900473ffffffffffffffffffffffffffffffffffffffff1673ffffffffffffffffffffffffffffffffffffffff1673ffffffffffffffffffffffffffffffffffffffff1681526020016000820160149054906101000a900467ffffffffffffffff1667ffffffffffffffff1667ffffffffffffffff168152602001600182015481526020016002820160009054906101000a900473ffffffffffffffffffffffffffffffffffffffff1673ffffffffffffffffffffffffffffffffffffffff1673ffffffffffffffffffffffffffffffffffffffff16815250509050600073ffffffffffffffffffffffffffffffffffffffff168373ffffffffffffffffffffffffffffffffffffffff1663c2f1f14a846040518263ffffffff1660e01b8152600401610dbe91906133b1565b60206040518083038186803b158015610dd657600080fd5b505afa158015610dea573d6000803e3d6000fd5b505050506040513d601f19601f82011682018060405250810190610e0e9190612e42565b73ffffffffffffffffffffffffffffffffffffffff1614610e685782826040517f77780821000000000000000000000000000000000000000000000000000000008152600401610e5f9291906132d3565b60405180910390fd5b610e7e8b67ffffffffffffffff8c60018d612ae0565b6040518060800160405280610e91610490565b73ffffffffffffffffffffffffffffffffffffffff1681526020018c67ffffffffffffffff1681526020018b81526020018a73ffffffffffffffffffffffffffffffffffffffff16815250600160008f73ffffffffffffffffffffffffffffffffffffffff1673ffffffffffffffffffffffffffffffffffffffff16815260200190815260200160002060008e815260200190815260200160002060008201518160000160006101000a81548173ffffffffffffffffffffffffffffffffffffffff021916908373ffffffffffffffffffffffffffffffffffffffff16021790555060208201518160000160146101000a81548167ffffffffffffffff021916908367ffffffffffffffff1602179055506040820151816001015560608201518160020160006101000a81548173ffffffffffffffffffffffffffffffffffffffff021916908373ffffffffffffffffffffffffffffffffffffffff1602179055509050508c73ffffffffffffffffffffffffffffffffffffffff16611015610490565b73ffffffffffffffffffffffffffffffffffffffff167f815feaa2f25163e84dcc51bd8f04902e54e95a5b7d777b4f0e29bd428908dd898e8e8e8e6040516110609493929190613403565b60405180910390a350505050505050505050505050565b600060026000611085610490565b73ffffffffffffffffffffffffffffffffffffffff1673ffffffffffffffffffffffffffffffffffffffff16815260200190815260200160002060008373ffffffffffffffffffffffffffffffffffffffff1673ffffffffffffffffffffffffffffffffffffffff1681526020019081526020016000205490506000811161114d5761110f610490565b826040517fc8a29dbd000000000000000000000000000000000000000000000000000000008152600401611144929190613273565b60405180910390fd5b60026000611159610490565b73ffffffffffffffffffffffffffffffffffffffff1673ffffffffffffffffffffffffffffffffffffffff16815260200190815260200160002060008373ffffffffffffffffffffffffffffffffffffffff1673ffffffffffffffffffffffffffffffffffffffff16815260200190815260200160002060009055600073ffffffffffffffffffffffffffffffffffffffff168273ffffffffffffffffffffffffffffffffffffffff1614156112b9576000611213610490565b73ffffffffffffffffffffffffffffffffffffffff168260405161123690613243565b60006040518083038185875af1925050503d8060008114611273576040519150601f19603f3d011682016040523d82523d6000602084013e611278565b606091505b50509050806112b3576040517f90b8ec1800000000000000000000000000000000000000000000000000000000815260040160405180910390fd5b5061138c565b60008273ffffffffffffffffffffffffffffffffffffffff166323b872dd306112e0610490565b856040518463ffffffff1660e01b81526004016112ff9392919061329c565b602060405180830381600087803b15801561131957600080fd5b505af115801561132d573d6000803e3d6000fd5b505050506040513d601f19601f820116820180604052508101906113519190613086565b90508061138a576040517f90b8ec1800000000000000000000000000000000000000000000000000000000815260040160405180910390fd5b505b8173ffffffffffffffffffffffffffffffffffffffff166113ab610490565b73ffffffffffffffffffffffffffffffffffffffff167f3eab9245288923bdc2f009594c02746febfdd320faf123e203eeb67223aa1222836040516113f091906133b1565b60405180910390a35050565b6000600360009054906101000a900461ffff16905090565b61141c612a62565b6114266000612c0a565b565b8484611432610490565b8073ffffffffffffffffffffffffffffffffffffffff168373ffffffffffffffffffffffffffffffffffffffff16636352211e846040518263ffffffff1660e01b815260040161148291906133b1565b60206040518083038186803b15801561149a57600080fd5b505afa1580156114ae573d6000803e3d6000fd5b505050506040513d601f19601f820116820180604052508101906114d29190612e42565b73ffffffffffffffffffffffffffffffffffffffff161461152a57806040517f245aecd30000000000000000000000000000000000000000000000000000000081526004016115219190613258565b60405180910390fd5b60018060008a73ffffffffffffffffffffffffffffffffffffffff1673ffffffffffffffffffffffffffffffffffffffff16815260200190815260200160002060008981526020019081526020016000206001015410156115c45787876040517f4a5568d50000000000000000000000000000000000000000000000000000000081526004016115bb9291906132d3565b60405180910390fd5b8773ffffffffffffffffffffffffffffffffffffffff166301ffc9a763ad092b5c60e01b6040518263ffffffff1660e01b815260040161160491906132fc565b60206040518083038186803b15801561161c57600080fd5b505afa158015611630573d6000803e3d6000fd5b505050506040513d601f19601f820116820180604052508101906116549190613086565b61169557876040517f48a4284200000000000000000000000000000000000000000000000000000000815260040161168c9190613258565b60405180910390fd5b60008890503073ffffffffffffffffffffffffffffffffffffffff168173ffffffffffffffffffffffffffffffffffffffff1663081812fc8a6040518263ffffffff1660e01b81526004016116ea91906133b1565b60206040518083038186803b15801561170257600080fd5b505afa158015611716573d6000803e3d6000fd5b505050506040513d601f19601f8201168201806040525081019061173a9190612e42565b73ffffffffffffffffffffffffffffffffffffffff16141580156117ed57508073ffffffffffffffffffffffffffffffffffffffff1663e985e9c561177d610490565b306040518363ffffffff1660e01b815260040161179b929190613273565b60206040518083038186803b1580156117b357600080fd5b505afa1580156117c7573d6000803e3d6000fd5b505050506040513d601f19601f820116820180604052508101906117eb9190613086565b155b156118315788886040517fce99e4c20000000000000000000000000000000000000000000000000000000081526004016118289291906132d3565b60405180910390fd5b6118478767ffffffffffffffff88600189612ae0565b604051806080016040528061185a610490565b73ffffffffffffffffffffffffffffffffffffffff1681526020018867ffffffffffffffff1681526020018781526020018673ffffffffffffffffffffffffffffffffffffffff16815250600160008b73ffffffffffffffffffffffffffffffffffffffff1673ffffffffffffffffffffffffffffffffffffffff16815260200190815260200160002060008a815260200190815260200160002060008201518160000160006101000a81548173ffffffffffffffffffffffffffffffffffffffff021916908373ffffffffffffffffffffffffffffffffffffffff16021790555060208201518160000160146101000a81548167ffffffffffffffff021916908367ffffffffffffffff1602179055506040820151816001015560608201518160020160006101000a81548173ffffffffffffffffffffffffffffffffffffffff021916908373ffffffffffffffffffffffffffffffffffffffff1602179055509050508873ffffffffffffffffffffffffffffffffffffffff166119de610490565b73ffffffffffffffffffffffffffffffffffffffff167f632dd1948038035c44ba51ab46f0fba152e59cc4cee3f5e65849f6f30a9bf0748a8a8a8a604051611a299493929190613403565b60405180910390a3505050505050505050565b611a44612cce565b600160008473ffffffffffffffffffffffffffffffffffffffff1673ffffffffffffffffffffffffffffffffffffffff16815260200190815260200160002060008381526020019081526020016000206040518060800160405290816000820160009054906101000a900473ffffffffffffffffffffffffffffffffffffffff1673ffffffffffffffffffffffffffffffffffffffff1673ffffffffffffffffffffffffffffffffffffffff1681526020016000820160149054906101000a900467ffffffffffffffff1667ffffffffffffffff1667ffffffffffffffff168152602001600182015481526020016002820160009054906101000a900473ffffffffffffffffffffffffffffffffffffffff1673ffffffffffffffffffffffffffffffffffffffff1673ffffffffffffffffffffffffffffffffffffffff1681525050905092915050565b60008060009054906101000a900473ffffffffffffffffffffffffffffffffffffffff16905090565b81816000600160008473ffffffffffffffffffffffffffffffffffffffff1673ffffffffffffffffffffffffffffffffffffffff1681526020019081526020016000206000838152602001908152602001600020600101541415611c555781816040517f6831488c000000000000000000000000000000000000000000000000000000008152600401611c4c9291906132d3565b60405180910390fd5b8383611c5f610490565b8073ffffffffffffffffffffffffffffffffffffffff168373ffffffffffffffffffffffffffffffffffffffff16636352211e846040518263ffffffff1660e01b8152600401611caf91906133b1565b60206040518083038186803b158015611cc757600080fd5b505afa158015611cdb573d6000803e3d6000fd5b505050506040513d601f19601f82011682018060405250810190611cff9190612e42565b73ffffffffffffffffffffffffffffffffffffffff1614611d5757806040517f245aecd3000000000000000000000000000000000000000000000000000000008152600401611d4e9190613258565b60405180910390fd5b86866000600160008473ffffffffffffffffffffffffffffffffffffffff1673ffffffffffffffffffffffffffffffffffffffff16815260200190815260200160002060008381526020019081526020016000206040518060800160405290816000820160009054906101000a900473ffffffffffffffffffffffffffffffffffffffff1673ffffffffffffffffffffffffffffffffffffffff1673ffffffffffffffffffffffffffffffffffffffff1681526020016000820160149054906101000a900467ffffffffffffffff1667ffffffffffffffff1667ffffffffffffffff168152602001600182015481526020016002820160009054906101000a900473ffffffffffffffffffffffffffffffffffffffff1673ffffffffffffffffffffffffffffffffffffffff1673ffffffffffffffffffffffffffffffffffffffff16815250509050600073ffffffffffffffffffffffffffffffffffffffff168373ffffffffffffffffffffffffffffffffffffffff1663c2f1f14a846040518263ffffffff1660e01b8152600401611ef191906133b1565b60206040518083038186803b158015611f0957600080fd5b505afa158015611f1d573d6000803e3d6000fd5b505050506040513d601f19601f82011682018060405250810190611f419190612e42565b73ffffffffffffffffffffffffffffffffffffffff1614611f9b5782826040517f77780821000000000000000000000000000000000000000000000000000000008152600401611f929291906132d3565b60405180910390fd5b600160008b73ffffffffffffffffffffffffffffffffffffffff1673ffffffffffffffffffffffffffffffffffffffff16815260200190815260200160002060008a8152602001908152602001600020600080820160006101000a81549073ffffffffffffffffffffffffffffffffffffffff02191690556000820160146101000a81549067ffffffffffffffff021916905560018201600090556002820160006101000a81549073ffffffffffffffffffffffffffffffffffffffff021916905550508973ffffffffffffffffffffffffffffffffffffffff1661207e610490565b73ffffffffffffffffffffffffffffffffffffffff167f9ba1a3cb55ce8d63d072a886f94d2a744f50cddf82128e897d0661f5ec6231588b6040516120c391906133b1565b60405180910390a350505050505050505050565b83836000600160008473ffffffffffffffffffffffffffffffffffffffff1673ffffffffffffffffffffffffffffffffffffffff16815260200190815260200160002060008381526020019081526020016000206001015414156121745781816040517f6831488c00000000000000000000000000000000000000000000000000000000815260040161216b9291906132d3565b60405180910390fd5b85856000600160008473ffffffffffffffffffffffffffffffffffffffff1673ffffffffffffffffffffffffffffffffffffffff16815260200190815260200160002060008381526020019081526020016000206040518060800160405290816000820160009054906101000a900473ffffffffffffffffffffffffffffffffffffffff1673ffffffffffffffffffffffffffffffffffffffff1673ffffffffffffffffffffffffffffffffffffffff1681526020016000820160149054906101000a900467ffffffffffffffff1667ffffffffffffffff1667ffffffffffffffff168152602001600182015481526020016002820160009054906101000a900473ffffffffffffffffffffffffffffffffffffffff1673ffffffffffffffffffffffffffffffffffffffff1673ffffffffffffffffffffffffffffffffffffffff16815250509050600073ffffffffffffffffffffffffffffffffffffffff168373ffffffffffffffffffffffffffffffffffffffff1663c2f1f14a846040518263ffffffff1660e01b815260040161230e91906133b1565b60206040518083038186803b15801561232657600080fd5b505afa15801561233a573d6000803e3d6000fd5b505050506040513d601f19601f8201168201806040525081019061235e9190612e42565b73ffffffffffffffffffffffffffffffffffffffff16146123b85782826040517f777808210000000000000000000000000000000000000000000000000000000081526004016123af9291906132d3565b60405180910390fd5b6000600160008b73ffffffffffffffffffffffffffffffffffffffff1673ffffffffffffffffffffffffffffffffffffffff16815260200190815260200160002060008a81526020019081526020016000206040518060800160405290816000820160009054906101000a900473ffffffffffffffffffffffffffffffffffffffff1673ffffffffffffffffffffffffffffffffffffffff1673ffffffffffffffffffffffffffffffffffffffff1681526020016000820160149054906101000a900467ffffffffffffffff1667ffffffffffffffff1667ffffffffffffffff168152602001600182015481526020016002820160009054906101000a900473ffffffffffffffffffffffffffffffffffffffff1673ffffffffffffffffffffffffffffffffffffffff1673ffffffffffffffffffffffffffffffffffffffff1681525050905060008160400151428a67ffffffffffffffff1661251c9190613571565b6125269190613517565b90506000612710600360009054906101000a900461ffff1661ffff168361254d9190613517565b61255791906134e6565b905061256a8a846020015134858d612ae0565b60008c90503073ffffffffffffffffffffffffffffffffffffffff168173ffffffffffffffffffffffffffffffffffffffff16636352211e8e6040518263ffffffff1660e01b81526004016125bf91906133b1565b60206040518083038186803b1580156125d757600080fd5b505afa1580156125eb573d6000803e3d6000fd5b505050506040513d601f19601f8201168201806040525081019061260f9190612e42565b73ffffffffffffffffffffffffffffffffffffffff161461269e578c73ffffffffffffffffffffffffffffffffffffffff166342842e0e8560000151308f6040518463ffffffff1660e01b815260040161266b9392919061329c565b600060405180830381600087803b15801561268557600080fd5b505af1158015612699573d6000803e3d6000fd5b505050505b8160026000600360029054906101000a900473ffffffffffffffffffffffffffffffffffffffff1673ffffffffffffffffffffffffffffffffffffffff1673ffffffffffffffffffffffffffffffffffffffff16815260200190815260200160002060008c73ffffffffffffffffffffffffffffffffffffffff1673ffffffffffffffffffffffffffffffffffffffff168152602001908152602001600020600082825461274c9190613490565b92505081905550813461275f9190613571565b60026000866000015173ffffffffffffffffffffffffffffffffffffffff1673ffffffffffffffffffffffffffffffffffffffff16815260200190815260200160002060008c73ffffffffffffffffffffffffffffffffffffffff1673ffffffffffffffffffffffffffffffffffffffff16815260200190815260200160002060008282546127ee9190613490565b925050819055508c73ffffffffffffffffffffffffffffffffffffffff1663e030565e8d61281a610490565b8e6040518463ffffffff1660e01b8152600401612839939291906133cc565b600060405180830381600087803b15801561285357600080fd5b505af1158015612867573d6000803e3d6000fd5b505050508c73ffffffffffffffffffffffffffffffffffffffff1661288a610490565b73ffffffffffffffffffffffffffffffffffffffff16856000015173ffffffffffffffffffffffffffffffffffffffff167f61ad447ff38c74fae2e071ae6c186a404a321b928a0b2c9ef1a9d25adb022ac48f8f348a606001516040516128f49493929190613403565b60405180910390a450505050505050505050505050565b612913612a62565b80600360026101000a81548173ffffffffffffffffffffffffffffffffffffffff021916908373ffffffffffffffffffffffffffffffffffffffff16021790555050565b61295f612a62565b600073ffffffffffffffffffffffffffffffffffffffff168173ffffffffffffffffffffffffffffffffffffffff1614156129cf576040517f08c379a00000000000000000000000000000000000000000000000000000000081526004016129c69061333b565b60405180910390fd5b6129d881612c0a565b50565b6000600260008473ffffffffffffffffffffffffffffffffffffffff1673ffffffffffffffffffffffffffffffffffffffff16815260200190815260200160002060008373ffffffffffffffffffffffffffffffffffffffff1673ffffffffffffffffffffffffffffffffffffffff16815260200190815260200160002054905092915050565b612a6a610490565b73ffffffffffffffffffffffffffffffffffffffff16612a88611b8f565b73ffffffffffffffffffffffffffffffffffffffff1614612ade576040517f08c379a0000000000000000000000000000000000000000000000000000000008152600401612ad59061335b565b60405180910390fd5b565b428567ffffffffffffffff161080612b0b57508367ffffffffffffffff168567ffffffffffffffff16115b15612b4d57846040517fa7c95556000000000000000000000000000000000000000000000000000000008152600401612b449190613448565b60405180910390fd5b81831015612b9257826040517ff9632e86000000000000000000000000000000000000000000000000000000008152600401612b8991906133b1565b60405180910390fd5b600073ffffffffffffffffffffffffffffffffffffffff168173ffffffffffffffffffffffffffffffffffffffff1614612c0357806040517f97fb0b03000000000000000000000000000000000000000000000000000000008152600401612bfa9190613258565b60405180910390fd5b5050505050565b60008060009054906101000a900473ffffffffffffffffffffffffffffffffffffffff169050816000806101000a81548173ffffffffffffffffffffffffffffffffffffffff021916908373ffffffffffffffffffffffffffffffffffffffff1602179055508173ffffffffffffffffffffffffffffffffffffffff168173ffffffffffffffffffffffffffffffffffffffff167f8be0079c531659141344cd1fd0a4f28419497f9722a3daafe3b4186f6b6457e060405160405180910390a35050565b6040518060800160405280600073ffffffffffffffffffffffffffffffffffffffff168152602001600067ffffffffffffffff16815260200160008152602001600073ffffffffffffffffffffffffffffffffffffffff1681525090565b600081359050612d3b8161375f565b92915050565b600081519050612d508161375f565b92915050565b600081359050612d6581613776565b92915050565b600081519050612d7a8161378d565b92915050565b60008083601f840112612d9657612d956136bf565b5b8235905067ffffffffffffffff811115612db357612db26136ba565b5b602083019150836001820283011115612dcf57612dce6136c4565b5b9250929050565b600081359050612de5816137a4565b92915050565b600081359050612dfa816137bb565b92915050565b600081359050612e0f816137d2565b92915050565b600060208284031215612e2b57612e2a6136ce565b5b6000612e3984828501612d2c565b91505092915050565b600060208284031215612e5857612e576136ce565b5b6000612e6684828501612d41565b91505092915050565b600060208284031215612e8557612e846136ce565b5b6000612e9384828501612d56565b91505092915050565b60008060408385031215612eb357612eb26136ce565b5b6000612ec185828601612d2c565b9250506020612ed285828601612d2c565b9150509250929050565b600080600080600060808688031215612ef857612ef76136ce565b5b6000612f0688828901612d2c565b9550506020612f1788828901612d2c565b9450506040612f2888828901612deb565b935050606086013567ffffffffffffffff811115612f4957612f486136c9565b5b612f5588828901612d80565b92509250509295509295909350565b60008060408385031215612f7b57612f7a6136ce565b5b6000612f8985828601612d2c565b9250506020612f9a85828601612deb565b9150509250929050565b60008060008060808587031215612fbe57612fbd6136ce565b5b6000612fcc87828801612d2c565b9450506020612fdd87828801612deb565b9350506040612fee87828801612e00565b9250506060612fff87828801612d2c565b91505092959194509250565b600080600080600060a08688031215613027576130266136ce565b5b600061303588828901612d2c565b955050602061304688828901612deb565b945050604061305788828901612e00565b935050606061306888828901612deb565b925050608061307988828901612d2c565b9150509295509295909350565b60006020828403121561309c5761309b6136ce565b5b60006130aa84828501612d6b565b91505092915050565b6000602082840312156130c9576130c86136ce565b5b60006130d784828501612dd6565b91505092915050565b6130e9816135a5565b82525050565b6130f8816135a5565b82525050565b613107816135d5565b82525050565b60006131198385613463565b935061312683858461364d565b61312f836136d3565b840190509392505050565b600061314760268361347f565b9150613152826136e4565b604082019050919050565b600061316a60208361347f565b915061317582613733565b602082019050919050565b600061318d600083613474565b91506131988261375c565b600082019050919050565b6080820160008201516131b960008501826130e0565b5060208201516131cc6020850182613225565b5060408201516131df6040850182613207565b5060608201516131f260608501826130e0565b50505050565b61320181613601565b82525050565b6132108161362f565b82525050565b61321f8161362f565b82525050565b61322e81613639565b82525050565b61323d81613639565b82525050565b600061324e82613180565b9150819050919050565b600060208201905061326d60008301846130ef565b92915050565b600060408201905061328860008301856130ef565b61329560208301846130ef565b9392505050565b60006060820190506132b160008301866130ef565b6132be60208301856130ef565b6132cb6040830184613216565b949350505050565b60006040820190506132e860008301856130ef565b6132f56020830184613216565b9392505050565b600060208201905061331160008301846130fe565b92915050565b6000602082019050818103600083015261333281848661310d565b90509392505050565b600060208201905081810360008301526133548161313a565b9050919050565b600060208201905081810360008301526133748161315d565b9050919050565b600060808201905061339060008301846131a3565b92915050565b60006020820190506133ab60008301846131f8565b92915050565b60006020820190506133c66000830184613216565b92915050565b60006060820190506133e16000830186613216565b6133ee60208301856130ef565b6133fb6040830184613234565b949350505050565b60006080820190506134186000830187613216565b6134256020830186613234565b6134326040830185613216565b61343f60608301846130ef565b95945050505050565b600060208201905061345d6000830184613234565b92915050565b600082825260208201905092915050565b600081905092915050565b600082825260208201905092915050565b600061349b8261362f565b91506134a68361362f565b9250827fffffffffffffffffffffffffffffffffffffffffffffffffffffffffffffffff038211156134db576134da61365c565b5b828201905092915050565b60006134f18261362f565b91506134fc8361362f565b92508261350c5761350b61368b565b5b828204905092915050565b60006135228261362f565b915061352d8361362f565b9250817fffffffffffffffffffffffffffffffffffffffffffffffffffffffffffffffff04831182151516156135665761356561365c565b5b828202905092915050565b600061357c8261362f565b91506135878361362f565b92508282101561359a5761359961365c565b5b828203905092915050565b60006135b08261360f565b9050919050565b60006135c28261360f565b9050919050565b60008115159050919050565b60007fffffffff0000000000000000000000000000000000000000000000000000000082169050919050565b600061ffff82169050919050565b600073ffffffffffffffffffffffffffffffffffffffff82169050919050565b6000819050919050565b600067ffffffffffffffff82169050919050565b82818337600083830152505050565b7f4e487b7100000000000000000000000000000000000000000000000000000000600052601160045260246000fd5b7f4e487b7100000000000000000000000000000000000000000000000000000000600052601260045260246000fd5b600080fd5b600080fd5b600080fd5b600080fd5b600080fd5b6000601f19601f8301169050919050565b7f4f776e61626c653a206e6577206f776e657220697320746865207a65726f206160008201527f6464726573730000000000000000000000000000000000000000000000000000602082015250565b7f4f776e61626c653a2063616c6c6572206973206e6f7420746865206f776e6572600082015250565b50565b613768816135a5565b811461377357600080fd5b50565b61377f816135b7565b811461378a57600080fd5b50565b613796816135c9565b81146137a157600080fd5b50565b6137ad81613601565b81146137b857600080fd5b50565b6137c48161362f565b81146137cf57600080fd5b50565b6137db81613639565b81146137e657600080fd5b5056fea2646970667358221220b69c8935b1f894a884c996f610fd18cfd00f96cb3f63f4b32faca355c3cbc67964736f6c63430008070033",
    "devdoc": {
        "errors": {
            "TransferFailed()": [
                {
                    "details": "Thrown if `address.call{value: value}(\"\")` returns false"
                }
            ]
        },
        "kind": "dev",
        "methods": {
            "getListing(address,uint256)": {
                "returns": {
                    "_0": "Item listing"
                }
            },
            "onERC721Received(address,address,uint256,bytes)": {
                "details": "The ERC721 smart contract calls this function on the recipient  after a `transfer`. This function MAY throw to revert and reject the  transfer. Return of other than the magic value MUST result in the  transaction being reverted.  Note: the contract address is always the message sender.",
                "params": {
                    "_data": "Additional data with no specified format",
                    "_from": "The address which previously owned the token",
                    "_operator": "The address which called `safeTransferFrom` function",
                    "_tokenId": "The NFT identifier which is being transferred"
                },
                "returns": {
                    "_0": "`bytes4(keccak256(\"onERC721Received(address,address,uint256,bytes)\"))`  unless throwing"
                }
            },
            "owner()": {
                "details": "Returns the address of the current owner."
            },
            "renounceOwnership()": {
                "details": "Leaves the contract without owner. It will not be possible to call `onlyOwner` functions anymore. Can only be called by the current owner. NOTE: Renouncing ownership will leave the contract without an owner, thereby removing any functionality that is only available to the owner."
            },
            "transferOwnership(address)": {
                "details": "Transfers ownership of the contract to a new account (`newOwner`). Can only be called by the current owner."
            }
        },
        "version": 1
    },
    "userdoc": {
        "events": {
            "ItemCanceled(address,address,uint256)": {
                "notice": "Event emitted when an item listing is canceled"
            },
            "ItemListed(address,address,uint256,uint64,uint256,address)": {
                "notice": "Event emitted when a new item is listed"
            },
            "ItemRented(address,address,address,uint256,uint64,uint256,address)": {
                "notice": "Event emitted when an item is rented"
            },
            "ItemUpdated(address,address,uint256,uint64,uint256,address)": {
                "notice": "Event emitted when an item listing is updated"
            },
            "ProceedsWithdrawn(address,address,uint256)": {
                "notice": "Event emitted when proceeds are withdrawn"
            }
        },
        "kind": "user",
        "methods": {
            "onERC721Received(address,address,uint256,bytes)": {
                "notice": "Handle the receipt of an NFT"
            }
        },
        "version": 1
    },
    "storageLayout": {
        "storage": [
            {
                "astId": 7,
                "contract": "contracts/marketplace/RentokenV1RentableNFTRentMarketplace.sol:RentokenV1RentableNFTRentMarketplace",
                "label": "_owner",
                "offset": 0,
                "slot": "0",
                "type": "t_address"
            },
            {
                "astId": 2755,
                "contract": "contracts/marketplace/RentokenV1RentableNFTRentMarketplace.sol:RentokenV1RentableNFTRentMarketplace",
                "label": "_listings",
                "offset": 0,
                "slot": "1",
                "type": "t_mapping(t_address,t_mapping(t_uint256,t_struct(Listing)3568_storage))"
            },
            {
                "astId": 2761,
                "contract": "contracts/marketplace/RentokenV1RentableNFTRentMarketplace.sol:RentokenV1RentableNFTRentMarketplace",
                "label": "_proceeds",
                "offset": 0,
                "slot": "2",
                "type": "t_mapping(t_address,t_mapping(t_address,t_uint256))"
            },
            {
                "astId": 2763,
                "contract": "contracts/marketplace/RentokenV1RentableNFTRentMarketplace.sol:RentokenV1RentableNFTRentMarketplace",
                "label": "_platformFee",
                "offset": 0,
                "slot": "3",
                "type": "t_uint16"
            },
            {
                "astId": 2765,
                "contract": "contracts/marketplace/RentokenV1RentableNFTRentMarketplace.sol:RentokenV1RentableNFTRentMarketplace",
                "label": "_feeRecipient",
                "offset": 2,
                "slot": "3",
                "type": "t_address_payable"
            }
        ],
        "types": {
            "t_address": {
                "encoding": "inplace",
                "label": "address",
                "numberOfBytes": "20"
            },
            "t_address_payable": {
                "encoding": "inplace",
                "label": "address payable",
                "numberOfBytes": "20"
            },
            "t_mapping(t_address,t_mapping(t_address,t_uint256))": {
                "encoding": "mapping",
                "key": "t_address",
                "label": "mapping(address => mapping(address => uint256))",
                "numberOfBytes": "32",
                "value": "t_mapping(t_address,t_uint256)"
            },
            "t_mapping(t_address,t_mapping(t_uint256,t_struct(Listing)3568_storage))": {
                "encoding": "mapping",
                "key": "t_address",
                "label": "mapping(address => mapping(uint256 => struct IRentokenV1RentableNFTRentMarketplace.Listing))",
                "numberOfBytes": "32",
                "value": "t_mapping(t_uint256,t_struct(Listing)3568_storage)"
            },
            "t_mapping(t_address,t_uint256)": {
                "encoding": "mapping",
                "key": "t_address",
                "label": "mapping(address => uint256)",
                "numberOfBytes": "32",
                "value": "t_uint256"
            },
            "t_mapping(t_uint256,t_struct(Listing)3568_storage)": {
                "encoding": "mapping",
                "key": "t_uint256",
                "label": "mapping(uint256 => struct IRentokenV1RentableNFTRentMarketplace.Listing)",
                "numberOfBytes": "32",
                "value": "t_struct(Listing)3568_storage"
            },
            "t_struct(Listing)3568_storage": {
                "encoding": "inplace",
                "label": "struct IRentokenV1RentableNFTRentMarketplace.Listing",
                "members": [
                    {
                        "astId": 3561,
                        "contract": "contracts/marketplace/RentokenV1RentableNFTRentMarketplace.sol:RentokenV1RentableNFTRentMarketplace",
                        "label": "owner",
                        "offset": 0,
                        "slot": "0",
                        "type": "t_address"
                    },
                    {
                        "astId": 3563,
                        "contract": "contracts/marketplace/RentokenV1RentableNFTRentMarketplace.sol:RentokenV1RentableNFTRentMarketplace",
                        "label": "expires",
                        "offset": 20,
                        "slot": "0",
                        "type": "t_uint64"
                    },
                    {
                        "astId": 3565,
                        "contract": "contracts/marketplace/RentokenV1RentableNFTRentMarketplace.sol:RentokenV1RentableNFTRentMarketplace",
                        "label": "pricePerSecond",
                        "offset": 0,
                        "slot": "1",
                        "type": "t_uint256"
                    },
                    {
                        "astId": 3567,
                        "contract": "contracts/marketplace/RentokenV1RentableNFTRentMarketplace.sol:RentokenV1RentableNFTRentMarketplace",
                        "label": "payToken",
                        "offset": 0,
                        "slot": "2",
                        "type": "t_address"
                    }
                ],
                "numberOfBytes": "96"
            },
            "t_uint16": {
                "encoding": "inplace",
                "label": "uint16",
                "numberOfBytes": "2"
            },
            "t_uint256": {
                "encoding": "inplace",
                "label": "uint256",
                "numberOfBytes": "32"
            },
            "t_uint64": {
                "encoding": "inplace",
                "label": "uint64",
                "numberOfBytes": "8"
            }
        }
    }
}