{
    "address": "0x7Dc1994C199A93fC8A05570503E371e2ef6BE1a9",
    "abi": [
        {
            "inputs": [
                {
                    "internalType": "address",
                    "name": "rentMarketplace",
                    "type": "address"
                },
                {
                    "internalType": "address",
                    "name": "sellMarketplace",
                    "type": "address"
                },
                {
                    "internalType": "uint256",
                    "name": "mintFee",
                    "type": "uint256"
                },
                {
                    "internalType": "address payable",
                    "name": "feeRecipient",
                    "type": "address"
                },
                {
                    "internalType": "uint256",
                    "name": "platformFee",
                    "type": "uint256"
                }
            ],
            "stateMutability": "nonpayable",
            "type": "constructor"
        },
        {
            "inputs": [
                {
                    "internalType": "uint256",
                    "name": "expected",
                    "type": "uint256"
                },
                {
                    "internalType": "uint256",
                    "name": "actual",
                    "type": "uint256"
                }
            ],
            "name": "InsufficientFunds",
            "type": "error"
        },
        {
            "inputs": [],
            "name": "TransferFailed",
            "type": "error"
        },
        {
            "anonymous": false,
            "inputs": [
                {
                    "indexed": true,
                    "internalType": "address",
                    "name": "creator",
                    "type": "address"
                },
                {
                    "indexed": true,
                    "internalType": "address",
                    "name": "nft",
                    "type": "address"
                }
            ],
            "name": "ContractCreated",
            "type": "event"
        },
        {
            "anonymous": false,
            "inputs": [
                {
                    "indexed": true,
                    "internalType": "address",
                    "name": "previousOwner",
                    "type": "address"
                },
                {
                    "indexed": true,
                    "internalType": "address",
                    "name": "newOwner",
                    "type": "address"
                }
            ],
            "name": "OwnershipTransferred",
            "type": "event"
        },
        {
            "inputs": [
                {
                    "internalType": "string",
                    "name": "name_",
                    "type": "string"
                },
                {
                    "internalType": "string",
                    "name": "symbol_",
                    "type": "string"
                }
            ],
            "name": "createNFTContract",
            "outputs": [
                {
                    "internalType": "address",
                    "name": "",
                    "type": "address"
                }
            ],
            "stateMutability": "payable",
            "type": "function"
        },
        {
            "inputs": [
                {
                    "internalType": "address",
                    "name": "nftAddress",
                    "type": "address"
                }
            ],
            "name": "getExists",
            "outputs": [
                {
                    "internalType": "bool",
                    "name": "",
                    "type": "bool"
                }
            ],
            "stateMutability": "view",
            "type": "function"
        },
        {
            "inputs": [],
            "name": "getFeeRecipient",
            "outputs": [
                {
                    "internalType": "address payable",
                    "name": "",
                    "type": "address"
                }
            ],
            "stateMutability": "view",
            "type": "function"
        },
        {
            "inputs": [],
            "name": "getMintFee",
            "outputs": [
                {
                    "internalType": "uint256",
                    "name": "",
                    "type": "uint256"
                }
            ],
            "stateMutability": "view",
            "type": "function"
        },
        {
            "inputs": [],
            "name": "getPlatformFee",
            "outputs": [
                {
                    "internalType": "uint256",
                    "name": "",
                    "type": "uint256"
                }
            ],
            "stateMutability": "view",
            "type": "function"
        },
        {
            "inputs": [],
            "name": "getRentMarketplace",
            "outputs": [
                {
                    "internalType": "address",
                    "name": "",
                    "type": "address"
                }
            ],
            "stateMutability": "view",
            "type": "function"
        },
        {
            "inputs": [],
            "name": "getSellMarketplace",
            "outputs": [
                {
                    "internalType": "address",
                    "name": "",
                    "type": "address"
                }
            ],
            "stateMutability": "view",
            "type": "function"
        },
        {
            "inputs": [],
            "name": "owner",
            "outputs": [
                {
                    "internalType": "address",
                    "name": "",
                    "type": "address"
                }
            ],
            "stateMutability": "view",
            "type": "function"
        },
        {
            "inputs": [],
            "name": "renounceOwnership",
            "outputs": [],
            "stateMutability": "nonpayable",
            "type": "function"
        },
        {
            "inputs": [
                {
                    "internalType": "address payable",
                    "name": "recipient",
                    "type": "address"
                }
            ],
            "name": "setFeeRecipient",
            "outputs": [],
            "stateMutability": "nonpayable",
            "type": "function"
        },
        {
            "inputs": [
                {
                    "internalType": "uint256",
                    "name": "fee",
                    "type": "uint256"
                }
            ],
            "name": "setMintFee",
            "outputs": [],
            "stateMutability": "nonpayable",
            "type": "function"
        },
        {
            "inputs": [
                {
                    "internalType": "uint256",
                    "name": "fee",
                    "type": "uint256"
                }
            ],
            "name": "setPlatformFee",
            "outputs": [],
            "stateMutability": "nonpayable",
            "type": "function"
        },
        {
            "inputs": [
                {
                    "internalType": "address",
                    "name": "marketplace",
                    "type": "address"
                }
            ],
            "name": "setRentMarketplace",
            "outputs": [],
            "stateMutability": "nonpayable",
            "type": "function"
        },
        {
            "inputs": [
                {
                    "internalType": "address",
                    "name": "marketplace",
                    "type": "address"
                }
            ],
            "name": "setSellMarketplace",
            "outputs": [],
            "stateMutability": "nonpayable",
            "type": "function"
        },
        {
            "inputs": [
                {
                    "internalType": "address",
                    "name": "newOwner",
                    "type": "address"
                }
            ],
            "name": "transferOwnership",
            "outputs": [],
            "stateMutability": "nonpayable",
            "type": "function"
        }
    ],
    "transactionHash": "0x287a8ab248a7f6dba97fab45a922d4c5378d652c0e4c60d0c8f0860d4dbcea95",
    "args": [
        "0xEE16B713D034fB6574BBb69082A34cB9C1491efe",
        "0x0000000000000000000000000000000000000000",
        "2500",
        "0x2d949C8bC0d866783C0a8629208cb9dd2a5d2302",
        "2500"
    ],
    "numDeployments": 1,
    "solcInputHash": "245c4820f6279bbd13355830e9994e3d",
    "bytecode": "0x60806040523480156200001157600080fd5b50604051620059b3380380620059b3833981810160405281019062000037919062000244565b620000576200004b6200013360201b60201c565b6200013b60201b60201c565b84600160006101000a81548173ffffffffffffffffffffffffffffffffffffffff021916908373ffffffffffffffffffffffffffffffffffffffff16021790555083600260006101000a81548173ffffffffffffffffffffffffffffffffffffffff021916908373ffffffffffffffffffffffffffffffffffffffff1602179055508260038190555081600560006101000a81548173ffffffffffffffffffffffffffffffffffffffff021916908373ffffffffffffffffffffffffffffffffffffffff16021790555080600481905550505050505062000371565b600033905090565b60008060009054906101000a900473ffffffffffffffffffffffffffffffffffffffff169050816000806101000a81548173ffffffffffffffffffffffffffffffffffffffff021916908373ffffffffffffffffffffffffffffffffffffffff1602179055508173ffffffffffffffffffffffffffffffffffffffff168173ffffffffffffffffffffffffffffffffffffffff167f8be0079c531659141344cd1fd0a4f28419497f9722a3daafe3b4186f6b6457e060405160405180910390a35050565b600081519050620002108162000323565b92915050565b60008151905062000227816200033d565b92915050565b6000815190506200023e8162000357565b92915050565b600080600080600060a086880312156200026357620002626200031e565b5b60006200027388828901620001ff565b95505060206200028688828901620001ff565b945050604062000299888289016200022d565b9350506060620002ac8882890162000216565b9250506080620002bf888289016200022d565b9150509295509295909350565b6000620002d982620002f4565b9050919050565b6000620002ed82620002f4565b9050919050565b600073ffffffffffffffffffffffffffffffffffffffff82169050919050565b6000819050919050565b600080fd5b6200032e81620002cc565b81146200033a57600080fd5b50565b6200034881620002e0565b81146200035457600080fd5b50565b620003628162000314565b81146200036e57600080fd5b50565b61563280620003816000396000f3fe608060405260043610620000fe5760003560e01c80639ba4c8041162000097578063df3025db1162000061578063df3025db1462000311578063e74b981b1462000341578063eddd0d9c146200036f578063f2fde38b146200039d57620000fe565b80639ba4c8041462000241578063a9baa7bb1462000271578063d7508af1146200029f578063d7d4e63114620002cd57620000fe565b80636ea8bc1011620000d95780636ea8bc101462000197578063715018a614620001c75780637a5caab314620001e15780638da5cb5b146200021157620000fe565b806312e8e2c3146200010357806314d76ffc14620001315780634ccb20c01462000167575b600080fd5b3480156200011057600080fd5b506200012f600480360381019062000129919062000ca3565b620003cb565b005b6200014f600480360381019062000149919062000c1e565b620003df565b6040516200015e919062000de6565b60405180910390f35b3480156200017457600080fd5b506200017f620006e6565b6040516200018e919062000e03565b60405180910390f35b348015620001a457600080fd5b50620001af62000710565b604051620001be919062000efc565b60405180910390f35b348015620001d457600080fd5b50620001df6200071a565b005b348015620001ee57600080fd5b50620001f962000732565b60405162000208919062000efc565b60405180910390f35b3480156200021e57600080fd5b50620002296200073c565b60405162000238919062000de6565b60405180910390f35b3480156200024e57600080fd5b506200025962000765565b60405162000268919062000de6565b60405180910390f35b3480156200027e57600080fd5b506200029d600480360381019062000297919062000bba565b6200078f565b005b348015620002ac57600080fd5b50620002cb6004803603810190620002c5919062000bba565b620007dd565b005b348015620002da57600080fd5b50620002f96004803603810190620002f3919062000bba565b6200082b565b60405162000308919062000e20565b60405180910390f35b3480156200031e57600080fd5b506200032962000881565b60405162000338919062000de6565b60405180910390f35b3480156200034e57600080fd5b506200036d600480360381019062000367919062000bec565b620008ab565b005b3480156200037c57600080fd5b506200039b600480360381019062000395919062000ca3565b620008f9565b005b348015620003aa57600080fd5b50620003c96004803603810190620003c3919062000bba565b6200090d565b005b620003d562000998565b8060048190555050565b60006004543410156200042f57600454346040517f03eb8b540000000000000000000000000000000000000000000000000000000081526004016200042692919062000f19565b60405180910390fd5b6000600560009054906101000a900473ffffffffffffffffffffffffffffffffffffffff1673ffffffffffffffffffffffffffffffffffffffff1634604051620004799062000dcf565b60006040518083038185875af1925050503d8060008114620004b8576040519150601f19603f3d011682016040523d82523d6000602084013e620004bd565b606091505b5050905080620004f9576040517f90b8ec1800000000000000000000000000000000000000000000000000000000815260040160405180910390fd5b60008484600160009054906101000a900473ffffffffffffffffffffffffffffffffffffffff16600260009054906101000a900473ffffffffffffffffffffffffffffffffffffffff16600354600560009054906101000a900473ffffffffffffffffffffffffffffffffffffffff16604051620005779062000ae9565b620005889695949392919062000e3d565b604051809103906000f080158015620005a5573d6000803e3d6000fd5b5090506001600660008373ffffffffffffffffffffffffffffffffffffffff1673ffffffffffffffffffffffffffffffffffffffff16815260200190815260200160002060006101000a81548160ff0219169083151502179055508073ffffffffffffffffffffffffffffffffffffffff1663f2fde38b6200062662000a1d565b6040518263ffffffff1660e01b815260040162000644919062000de6565b600060405180830381600087803b1580156200065f57600080fd5b505af115801562000674573d6000803e3d6000fd5b505050508073ffffffffffffffffffffffffffffffffffffffff166200069962000a1d565b73ffffffffffffffffffffffffffffffffffffffff167f2d49c67975aadd2d389580b368cfff5b49965b0bd5da33c144922ce01e7a4d7b60405160405180910390a3809250505092915050565b6000600560009054906101000a900473ffffffffffffffffffffffffffffffffffffffff16905090565b6000600454905090565b6200072462000998565b62000730600062000a25565b565b6000600354905090565b60008060009054906101000a900473ffffffffffffffffffffffffffffffffffffffff16905090565b6000600160009054906101000a900473ffffffffffffffffffffffffffffffffffffffff16905090565b6200079962000998565b80600160006101000a81548173ffffffffffffffffffffffffffffffffffffffff021916908373ffffffffffffffffffffffffffffffffffffffff16021790555050565b620007e762000998565b80600260006101000a81548173ffffffffffffffffffffffffffffffffffffffff021916908373ffffffffffffffffffffffffffffffffffffffff16021790555050565b6000600660008373ffffffffffffffffffffffffffffffffffffffff1673ffffffffffffffffffffffffffffffffffffffff16815260200190815260200160002060009054906101000a900460ff169050919050565b6000600260009054906101000a900473ffffffffffffffffffffffffffffffffffffffff16905090565b620008b562000998565b80600560006101000a81548173ffffffffffffffffffffffffffffffffffffffff021916908373ffffffffffffffffffffffffffffffffffffffff16021790555050565b6200090362000998565b8060038190555050565b6200091762000998565b600073ffffffffffffffffffffffffffffffffffffffff168173ffffffffffffffffffffffffffffffffffffffff1614156200098a576040517f08c379a0000000000000000000000000000000000000000000000000000000008152600401620009819062000eb8565b60405180910390fd5b620009958162000a25565b50565b620009a262000a1d565b73ffffffffffffffffffffffffffffffffffffffff16620009c26200073c565b73ffffffffffffffffffffffffffffffffffffffff161462000a1b576040517f08c379a000000000000000000000000000000000000000000000000000000000815260040162000a129062000eda565b60405180910390fd5b565b600033905090565b60008060009054906101000a900473ffffffffffffffffffffffffffffffffffffffff169050816000806101000a81548173ffffffffffffffffffffffffffffffffffffffff021916908373ffffffffffffffffffffffffffffffffffffffff1602179055508173ffffffffffffffffffffffffffffffffffffffff168173ffffffffffffffffffffffffffffffffffffffff167f8be0079c531659141344cd1fd0a4f28419497f9722a3daafe3b4186f6b6457e060405160405180910390a35050565b61443a80620011c383390190565b600062000b0e62000b088462000f6f565b62000f46565b90508281526020810184848401111562000b2d5762000b2c620010d9565b5b62000b3a8482856200102a565b509392505050565b60008135905062000b538162001174565b92915050565b60008135905062000b6a816200118e565b92915050565b600082601f83011262000b885762000b87620010d4565b5b813562000b9a84826020860162000af7565b91505092915050565b60008135905062000bb481620011a8565b92915050565b60006020828403121562000bd35762000bd2620010e3565b5b600062000be38482850162000b42565b91505092915050565b60006020828403121562000c055762000c04620010e3565b5b600062000c158482850162000b59565b91505092915050565b6000806040838503121562000c385762000c37620010e3565b5b600083013567ffffffffffffffff81111562000c595762000c58620010de565b5b62000c678582860162000b70565b925050602083013567ffffffffffffffff81111562000c8b5762000c8a620010de565b5b62000c998582860162000b70565b9150509250929050565b60006020828403121562000cbc5762000cbb620010e3565b5b600062000ccc8482850162000ba3565b91505092915050565b62000ce08162000fe0565b82525050565b62000cf18162000fcc565b82525050565b62000d028162000ff4565b82525050565b600062000d158262000fa5565b62000d21818562000fbb565b935062000d3381856020860162001039565b62000d3e81620010e8565b840191505092915050565b600062000d5860268362000fbb565b915062000d6582620010f9565b604082019050919050565b600062000d7f60208362000fbb565b915062000d8c8262001148565b602082019050919050565b600062000da660008362000fb0565b915062000db38262001171565b600082019050919050565b62000dc98162001020565b82525050565b600062000ddc8262000d97565b9150819050919050565b600060208201905062000dfd600083018462000ce6565b92915050565b600060208201905062000e1a600083018462000cd5565b92915050565b600060208201905062000e37600083018462000cf7565b92915050565b600060c082019050818103600083015262000e59818962000d08565b9050818103602083015262000e6f818862000d08565b905062000e80604083018762000ce6565b62000e8f606083018662000ce6565b62000e9e608083018562000dbe565b62000ead60a083018462000cd5565b979650505050505050565b6000602082019050818103600083015262000ed38162000d49565b9050919050565b6000602082019050818103600083015262000ef58162000d70565b9050919050565b600060208201905062000f13600083018462000dbe565b92915050565b600060408201905062000f30600083018562000dbe565b62000f3f602083018462000dbe565b9392505050565b600062000f5262000f65565b905062000f6082826200106f565b919050565b6000604051905090565b600067ffffffffffffffff82111562000f8d5762000f8c620010a5565b5b62000f9882620010e8565b9050602081019050919050565b600081519050919050565b600081905092915050565b600082825260208201905092915050565b600062000fd98262001000565b9050919050565b600062000fed8262001000565b9050919050565b60008115159050919050565b600073ffffffffffffffffffffffffffffffffffffffff82169050919050565b6000819050919050565b82818337600083830152505050565b60005b83811015620010595780820151818401526020810190506200103c565b8381111562001069576000848401525b50505050565b6200107a82620010e8565b810181811067ffffffffffffffff821117156200109c576200109b620010a5565b5b80604052505050565b7f4e487b7100000000000000000000000000000000000000000000000000000000600052604160045260246000fd5b600080fd5b600080fd5b600080fd5b600080fd5b6000601f19601f8301169050919050565b7f4f776e61626c653a206e6577206f776e657220697320746865207a65726f206160008201527f6464726573730000000000000000000000000000000000000000000000000000602082015250565b7f4f776e61626c653a2063616c6c6572206973206e6f7420746865206f776e6572600082015250565b50565b6200117f8162000fcc565b81146200118b57600080fd5b50565b620011998162000fe0565b8114620011a557600080fd5b50565b620011b38162001020565b8114620011bf57600080fd5b5056fe60806040523480156200001157600080fd5b506040516200443a3803806200443a8339818101604052810190620000379190620003ac565b858581600090805190602001906200005192919062000239565b5080600190805190602001906200006a92919062000239565b5050506200008d620000816200016b60201b60201c565b6200017360201b60201c565b600060098190555083600a60006101000a81548173ffffffffffffffffffffffffffffffffffffffff021916908373ffffffffffffffffffffffffffffffffffffffff16021790555082600b60006101000a81548173ffffffffffffffffffffffffffffffffffffffff021916908373ffffffffffffffffffffffffffffffffffffffff16021790555081600c8190555080600d60006101000a81548173ffffffffffffffffffffffffffffffffffffffff021916908373ffffffffffffffffffffffffffffffffffffffff160217905550505050505050620006aa565b600033905090565b6000600860009054906101000a900473ffffffffffffffffffffffffffffffffffffffff16905081600860006101000a81548173ffffffffffffffffffffffffffffffffffffffff021916908373ffffffffffffffffffffffffffffffffffffffff1602179055508173ffffffffffffffffffffffffffffffffffffffff168173ffffffffffffffffffffffffffffffffffffffff167f8be0079c531659141344cd1fd0a4f28419497f9722a3daafe3b4186f6b6457e060405160405180910390a35050565b82805462000247906200056d565b90600052602060002090601f0160209004810192826200026b5760008555620002b7565b82601f106200028657805160ff1916838001178555620002b7565b82800160010185558215620002b7579182015b82811115620002b657825182559160200191906001019062000299565b5b509050620002c69190620002ca565b5090565b5b80821115620002e5576000816000905550600101620002cb565b5090565b600062000300620002fa84620004af565b62000486565b9050828152602081018484840111156200031f576200031e6200063c565b5b6200032c84828562000537565b509392505050565b60008151905062000345816200065c565b92915050565b6000815190506200035c8162000676565b92915050565b600082601f8301126200037a576200037962000637565b5b81516200038c848260208601620002e9565b91505092915050565b600081519050620003a68162000690565b92915050565b60008060008060008060c08789031215620003cc57620003cb62000646565b5b600087015167ffffffffffffffff811115620003ed57620003ec62000641565b5b620003fb89828a0162000362565b965050602087015167ffffffffffffffff8111156200041f576200041e62000641565b5b6200042d89828a0162000362565b95505060406200044089828a0162000334565b94505060606200045389828a0162000334565b93505060806200046689828a0162000395565b92505060a06200047989828a016200034b565b9150509295509295509295565b600062000492620004a5565b9050620004a08282620005a3565b919050565b6000604051905090565b600067ffffffffffffffff821115620004cd57620004cc62000608565b5b620004d8826200064b565b9050602081019050919050565b6000620004f2826200050d565b9050919050565b600062000506826200050d565b9050919050565b600073ffffffffffffffffffffffffffffffffffffffff82169050919050565b6000819050919050565b60005b83811015620005575780820151818401526020810190506200053a565b8381111562000567576000848401525b50505050565b600060028204905060018216806200058657607f821691505b602082108114156200059d576200059c620005d9565b5b50919050565b620005ae826200064b565b810181811067ffffffffffffffff82111715620005d057620005cf62000608565b5b80604052505050565b7f4e487b7100000000000000000000000000000000000000000000000000000000600052602260045260246000fd5b7f4e487b7100000000000000000000000000000000000000000000000000000000600052604160045260246000fd5b600080fd5b600080fd5b600080fd5b600080fd5b6000601f19601f8301169050919050565b6200066781620004e5565b81146200067357600080fd5b50565b6200068181620004f9565b81146200068d57600080fd5b50565b6200069b816200052d565b8114620006a757600080fd5b50565b613d8080620006ba6000396000f3fe6080604052600436106101c25760003560e01c8063715018a6116100f7578063c2f1f14a11610095578063e030565e11610064578063e030565e14610659578063e74b981b14610682578063e985e9c5146106ab578063f2fde38b146106e8576101c2565b8063c2f1f14a14610598578063c87b56dd146105d5578063d0def52114610612578063df3025db1461062e576101c2565b806395d89b41116100d157806395d89b41146104f05780639ba4c8041461051b578063a22cb46514610546578063b88d4fde1461056f576101c2565b8063715018a6146104715780638da5cb5b146104885780638fc88c48146104b3576101c2565b806342966c68116101645780636352211e1161013e5780636352211e146103a15780636e02007d146103de5780636ea8bc101461040957806370a0823114610434576101c2565b806342966c68146103105780634ccb20c01461033957806356c3163714610364576101c2565b8063095ea7b3116101a0578063095ea7b31461026c57806312e8e2c31461029557806323b872dd146102be57806342842e0e146102e7576101c2565b806301ffc9a7146101c757806306fdde0314610204578063081812fc1461022f575b600080fd5b3480156101d357600080fd5b506101ee60048036038101906101e99190612cfd565b610711565b6040516101fb91906131ff565b60405180910390f35b34801561021057600080fd5b5061021961078b565b6040516102269190613235565b60405180910390f35b34801561023b57600080fd5b5061025660048036038101906102519190612d57565b61081d565b604051610263919061317d565b60405180910390f35b34801561027857600080fd5b50610293600480360381019061028e9190612cbd565b610863565b005b3480156102a157600080fd5b506102bc60048036038101906102b79190612d57565b61097b565b005b3480156102ca57600080fd5b506102e560048036038101906102e09190612b47565b6109ba565b005b3480156102f357600080fd5b5061030e60048036038101906103099190612b47565b610a1a565b005b34801561031c57600080fd5b5061033760048036038101906103329190612d57565b610a3a565b005b34801561034557600080fd5b5061034e610b24565b60405161035b9190613198565b60405180910390f35b34801561037057600080fd5b5061038b60048036038101906103869190612d84565b610b4e565b60405161039891906131ff565b60405180910390f35b3480156103ad57600080fd5b506103c860048036038101906103c39190612d57565b610ba8565b6040516103d5919061317d565b60405180910390f35b3480156103ea57600080fd5b506103f3610c5a565b6040516104009190613437565b60405180910390f35b34801561041557600080fd5b5061041e610c64565b60405161042b9190613437565b60405180910390f35b34801561044057600080fd5b5061045b60048036038101906104569190612aad565b610c6e565b6040516104689190613437565b60405180910390f35b34801561047d57600080fd5b50610486610d26565b005b34801561049457600080fd5b5061049d610d3a565b6040516104aa919061317d565b60405180910390f35b3480156104bf57600080fd5b506104da60048036038101906104d59190612d57565b610d64565b6040516104e79190613437565b60405180910390f35b3480156104fc57600080fd5b50610505610da2565b6040516105129190613235565b60405180910390f35b34801561052757600080fd5b50610530610e34565b60405161053d919061317d565b60405180910390f35b34801561055257600080fd5b5061056d60048036038101906105689190612c1d565b610e5e565b005b34801561057b57600080fd5b5061059660048036038101906105919190612b9a565b610e74565b005b3480156105a457600080fd5b506105bf60048036038101906105ba9190612d57565b610ed6565b6040516105cc919061317d565b60405180910390f35b3480156105e157600080fd5b506105fc60048036038101906105f79190612d57565b610f5b565b6040516106099190613235565b60405180910390f35b61062c60048036038101906106279190612c5d565b61106e565b005b34801561063a57600080fd5b5061064361125a565b604051610650919061317d565b60405180910390f35b34801561066557600080fd5b50610680600480360381019061067b9190612dc4565b611284565b005b34801561068e57600080fd5b506106a960048036038101906106a49190612ada565b6113a7565b005b3480156106b757600080fd5b506106d260048036038101906106cd9190612b07565b611436565b6040516106df91906131ff565b60405180910390f35b3480156106f457600080fd5b5061070f600480360381019061070a9190612aad565b611502565b005b60007fad092b5c000000000000000000000000000000000000000000000000000000007bffffffffffffffffffffffffffffffffffffffffffffffffffffffff1916827bffffffffffffffffffffffffffffffffffffffffffffffffffffffff19161480610784575061078382611586565b5b9050919050565b60606000805461079a906136e3565b80601f01602080910402602001604051908101604052809291908181526020018280546107c6906136e3565b80156108135780601f106107e857610100808354040283529160200191610813565b820191906000526020600020905b8154815290600101906020018083116107f657829003601f168201915b5050505050905090565b600061082882611668565b6004600083815260200190815260200160002060009054906101000a900473ffffffffffffffffffffffffffffffffffffffff169050919050565b600061086e82610ba8565b90508073ffffffffffffffffffffffffffffffffffffffff168373ffffffffffffffffffffffffffffffffffffffff1614156108df576040517f08c379a00000000000000000000000000000000000000000000000000000000081526004016108d6906133d7565b60405180910390fd5b8073ffffffffffffffffffffffffffffffffffffffff166108fe6116b3565b73ffffffffffffffffffffffffffffffffffffffff16148061092d575061092c816109276116b3565b611436565b5b61096c576040517f08c379a000000000000000000000000000000000000000000000000000000000815260040161096390613357565b60405180910390fd5b61097683836116bb565b505050565b610983611774565b80600c81905550807f45610d581145924dd7090a5017e5f2b1d6f42213bb2e95707ff86846bbfcb1ca60405160405180910390a250565b6109cb6109c56116b3565b826117f2565b610a0a576040517f08c379a0000000000000000000000000000000000000000000000000000000008152600401610a0190613417565b60405180910390fd5b610a15838383611878565b505050565b610a3583838360405180602001604052806000815250610e74565b505050565b6000610a446116b3565b90508073ffffffffffffffffffffffffffffffffffffffff16610a6683610ba8565b73ffffffffffffffffffffffffffffffffffffffff1614158015610a915750610a8f8282610b4e565b155b15610ad357806040517fc476e34b000000000000000000000000000000000000000000000000000000008152600401610aca919061317d565b60405180910390fd5b610adc82611adf565b8073ffffffffffffffffffffffffffffffffffffffff16827fe861e0b12c283de7ca3f4d68d33f3bfc6fc01e4896cddf05e52b8f2a1e548e2460405160405180910390a35050565b6000600d60009054906101000a900473ffffffffffffffffffffffffffffffffffffffff16905090565b6000610b62610b5c84610ba8565b83611436565b80610ba057508173ffffffffffffffffffffffffffffffffffffffff16610b888461081d565b73ffffffffffffffffffffffffffffffffffffffff16145b905092915050565b6000806002600084815260200190815260200160002060009054906101000a900473ffffffffffffffffffffffffffffffffffffffff169050600073ffffffffffffffffffffffffffffffffffffffff168173ffffffffffffffffffffffffffffffffffffffff161415610c51576040517f08c379a0000000000000000000000000000000000000000000000000000000008152600401610c48906133b7565b60405180910390fd5b80915050919050565b6000600954905090565b6000600c54905090565b60008073ffffffffffffffffffffffffffffffffffffffff168273ffffffffffffffffffffffffffffffffffffffff161415610cdf576040517f08c379a0000000000000000000000000000000000000000000000000000000008152600401610cd690613317565b60405180910390fd5b600360008373ffffffffffffffffffffffffffffffffffffffff1673ffffffffffffffffffffffffffffffffffffffff168152602001908152602001600020549050919050565b610d2e611774565b610d386000611b32565b565b6000600860009054906101000a900473ffffffffffffffffffffffffffffffffffffffff16905090565b60006007600083815260200190815260200160002060000160149054906101000a900467ffffffffffffffff1667ffffffffffffffff169050919050565b606060018054610db1906136e3565b80601f0160208091040260200160405190810160405280929190818152602001828054610ddd906136e3565b8015610e2a5780601f10610dff57610100808354040283529160200191610e2a565b820191906000526020600020905b815481529060010190602001808311610e0d57829003601f168201915b5050505050905090565b6000600a60009054906101000a900473ffffffffffffffffffffffffffffffffffffffff16905090565b610e70610e696116b3565b8383611bf8565b5050565b610e85610e7f6116b3565b836117f2565b610ec4576040517f08c379a0000000000000000000000000000000000000000000000000000000008152600401610ebb90613417565b60405180910390fd5b610ed084848484611d65565b50505050565b6000426007600084815260200190815260200160002060000160149054906101000a900467ffffffffffffffff1667ffffffffffffffff1610610f51576007600083815260200190815260200160002060000160009054906101000a900473ffffffffffffffffffffffffffffffffffffffff169050610f56565b600090505b919050565b6060610f6682611668565b6000600660008481526020019081526020016000208054610f86906136e3565b80601f0160208091040260200160405190810160405280929190818152602001828054610fb2906136e3565b8015610fff5780601f10610fd457610100808354040283529160200191610fff565b820191906000526020600020905b815481529060010190602001808311610fe257829003601f168201915b505050505090506000611010611dc1565b9050600081511415611026578192505050611069565b60008251111561105b578082604051602001611043929190613144565b60405160208183030381529060405292505050611069565b61106484611dd8565b925050505b919050565b600c543410156110b957600c54346040517f03eb8b540000000000000000000000000000000000000000000000000000000081526004016110b0929190613452565b60405180910390fd5b6000600d60009054906101000a900473ffffffffffffffffffffffffffffffffffffffff1673ffffffffffffffffffffffffffffffffffffffff163460405161110190613168565b60006040518083038185875af1925050503d806000811461113e576040519150601f19603f3d011682016040523d82523d6000602084013e611143565b606091505b505090508061117e576040517f90b8ec1800000000000000000000000000000000000000000000000000000000815260040160405180910390fd5b60006009600081548092919061119390613746565b9190505590506111a38582611e40565b6111f18185858080601f016020809104026020016040519081016040528093929190818152602001838380828437600081840152601f19601f82011690508083019250505050505050611e5e565b6111f96116b3565b73ffffffffffffffffffffffffffffffffffffffff168573ffffffffffffffffffffffffffffffffffffffff16827f5758c4c0a4d007ca9768a0a574eedc39af88c4423f4ad0f8895b1b8fd1e7613360405160405180910390a45050505050565b6000600b60009054906101000a900473ffffffffffffffffffffffffffffffffffffffff16905090565b61128e33846117f2565b6112cd576040517f08c379a00000000000000000000000000000000000000000000000000000000081526004016112c4906133f7565b60405180910390fd5b6000600760008581526020019081526020016000209050828160000160006101000a81548173ffffffffffffffffffffffffffffffffffffffff021916908373ffffffffffffffffffffffffffffffffffffffff160217905550818160000160146101000a81548167ffffffffffffffff021916908367ffffffffffffffff1602179055508273ffffffffffffffffffffffffffffffffffffffff16847f4e06b4e7000e659094299b3533b47b6aa8ad048e95e872d23d1f4ee55af89cfe84604051611399919061347b565b60405180910390a350505050565b6113af611774565b80600d60006101000a81548173ffffffffffffffffffffffffffffffffffffffff021916908373ffffffffffffffffffffffffffffffffffffffff1602179055508073ffffffffffffffffffffffffffffffffffffffff167f7a7b5a0a132f9e0581eb8527f66eae9ee89c2a3e79d4ac7e41a1f1f4d48a7fc260405160405180910390a250565b60008173ffffffffffffffffffffffffffffffffffffffff16600a60009054906101000a900473ffffffffffffffffffffffffffffffffffffffff1673ffffffffffffffffffffffffffffffffffffffff1614806114e157508173ffffffffffffffffffffffffffffffffffffffff16600b60009054906101000a900473ffffffffffffffffffffffffffffffffffffffff1673ffffffffffffffffffffffffffffffffffffffff16145b156114ef57600190506114fc565b6114f98383611ed2565b90505b92915050565b61150a611774565b600073ffffffffffffffffffffffffffffffffffffffff168173ffffffffffffffffffffffffffffffffffffffff16141561157a576040517f08c379a000000000000000000000000000000000000000000000000000000000815260040161157190613277565b60405180910390fd5b61158381611b32565b50565b60007f80ac58cd000000000000000000000000000000000000000000000000000000007bffffffffffffffffffffffffffffffffffffffffffffffffffffffff1916827bffffffffffffffffffffffffffffffffffffffffffffffffffffffff1916148061165157507f5b5e139f000000000000000000000000000000000000000000000000000000007bffffffffffffffffffffffffffffffffffffffffffffffffffffffff1916827bffffffffffffffffffffffffffffffffffffffffffffffffffffffff1916145b80611661575061166082611f66565b5b9050919050565b61167181611fd0565b6116b0576040517f08c379a00000000000000000000000000000000000000000000000000000000081526004016116a7906133b7565b60405180910390fd5b50565b600033905090565b816004600083815260200190815260200160002060006101000a81548173ffffffffffffffffffffffffffffffffffffffff021916908373ffffffffffffffffffffffffffffffffffffffff160217905550808273ffffffffffffffffffffffffffffffffffffffff1661172e83610ba8565b73ffffffffffffffffffffffffffffffffffffffff167f8c5be1e5ebec7d5bd14f71427d1e84f3dd0314c0f7b2291e5b200ac8c7c3b92560405160405180910390a45050565b61177c6116b3565b73ffffffffffffffffffffffffffffffffffffffff1661179a610d3a565b73ffffffffffffffffffffffffffffffffffffffff16146117f0576040517f08c379a00000000000000000000000000000000000000000000000000000000081526004016117e790613397565b60405180910390fd5b565b60006117fd82611fd0565b61183e57816040517f4003283c0000000000000000000000000000000000000000000000000000000081526004016118359190613437565b60405180910390fd5b600061184983610ba8565b90506118558185611436565b15611864576001915050611872565b61186e848461203c565b9150505b92915050565b8273ffffffffffffffffffffffffffffffffffffffff1661189882610ba8565b73ffffffffffffffffffffffffffffffffffffffff16146118ee576040517f08c379a00000000000000000000000000000000000000000000000000000000081526004016118e590613297565b60405180910390fd5b600073ffffffffffffffffffffffffffffffffffffffff168273ffffffffffffffffffffffffffffffffffffffff16141561195e576040517f08c379a0000000000000000000000000000000000000000000000000000000008152600401611955906132d7565b60405180910390fd5b6119698383836120d1565b6119746000826116bb565b6001600360008573ffffffffffffffffffffffffffffffffffffffff1673ffffffffffffffffffffffffffffffffffffffff16815260200190815260200160002060008282546119c491906135c1565b925050819055506001600360008473ffffffffffffffffffffffffffffffffffffffff1673ffffffffffffffffffffffffffffffffffffffff1681526020019081526020016000206000828254611a1b919061353a565b92505081905550816002600083815260200190815260200160002060006101000a81548173ffffffffffffffffffffffffffffffffffffffff021916908373ffffffffffffffffffffffffffffffffffffffff160217905550808273ffffffffffffffffffffffffffffffffffffffff168473ffffffffffffffffffffffffffffffffffffffff167fddf252ad1be2c89b69c2b068fc378daa952ba7f163c4a11628f55a4df523b3ef60405160405180910390a4611ada8383836121fa565b505050565b611ae8816121ff565b6000600660008381526020019081526020016000208054611b08906136e3565b905014611b2f57600660008281526020019081526020016000206000611b2e9190612871565b5b50565b6000600860009054906101000a900473ffffffffffffffffffffffffffffffffffffffff16905081600860006101000a81548173ffffffffffffffffffffffffffffffffffffffff021916908373ffffffffffffffffffffffffffffffffffffffff1602179055508173ffffffffffffffffffffffffffffffffffffffff168173ffffffffffffffffffffffffffffffffffffffff167f8be0079c531659141344cd1fd0a4f28419497f9722a3daafe3b4186f6b6457e060405160405180910390a35050565b8173ffffffffffffffffffffffffffffffffffffffff168373ffffffffffffffffffffffffffffffffffffffff161415611c67576040517f08c379a0000000000000000000000000000000000000000000000000000000008152600401611c5e906132f7565b60405180910390fd5b80600560008573ffffffffffffffffffffffffffffffffffffffff1673ffffffffffffffffffffffffffffffffffffffff16815260200190815260200160002060008473ffffffffffffffffffffffffffffffffffffffff1673ffffffffffffffffffffffffffffffffffffffff16815260200190815260200160002060006101000a81548160ff0219169083151502179055508173ffffffffffffffffffffffffffffffffffffffff168373ffffffffffffffffffffffffffffffffffffffff167f17307eab39ab6107e8899845ad3d59bd9653f200f220920489ca2b5937696c3183604051611d5891906131ff565b60405180910390a3505050565b611d70848484611878565b611d7c8484848461231c565b611dbb576040517f08c379a0000000000000000000000000000000000000000000000000000000008152600401611db290613257565b60405180910390fd5b50505050565b606060405180602001604052806000815250905090565b6060611de382611668565b6000611ded611dc1565b90506000815111611e0d5760405180602001604052806000815250611e38565b80611e17846124b3565b604051602001611e28929190613144565b6040516020818303038152906040525b915050919050565b611e5a828260405180602001604052806000815250612614565b5050565b611e6782611fd0565b611ea6576040517f08c379a0000000000000000000000000000000000000000000000000000000008152600401611e9d90613337565b60405180910390fd5b80600660008481526020019081526020016000209080519060200190611ecd9291906128b1565b505050565b6000600560008473ffffffffffffffffffffffffffffffffffffffff1673ffffffffffffffffffffffffffffffffffffffff16815260200190815260200160002060008373ffffffffffffffffffffffffffffffffffffffff1673ffffffffffffffffffffffffffffffffffffffff16815260200190815260200160002060009054906101000a900460ff16905092915050565b60007f01ffc9a7000000000000000000000000000000000000000000000000000000007bffffffffffffffffffffffffffffffffffffffffffffffffffffffff1916827bffffffffffffffffffffffffffffffffffffffffffffffffffffffff1916149050919050565b60008073ffffffffffffffffffffffffffffffffffffffff166002600084815260200190815260200160002060009054906101000a900473ffffffffffffffffffffffffffffffffffffffff1673ffffffffffffffffffffffffffffffffffffffff1614159050919050565b60008061204883610ba8565b90508073ffffffffffffffffffffffffffffffffffffffff168473ffffffffffffffffffffffffffffffffffffffff16148061208a57506120898185611436565b5b806120c857508373ffffffffffffffffffffffffffffffffffffffff166120b08461081d565b73ffffffffffffffffffffffffffffffffffffffff16145b91505092915050565b6120dc83838361266f565b8173ffffffffffffffffffffffffffffffffffffffff168373ffffffffffffffffffffffffffffffffffffffff16146121f55760006007600083815260200190815260200160002060000160006101000a81548173ffffffffffffffffffffffffffffffffffffffff021916908373ffffffffffffffffffffffffffffffffffffffff16021790555060006007600083815260200190815260200160002060000160146101000a81548167ffffffffffffffff021916908367ffffffffffffffff160217905550600073ffffffffffffffffffffffffffffffffffffffff16817f4e06b4e7000e659094299b3533b47b6aa8ad048e95e872d23d1f4ee55af89cfe60006040516121ec919061321a565b60405180910390a35b505050565b505050565b600061220a82610ba8565b9050612218816000846120d1565b6122236000836116bb565b6001600360008373ffffffffffffffffffffffffffffffffffffffff1673ffffffffffffffffffffffffffffffffffffffff168152602001908152602001600020600082825461227391906135c1565b925050819055506002600083815260200190815260200160002060006101000a81549073ffffffffffffffffffffffffffffffffffffffff021916905581600073ffffffffffffffffffffffffffffffffffffffff168273ffffffffffffffffffffffffffffffffffffffff167fddf252ad1be2c89b69c2b068fc378daa952ba7f163c4a11628f55a4df523b3ef60405160405180910390a4612318816000846121fa565b5050565b600061233d8473ffffffffffffffffffffffffffffffffffffffff16612674565b156124a6578373ffffffffffffffffffffffffffffffffffffffff1663150b7a026123666116b3565b8786866040518563ffffffff1660e01b815260040161238894939291906131b3565b602060405180830381600087803b1580156123a257600080fd5b505af19250505080156123d357506040513d601f19601f820116820180604052508101906123d09190612d2a565b60015b612456573d8060008114612403576040519150601f19603f3d011682016040523d82523d6000602084013e612408565b606091505b5060008151141561244e576040517f08c379a000000000000000000000000000000000000000000000000000000000815260040161244590613257565b60405180910390fd5b805181602001fd5b63150b7a0260e01b7bffffffffffffffffffffffffffffffffffffffffffffffffffffffff1916817bffffffffffffffffffffffffffffffffffffffffffffffffffffffff1916149150506124ab565b600190505b949350505050565b606060008214156124fb576040518060400160405280600181526020017f3000000000000000000000000000000000000000000000000000000000000000815250905061260f565b600082905060005b6000821461252d57808061251690613746565b915050600a826125269190613590565b9150612503565b60008167ffffffffffffffff8111156125495761254861387c565b5b6040519080825280601f01601f19166020018201604052801561257b5781602001600182028036833780820191505090505b5090505b600085146126085760018261259491906135c1565b9150600a856125a3919061378f565b60306125af919061353a565b60f81b8183815181106125c5576125c461384d565b5b60200101907effffffffffffffffffffffffffffffffffffffffffffffffffffffffffffff1916908160001a905350600a856126019190613590565b945061257f565b8093505050505b919050565b61261e8383612697565b61262b600084848461231c565b61266a576040517f08c379a000000000000000000000000000000000000000000000000000000000815260040161266190613257565b60405180910390fd5b505050565b505050565b6000808273ffffffffffffffffffffffffffffffffffffffff163b119050919050565b600073ffffffffffffffffffffffffffffffffffffffff168273ffffffffffffffffffffffffffffffffffffffff161415612707576040517f08c379a00000000000000000000000000000000000000000000000000000000081526004016126fe90613377565b60405180910390fd5b61271081611fd0565b15612750576040517f08c379a0000000000000000000000000000000000000000000000000000000008152600401612747906132b7565b60405180910390fd5b61275c600083836120d1565b6001600360008473ffffffffffffffffffffffffffffffffffffffff1673ffffffffffffffffffffffffffffffffffffffff16815260200190815260200160002060008282546127ac919061353a565b92505081905550816002600083815260200190815260200160002060006101000a81548173ffffffffffffffffffffffffffffffffffffffff021916908373ffffffffffffffffffffffffffffffffffffffff160217905550808273ffffffffffffffffffffffffffffffffffffffff16600073ffffffffffffffffffffffffffffffffffffffff167fddf252ad1be2c89b69c2b068fc378daa952ba7f163c4a11628f55a4df523b3ef60405160405180910390a461286d600083836121fa565b5050565b50805461287d906136e3565b6000825580601f1061288f57506128ae565b601f0160209004906000526020600020908101906128ad9190612937565b5b50565b8280546128bd906136e3565b90600052602060002090601f0160209004810192826128df5760008555612926565b82601f106128f857805160ff1916838001178555612926565b82800160010185558215612926579182015b8281111561292557825182559160200191906001019061290a565b5b5090506129339190612937565b5090565b5b80821115612950576000816000905550600101612938565b5090565b6000612967612962846134bb565b613496565b905082815260208101848484011115612983576129826138ba565b5b61298e8482856136a1565b509392505050565b6000813590506129a581613cc0565b92915050565b6000813590506129ba81613cd7565b92915050565b6000813590506129cf81613cee565b92915050565b6000813590506129e481613d05565b92915050565b6000815190506129f981613d05565b92915050565b600082601f830112612a1457612a136138b0565b5b8135612a24848260208601612954565b91505092915050565b60008083601f840112612a4357612a426138b0565b5b8235905067ffffffffffffffff811115612a6057612a5f6138ab565b5b602083019150836001820283011115612a7c57612a7b6138b5565b5b9250929050565b600081359050612a9281613d1c565b92915050565b600081359050612aa781613d33565b92915050565b600060208284031215612ac357612ac26138c4565b5b6000612ad184828501612996565b91505092915050565b600060208284031215612af057612aef6138c4565b5b6000612afe848285016129ab565b91505092915050565b60008060408385031215612b1e57612b1d6138c4565b5b6000612b2c85828601612996565b9250506020612b3d85828601612996565b9150509250929050565b600080600060608486031215612b6057612b5f6138c4565b5b6000612b6e86828701612996565b9350506020612b7f86828701612996565b9250506040612b9086828701612a83565b9150509250925092565b60008060008060808587031215612bb457612bb36138c4565b5b6000612bc287828801612996565b9450506020612bd387828801612996565b9350506040612be487828801612a83565b925050606085013567ffffffffffffffff811115612c0557612c046138bf565b5b612c11878288016129ff565b91505092959194509250565b60008060408385031215612c3457612c336138c4565b5b6000612c4285828601612996565b9250506020612c53858286016129c0565b9150509250929050565b600080600060408486031215612c7657612c756138c4565b5b6000612c8486828701612996565b935050602084013567ffffffffffffffff811115612ca557612ca46138bf565b5b612cb186828701612a2d565b92509250509250925092565b60008060408385031215612cd457612cd36138c4565b5b6000612ce285828601612996565b9250506020612cf385828601612a83565b9150509250929050565b600060208284031215612d1357612d126138c4565b5b6000612d21848285016129d5565b91505092915050565b600060208284031215612d4057612d3f6138c4565b5b6000612d4e848285016129ea565b91505092915050565b600060208284031215612d6d57612d6c6138c4565b5b6000612d7b84828501612a83565b91505092915050565b60008060408385031215612d9b57612d9a6138c4565b5b6000612da985828601612a83565b9250506020612dba85828601612996565b9150509250929050565b600080600060608486031215612ddd57612ddc6138c4565b5b6000612deb86828701612a83565b9350506020612dfc86828701612996565b9250506040612e0d86828701612a98565b9150509250925092565b612e2081613607565b82525050565b612e2f816135f5565b82525050565b612e3e81613619565b82525050565b6000612e4f826134ec565b612e598185613502565b9350612e698185602086016136b0565b612e72816138c9565b840191505092915050565b612e868161368f565b82525050565b6000612e97826134f7565b612ea1818561351e565b9350612eb18185602086016136b0565b612eba816138c9565b840191505092915050565b6000612ed0826134f7565b612eda818561352f565b9350612eea8185602086016136b0565b80840191505092915050565b6000612f0360328361351e565b9150612f0e826138da565b604082019050919050565b6000612f2660268361351e565b9150612f3182613929565b604082019050919050565b6000612f4960258361351e565b9150612f5482613978565b604082019050919050565b6000612f6c601c8361351e565b9150612f77826139c7565b602082019050919050565b6000612f8f60248361351e565b9150612f9a826139f0565b604082019050919050565b6000612fb260198361351e565b9150612fbd82613a3f565b602082019050919050565b6000612fd560298361351e565b9150612fe082613a68565b604082019050919050565b6000612ff8602e8361351e565b915061300382613ab7565b604082019050919050565b600061301b603e8361351e565b915061302682613b06565b604082019050919050565b600061303e60208361351e565b915061304982613b55565b602082019050919050565b600061306160208361351e565b915061306c82613b7e565b602082019050919050565b600061308460188361351e565b915061308f82613ba7565b602082019050919050565b60006130a760218361351e565b91506130b282613bd0565b604082019050919050565b60006130ca600083613513565b91506130d582613c1f565b600082019050919050565b60006130ed60318361351e565b91506130f882613c22565b604082019050919050565b6000613110602e8361351e565b915061311b82613c71565b604082019050919050565b61312f81613671565b82525050565b61313e8161367b565b82525050565b60006131508285612ec5565b915061315c8284612ec5565b91508190509392505050565b6000613173826130bd565b9150819050919050565b60006020820190506131926000830184612e26565b92915050565b60006020820190506131ad6000830184612e17565b92915050565b60006080820190506131c86000830187612e26565b6131d56020830186612e26565b6131e26040830185613126565b81810360608301526131f48184612e44565b905095945050505050565b60006020820190506132146000830184612e35565b92915050565b600060208201905061322f6000830184612e7d565b92915050565b6000602082019050818103600083015261324f8184612e8c565b905092915050565b6000602082019050818103600083015261327081612ef6565b9050919050565b6000602082019050818103600083015261329081612f19565b9050919050565b600060208201905081810360008301526132b081612f3c565b9050919050565b600060208201905081810360008301526132d081612f5f565b9050919050565b600060208201905081810360008301526132f081612f82565b9050919050565b6000602082019050818103600083015261331081612fa5565b9050919050565b6000602082019050818103600083015261333081612fc8565b9050919050565b6000602082019050818103600083015261335081612feb565b9050919050565b600060208201905081810360008301526133708161300e565b9050919050565b6000602082019050818103600083015261339081613031565b9050919050565b600060208201905081810360008301526133b081613054565b9050919050565b600060208201905081810360008301526133d081613077565b9050919050565b600060208201905081810360008301526133f08161309a565b9050919050565b60006020820190508181036000830152613410816130e0565b9050919050565b6000602082019050818103600083015261343081613103565b9050919050565b600060208201905061344c6000830184613126565b92915050565b60006040820190506134676000830185613126565b6134746020830184613126565b9392505050565b60006020820190506134906000830184613135565b92915050565b60006134a06134b1565b90506134ac8282613715565b919050565b6000604051905090565b600067ffffffffffffffff8211156134d6576134d561387c565b5b6134df826138c9565b9050602081019050919050565b600081519050919050565b600081519050919050565b600082825260208201905092915050565b600081905092915050565b600082825260208201905092915050565b600081905092915050565b600061354582613671565b915061355083613671565b9250827fffffffffffffffffffffffffffffffffffffffffffffffffffffffffffffffff03821115613585576135846137c0565b5b828201905092915050565b600061359b82613671565b91506135a683613671565b9250826135b6576135b56137ef565b5b828204905092915050565b60006135cc82613671565b91506135d783613671565b9250828210156135ea576135e96137c0565b5b828203905092915050565b600061360082613651565b9050919050565b600061361282613651565b9050919050565b60008115159050919050565b60007fffffffff0000000000000000000000000000000000000000000000000000000082169050919050565b600073ffffffffffffffffffffffffffffffffffffffff82169050919050565b6000819050919050565b600067ffffffffffffffff82169050919050565b600061369a8261367b565b9050919050565b82818337600083830152505050565b60005b838110156136ce5780820151818401526020810190506136b3565b838111156136dd576000848401525b50505050565b600060028204905060018216806136fb57607f821691505b6020821081141561370f5761370e61381e565b5b50919050565b61371e826138c9565b810181811067ffffffffffffffff8211171561373d5761373c61387c565b5b80604052505050565b600061375182613671565b91507fffffffffffffffffffffffffffffffffffffffffffffffffffffffffffffffff821415613784576137836137c0565b5b600182019050919050565b600061379a82613671565b91506137a583613671565b9250826137b5576137b46137ef565b5b828206905092915050565b7f4e487b7100000000000000000000000000000000000000000000000000000000600052601160045260246000fd5b7f4e487b7100000000000000000000000000000000000000000000000000000000600052601260045260246000fd5b7f4e487b7100000000000000000000000000000000000000000000000000000000600052602260045260246000fd5b7f4e487b7100000000000000000000000000000000000000000000000000000000600052603260045260246000fd5b7f4e487b7100000000000000000000000000000000000000000000000000000000600052604160045260246000fd5b600080fd5b600080fd5b600080fd5b600080fd5b600080fd5b600080fd5b6000601f19601f8301169050919050565b7f4552433732313a207472616e7366657220746f206e6f6e20455243373231526560008201527f63656976657220696d706c656d656e7465720000000000000000000000000000602082015250565b7f4f776e61626c653a206e6577206f776e657220697320746865207a65726f206160008201527f6464726573730000000000000000000000000000000000000000000000000000602082015250565b7f4552433732313a207472616e736665722066726f6d20696e636f72726563742060008201527f6f776e6572000000000000000000000000000000000000000000000000000000602082015250565b7f4552433732313a20746f6b656e20616c7265616479206d696e74656400000000600082015250565b7f4552433732313a207472616e7366657220746f20746865207a65726f2061646460008201527f7265737300000000000000000000000000000000000000000000000000000000602082015250565b7f4552433732313a20617070726f766520746f2063616c6c657200000000000000600082015250565b7f4552433732313a2061646472657373207a65726f206973206e6f74206120766160008201527f6c6964206f776e65720000000000000000000000000000000000000000000000602082015250565b7f45524337323155524953746f726167653a2055524920736574206f66206e6f6e60008201527f6578697374656e7420746f6b656e000000000000000000000000000000000000602082015250565b7f4552433732313a20617070726f76652063616c6c6572206973206e6f7420746f60008201527f6b656e206f776e6572206e6f7220617070726f76656420666f7220616c6c0000602082015250565b7f4552433732313a206d696e7420746f20746865207a65726f2061646472657373600082015250565b7f4f776e61626c653a2063616c6c6572206973206e6f7420746865206f776e6572600082015250565b7f4552433732313a20696e76616c696420746f6b656e2049440000000000000000600082015250565b7f4552433732313a20617070726f76616c20746f2063757272656e74206f776e6560008201527f7200000000000000000000000000000000000000000000000000000000000000602082015250565b50565b7f4552433732313a207472616e736665722063616c6c6572206973206e6f74206f60008201527f776e6572206e6f7220617070726f766564000000000000000000000000000000602082015250565b7f4552433732313a2063616c6c6572206973206e6f7420746f6b656e206f776e6560008201527f72206e6f7220617070726f766564000000000000000000000000000000000000602082015250565b613cc9816135f5565b8114613cd457600080fd5b50565b613ce081613607565b8114613ceb57600080fd5b50565b613cf781613619565b8114613d0257600080fd5b50565b613d0e81613625565b8114613d1957600080fd5b50565b613d2581613671565b8114613d3057600080fd5b50565b613d3c8161367b565b8114613d4757600080fd5b5056fea2646970667358221220799f299ea69bda1b633e9ee9ff3be09f553744703f0c54e76e1f2366842c1c5164736f6c63430008070033a2646970667358221220b64a5646cb2d7343603683c18dbbc8bca41290a691f60d9e4efd8fc59b2e73f464736f6c63430008070033",
    "devdoc": {
        "errors": {
            "InsufficientFunds(uint256,uint256)": [
                {
                    "details": "Thrown when not enough ETH is transfered"
                }
            ],
            "TransferFailed()": [
                {
                    "details": "Thrown if `address.call{value: value}(\"\")` returns false"
                }
            ]
        },
        "kind": "dev",
        "methods": {
            "owner()": {
                "details": "Returns the address of the current owner."
            },
            "renounceOwnership()": {
                "details": "Leaves the contract without owner. It will not be possible to call `onlyOwner` functions anymore. Can only be called by the current owner. NOTE: Renouncing ownership will leave the contract without an owner, thereby removing any functionality that is only available to the owner."
            },
            "transferOwnership(address)": {
                "details": "Transfers ownership of the contract to a new account (`newOwner`). Can only be called by the current owner."
            }
        },
        "version": 1
    },
    "userdoc": {
        "kind": "user",
        "methods": {},
        "version": 1
    },
    "storageLayout": {
        "storage": [
            {
                "astId": 7,
                "contract": "contracts/factory/RentokenV1RentableNFTFactory.sol:RentokenV1RentableNFTFactory",
                "label": "_owner",
                "offset": 0,
                "slot": "0",
                "type": "t_address"
            },
            {
                "astId": 2313,
                "contract": "contracts/factory/RentokenV1RentableNFTFactory.sol:RentokenV1RentableNFTFactory",
                "label": "_rentMarketplace",
                "offset": 0,
                "slot": "1",
                "type": "t_address"
            },
            {
                "astId": 2315,
                "contract": "contracts/factory/RentokenV1RentableNFTFactory.sol:RentokenV1RentableNFTFactory",
                "label": "_sellMarketplace",
                "offset": 0,
                "slot": "2",
                "type": "t_address"
            },
            {
                "astId": 2318,
                "contract": "contracts/factory/RentokenV1RentableNFTFactory.sol:RentokenV1RentableNFTFactory",
                "label": "_mintFee",
                "offset": 0,
                "slot": "3",
                "type": "t_uint256"
            },
            {
                "astId": 2321,
                "contract": "contracts/factory/RentokenV1RentableNFTFactory.sol:RentokenV1RentableNFTFactory",
                "label": "_platformFee",
                "offset": 0,
                "slot": "4",
                "type": "t_uint256"
            },
            {
                "astId": 2324,
                "contract": "contracts/factory/RentokenV1RentableNFTFactory.sol:RentokenV1RentableNFTFactory",
                "label": "_feeRecipient",
                "offset": 0,
                "slot": "5",
                "type": "t_address_payable"
            },
            {
                "astId": 2329,
                "contract": "contracts/factory/RentokenV1RentableNFTFactory.sol:RentokenV1RentableNFTFactory",
                "label": "_exists",
                "offset": 0,
                "slot": "6",
                "type": "t_mapping(t_address,t_bool)"
            }
        ],
        "types": {
            "t_address": {
                "encoding": "inplace",
                "label": "address",
                "numberOfBytes": "20"
            },
            "t_address_payable": {
                "encoding": "inplace",
                "label": "address payable",
                "numberOfBytes": "20"
            },
            "t_bool": {
                "encoding": "inplace",
                "label": "bool",
                "numberOfBytes": "1"
            },
            "t_mapping(t_address,t_bool)": {
                "encoding": "mapping",
                "key": "t_address",
                "label": "mapping(address => bool)",
                "numberOfBytes": "32",
                "value": "t_bool"
            },
            "t_uint256": {
                "encoding": "inplace",
                "label": "uint256",
                "numberOfBytes": "32"
            }
        }
    }
}