{
  "_format": "hh-sol-artifact-1",
  "contractName": "WrappedNft",
  "sourceName": "contracts/WrappedNft.sol",
  "abi": [
    {
      "inputs": [
        {
          "internalType": "string",
          "name": "name_",
          "type": "string"
        },
        {
          "internalType": "string",
          "name": "symbol_",
          "type": "string"
        },
        {
          "internalType": "address",
          "name": "originalContract_",
          "type": "address"
        }
      ],
      "stateMutability": "nonpayable",
      "type": "constructor"
    },
    {
      "anonymous": false,
      "inputs": [
        {
          "indexed": true,
          "internalType": "address",
          "name": "owner",
          "type": "address"
        },
        {
          "indexed": true,
          "internalType": "address",
          "name": "approved",
          "type": "address"
        },
        {
          "indexed": true,
          "internalType": "uint256",
          "name": "tokenId",
          "type": "uint256"
        }
      ],
      "name": "Approval",
      "type": "event"
    },
    {
      "anonymous": false,
      "inputs": [
        {
          "indexed": true,
          "internalType": "address",
          "name": "owner",
          "type": "address"
        },
        {
          "indexed": true,
          "internalType": "address",
          "name": "operator",
          "type": "address"
        },
        {
          "indexed": false,
          "internalType": "bool",
          "name": "approved",
          "type": "bool"
        }
      ],
      "name": "ApprovalForAll",
      "type": "event"
    },
    {
      "anonymous": false,
      "inputs": [
        {
          "indexed": true,
          "internalType": "address",
          "name": "from",
          "type": "address"
        },
        {
          "indexed": true,
          "internalType": "address",
          "name": "to",
          "type": "address"
        },
        {
          "indexed": true,
          "internalType": "uint256",
          "name": "tokenId",
          "type": "uint256"
        }
      ],
      "name": "Transfer",
      "type": "event"
    },
    {
      "anonymous": false,
      "inputs": [
        {
          "indexed": true,
          "internalType": "uint256",
          "name": "tokenId",
          "type": "uint256"
        },
        {
          "indexed": true,
          "internalType": "address",
          "name": "user",
          "type": "address"
        },
        {
          "indexed": false,
          "internalType": "uint256",
          "name": "deadline",
          "type": "uint256"
        }
      ],
      "name": "UserUpdated",
      "type": "event"
    },
    {
      "inputs": [
        {
          "internalType": "address",
          "name": "to",
          "type": "address"
        },
        {
          "internalType": "uint256",
          "name": "tokenId",
          "type": "uint256"
        }
      ],
      "name": "approve",
      "outputs": [],
      "stateMutability": "nonpayable",
      "type": "function"
    },
    {
      "inputs": [],
      "name": "authority",
      "outputs": [
        {
          "internalType": "address",
          "name": "",
          "type": "address"
        }
      ],
      "stateMutability": "view",
      "type": "function"
    },
    {
      "inputs": [
        {
          "internalType": "address",
          "name": "owner",
          "type": "address"
        }
      ],
      "name": "balanceOf",
      "outputs": [
        {
          "internalType": "uint256",
          "name": "",
          "type": "uint256"
        }
      ],
      "stateMutability": "view",
      "type": "function"
    },
    {
      "inputs": [
        {
          "internalType": "uint256",
          "name": "tokenId",
          "type": "uint256"
        }
      ],
      "name": "burn",
      "outputs": [],
      "stateMutability": "nonpayable",
      "type": "function"
    },
    {
      "inputs": [
        {
          "internalType": "uint256",
          "name": "tokenId",
          "type": "uint256"
        }
      ],
      "name": "exists",
      "outputs": [
        {
          "internalType": "bool",
          "name": "",
          "type": "bool"
        }
      ],
      "stateMutability": "view",
      "type": "function"
    },
    {
      "inputs": [
        {
          "internalType": "uint256",
          "name": "tokenId",
          "type": "uint256"
        }
      ],
      "name": "getApproved",
      "outputs": [
        {
          "internalType": "address",
          "name": "",
          "type": "address"
        }
      ],
      "stateMutability": "view",
      "type": "function"
    },
    {
      "inputs": [
        {
          "internalType": "address",
          "name": "owner",
          "type": "address"
        },
        {
          "internalType": "address",
          "name": "operator",
          "type": "address"
        }
      ],
      "name": "isApprovedForAll",
      "outputs": [
        {
          "internalType": "bool",
          "name": "",
          "type": "bool"
        }
      ],
      "stateMutability": "view",
      "type": "function"
    },
    {
      "inputs": [
        {
          "internalType": "uint256",
          "name": "tokenId",
          "type": "uint256"
        },
        {
          "internalType": "address",
          "name": "user",
          "type": "address"
        },
        {
          "internalType": "uint256",
          "name": "deadline",
          "type": "uint256"
        }
      ],
      "name": "mint",
      "outputs": [],
      "stateMutability": "nonpayable",
      "type": "function"
    },
    {
      "inputs": [],
      "name": "name",
      "outputs": [
        {
          "internalType": "string",
          "name": "",
          "type": "string"
        }
      ],
      "stateMutability": "view",
      "type": "function"
    },
    {
      "inputs": [],
      "name": "originalContract",
      "outputs": [
        {
          "internalType": "address",
          "name": "",
          "type": "address"
        }
      ],
      "stateMutability": "view",
      "type": "function"
    },
    {
      "inputs": [
        {
          "internalType": "uint256",
          "name": "tokenId",
          "type": "uint256"
        }
      ],
      "name": "ownerOf",
      "outputs": [
        {
          "internalType": "address",
          "name": "",
          "type": "address"
        }
      ],
      "stateMutability": "view",
      "type": "function"
    },
    {
      "inputs": [
        {
          "internalType": "address",
          "name": "from",
          "type": "address"
        },
        {
          "internalType": "address",
          "name": "to",
          "type": "address"
        },
        {
          "internalType": "uint256",
          "name": "tokenId",
          "type": "uint256"
        }
      ],
      "name": "safeTransferFrom",
      "outputs": [],
      "stateMutability": "nonpayable",
      "type": "function"
    },
    {
      "inputs": [
        {
          "internalType": "address",
          "name": "from",
          "type": "address"
        },
        {
          "internalType": "address",
          "name": "to",
          "type": "address"
        },
        {
          "internalType": "uint256",
          "name": "tokenId",
          "type": "uint256"
        },
        {
          "internalType": "bytes",
          "name": "data",
          "type": "bytes"
        }
      ],
      "name": "safeTransferFrom",
      "outputs": [],
      "stateMutability": "nonpayable",
      "type": "function"
    },
    {
      "inputs": [
        {
          "internalType": "address",
          "name": "operator",
          "type": "address"
        },
        {
          "internalType": "bool",
          "name": "approved",
          "type": "bool"
        }
      ],
      "name": "setApprovalForAll",
      "outputs": [],
      "stateMutability": "nonpayable",
      "type": "function"
    },
    {
      "inputs": [
        {
          "internalType": "uint256",
          "name": "tokenId",
          "type": "uint256"
        },
        {
          "internalType": "address",
          "name": "user",
          "type": "address"
        },
        {
          "internalType": "uint256",
          "name": "deadline",
          "type": "uint256"
        }
      ],
      "name": "setUser",
      "outputs": [],
      "stateMutability": "nonpayable",
      "type": "function"
    },
    {
      "inputs": [
        {
          "internalType": "bytes4",
          "name": "interfaceId",
          "type": "bytes4"
        }
      ],
      "name": "supportsInterface",
      "outputs": [
        {
          "internalType": "bool",
          "name": "",
          "type": "bool"
        }
      ],
      "stateMutability": "view",
      "type": "function"
    },
    {
      "inputs": [],
      "name": "symbol",
      "outputs": [
        {
          "internalType": "string",
          "name": "",
          "type": "string"
        }
      ],
      "stateMutability": "view",
      "type": "function"
    },
    {
      "inputs": [
        {
          "internalType": "uint256",
          "name": "tokenId",
          "type": "uint256"
        }
      ],
      "name": "tokenURI",
      "outputs": [
        {
          "internalType": "string",
          "name": "",
          "type": "string"
        }
      ],
      "stateMutability": "view",
      "type": "function"
    },
    {
      "inputs": [
        {
          "internalType": "address",
          "name": "from",
          "type": "address"
        },
        {
          "internalType": "address",
          "name": "to",
          "type": "address"
        },
        {
          "internalType": "uint256",
          "name": "tokenId",
          "type": "uint256"
        }
      ],
      "name": "transferFrom",
      "outputs": [],
      "stateMutability": "nonpayable",
      "type": "function"
    },
    {
      "inputs": [
        {
          "internalType": "uint256",
          "name": "tokenId",
          "type": "uint256"
        }
      ],
      "name": "userDeadline",
      "outputs": [
        {
          "internalType": "uint256",
          "name": "",
          "type": "uint256"
        }
      ],
      "stateMutability": "view",
      "type": "function"
    },
    {
      "inputs": [
        {
          "internalType": "uint256",
          "name": "tokenId",
          "type": "uint256"
        }
      ],
      "name": "userOf",
      "outputs": [
        {
          "internalType": "address",
          "name": "",
          "type": "address"
        }
      ],
      "stateMutability": "view",
      "type": "function"
    }
  ],
  "bytecode": "0x60806040523480156200001157600080fd5b506040516200388838038062003888833981810160405281019062000037919062000254565b82828160009080519060200190620000519291906200010f565b5080600190805190602001906200006a9291906200010f565b50505080600860006101000a81548173ffffffffffffffffffffffffffffffffffffffff021916908373ffffffffffffffffffffffffffffffffffffffff160217905550620000be6200010760201b60201c565b600960006101000a81548173ffffffffffffffffffffffffffffffffffffffff021916908373ffffffffffffffffffffffffffffffffffffffff160217905550505050620004c0565b600033905090565b8280546200011d90620003b7565b90600052602060002090601f0160209004810192826200014157600085556200018d565b82601f106200015c57805160ff19168380011785556200018d565b828001600101855582156200018d579182015b828111156200018c5782518255916020019190600101906200016f565b5b5090506200019c9190620001a0565b5090565b5b80821115620001bb576000816000905550600101620001a1565b5090565b6000620001d6620001d08462000317565b620002ee565b905082815260208101848484011115620001f557620001f462000486565b5b6200020284828562000381565b509392505050565b6000815190506200021b81620004a6565b92915050565b600082601f83011262000239576200023862000481565b5b81516200024b848260208601620001bf565b91505092915050565b60008060006060848603121562000270576200026f62000490565b5b600084015167ffffffffffffffff8111156200029157620002906200048b565b5b6200029f8682870162000221565b935050602084015167ffffffffffffffff811115620002c357620002c26200048b565b5b620002d18682870162000221565b9250506040620002e4868287016200020a565b9150509250925092565b6000620002fa6200030d565b9050620003088282620003ed565b919050565b6000604051905090565b600067ffffffffffffffff82111562000335576200033462000452565b5b620003408262000495565b9050602081019050919050565b60006200035a8262000361565b9050919050565b600073ffffffffffffffffffffffffffffffffffffffff82169050919050565b60005b83811015620003a157808201518184015260208101905062000384565b83811115620003b1576000848401525b50505050565b60006002820490506001821680620003d057607f821691505b60208210811415620003e757620003e662000423565b5b50919050565b620003f88262000495565b810181811067ffffffffffffffff821117156200041a576200041962000452565b5b80604052505050565b7f4e487b7100000000000000000000000000000000000000000000000000000000600052602260045260246000fd5b7f4e487b7100000000000000000000000000000000000000000000000000000000600052604160045260246000fd5b600080fd5b600080fd5b600080fd5b600080fd5b6000601f19601f8301169050919050565b620004b1816200034d565b8114620004bd57600080fd5b50565b6133b880620004d06000396000f3fe608060405234801561001057600080fd5b50600436106101375760003560e01c806370a08231116100b8578063b88d4fde1161007c578063b88d4fde1461035c578063bf7e214f14610378578063c2f1f14a14610396578063c87b56dd146103c6578063e2c345e2146103f6578063e985e9c51461041457610137565b806370a08231146102a6578063836a1040146102d657806395d89b41146102f25780639da6fc6914610310578063a22cb4651461034057610137565b806323b872dd116100ff57806323b872dd146101f257806342842e0e1461020e57806342966c681461022a5780634f558e79146102465780636352211e1461027657610137565b806301ffc9a71461013c57806306fdde031461016c578063081812fc1461018a578063095ea7b3146101ba5780631b8a910d146101d6575b600080fd5b61015660048036038101906101519190612442565b610444565b60405161016391906128dc565b60405180910390f35b6101746104be565b6040516101819190612912565b60405180910390f35b6101a4600480360381019061019f91906124e5565b610550565b6040516101b19190612875565b60405180910390f35b6101d460048036038101906101cf9190612402565b610596565b005b6101f060048036038101906101eb9190612512565b6106ae565b005b61020c600480360381019061020791906122ec565b6107dd565b005b610228600480360381019061022391906122ec565b61083d565b005b610244600480360381019061023f91906124e5565b61085d565b005b610260600480360381019061025b91906124e5565b610900565b60405161026d91906128dc565b60405180910390f35b610290600480360381019061028b91906124e5565b610912565b60405161029d9190612875565b60405180910390f35b6102c060048036038101906102bb919061227f565b6109c4565b6040516102cd9190612b14565b60405180910390f35b6102f060048036038101906102eb9190612512565b610a7c565b005b6102fa610c74565b6040516103079190612912565b60405180910390f35b61032a600480360381019061032591906124e5565b610d06565b6040516103379190612b14565b60405180910390f35b61035a600480360381019061035591906123c2565b610d26565b005b6103766004803603810190610371919061233f565b610d3c565b005b610380610d9e565b60405161038d9190612875565b60405180910390f35b6103b060048036038101906103ab91906124e5565b610dc8565b6040516103bd9190612875565b60405180910390f35b6103e060048036038101906103db91906124e5565b610e6e565b6040516103ed9190612912565b60405180910390f35b6103fe610f81565b60405161040b9190612875565b60405180910390f35b61042e600480360381019061042991906122ac565b610fab565b60405161043b91906128dc565b60405180910390f35b60007f44dd9c2e000000000000000000000000000000000000000000000000000000007bffffffffffffffffffffffffffffffffffffffffffffffffffffffff1916827bffffffffffffffffffffffffffffffffffffffffffffffffffffffff191614806104b757506104b68261103f565b5b9050919050565b6060600080546104cd90612d7c565b80601f01602080910402602001604051908101604052809291908181526020018280546104f990612d7c565b80156105465780601f1061051b57610100808354040283529160200191610546565b820191906000526020600020905b81548152906001019060200180831161052957829003601f168201915b5050505050905090565b600061055b82611121565b6004600083815260200190815260200160002060009054906101000a900473ffffffffffffffffffffffffffffffffffffffff169050919050565b60006105a182610912565b90508073ffffffffffffffffffffffffffffffffffffffff168373ffffffffffffffffffffffffffffffffffffffff161415610612576040517f08c379a000000000000000000000000000000000000000000000000000000000815260040161060990612a94565b60405180910390fd5b8073ffffffffffffffffffffffffffffffffffffffff1661063161116c565b73ffffffffffffffffffffffffffffffffffffffff161480610660575061065f8161065a61116c565b610fab565b5b61069f576040517f08c379a000000000000000000000000000000000000000000000000000000000815260040161069690612a14565b60405180910390fd5b6106a98383611174565b505050565b6106b8338461122d565b6106f7576040517f08c379a00000000000000000000000000000000000000000000000000000000081526004016106ee90612ab4565b60405180910390fd5b60405180604001604052808373ffffffffffffffffffffffffffffffffffffffff168152602001828152506007600085815260200190815260200160002060008201518160000160006101000a81548173ffffffffffffffffffffffffffffffffffffffff021916908373ffffffffffffffffffffffffffffffffffffffff160217905550602082015181600101559050508173ffffffffffffffffffffffffffffffffffffffff16837f135732456dfc187c3b2375a697f9a28a49ed490cf3df0f68cd48643e1197b859836040516107d09190612b14565b60405180910390a3505050565b6107ee6107e861116c565b8261122d565b61082d576040517f08c379a000000000000000000000000000000000000000000000000000000000815260040161082490612af4565b60405180910390fd5b6108388383836112c2565b505050565b61085883838360405180602001604052806000815250610d3c565b505050565b600960009054906101000a900473ffffffffffffffffffffffffffffffffffffffff1673ffffffffffffffffffffffffffffffffffffffff1661089e61116c565b73ffffffffffffffffffffffffffffffffffffffff16146108f4576040517f08c379a00000000000000000000000000000000000000000000000000000000081526004016108eb90612ad4565b60405180910390fd5b6108fd81611529565b50565b600061090b8261157c565b9050919050565b6000806002600084815260200190815260200160002060009054906101000a900473ffffffffffffffffffffffffffffffffffffffff169050600073ffffffffffffffffffffffffffffffffffffffff168173ffffffffffffffffffffffffffffffffffffffff1614156109bb576040517f08c379a00000000000000000000000000000000000000000000000000000000081526004016109b290612a74565b60405180910390fd5b80915050919050565b60008073ffffffffffffffffffffffffffffffffffffffff168273ffffffffffffffffffffffffffffffffffffffff161415610a35576040517f08c379a0000000000000000000000000000000000000000000000000000000008152600401610a2c906129d4565b60405180910390fd5b600360008373ffffffffffffffffffffffffffffffffffffffff1673ffffffffffffffffffffffffffffffffffffffff168152602001908152602001600020549050919050565b600960009054906101000a900473ffffffffffffffffffffffffffffffffffffffff1673ffffffffffffffffffffffffffffffffffffffff16610abd61116c565b73ffffffffffffffffffffffffffffffffffffffff1614610b13576040517f08c379a0000000000000000000000000000000000000000000000000000000008152600401610b0a90612a54565b60405180910390fd5b610b24610b1e61116c565b846115e8565b60405180604001604052808373ffffffffffffffffffffffffffffffffffffffff168152602001828152506007600085815260200190815260200160002060008201518160000160006101000a81548173ffffffffffffffffffffffffffffffffffffffff021916908373ffffffffffffffffffffffffffffffffffffffff16021790555060208201518160010155905050610c6f83600860009054906101000a900473ffffffffffffffffffffffffffffffffffffffff1673ffffffffffffffffffffffffffffffffffffffff1663c87b56dd866040518263ffffffff1660e01b8152600401610c159190612b14565b60006040518083038186803b158015610c2d57600080fd5b505afa158015610c41573d6000803e3d6000fd5b505050506040513d6000823e3d601f19601f82011682018060405250810190610c6a919061249c565b6117c2565b505050565b606060018054610c8390612d7c565b80601f0160208091040260200160405190810160405280929190818152602001828054610caf90612d7c565b8015610cfc5780601f10610cd157610100808354040283529160200191610cfc565b820191906000526020600020905b815481529060010190602001808311610cdf57829003601f168201915b5050505050905090565b600060076000838152602001908152602001600020600101549050919050565b610d38610d3161116c565b8383611836565b5050565b610d4d610d4761116c565b8361122d565b610d8c576040517f08c379a0000000000000000000000000000000000000000000000000000000008152600401610d8390612af4565b60405180910390fd5b610d98848484846119a3565b50505050565b6000600960009054906101000a900473ffffffffffffffffffffffffffffffffffffffff16905090565b600080600760008481526020019081526020016000206040518060400160405290816000820160009054906101000a900473ffffffffffffffffffffffffffffffffffffffff1673ffffffffffffffffffffffffffffffffffffffff1673ffffffffffffffffffffffffffffffffffffffff168152602001600182015481525050905042816020015110610e63578060000151915050610e69565b60009150505b919050565b6060610e7982611121565b6000600660008481526020019081526020016000208054610e9990612d7c565b80601f0160208091040260200160405190810160405280929190818152602001828054610ec590612d7c565b8015610f125780601f10610ee757610100808354040283529160200191610f12565b820191906000526020600020905b815481529060010190602001808311610ef557829003601f168201915b505050505090506000610f236119ff565b9050600081511415610f39578192505050610f7c565b600082511115610f6e578082604051602001610f56929190612851565b60405160208183030381529060405292505050610f7c565b610f7784611a16565b925050505b919050565b6000600860009054906101000a900473ffffffffffffffffffffffffffffffffffffffff16905090565b6000600560008473ffffffffffffffffffffffffffffffffffffffff1673ffffffffffffffffffffffffffffffffffffffff16815260200190815260200160002060008373ffffffffffffffffffffffffffffffffffffffff1673ffffffffffffffffffffffffffffffffffffffff16815260200190815260200160002060009054906101000a900460ff16905092915050565b60007f80ac58cd000000000000000000000000000000000000000000000000000000007bffffffffffffffffffffffffffffffffffffffffffffffffffffffff1916827bffffffffffffffffffffffffffffffffffffffffffffffffffffffff1916148061110a57507f5b5e139f000000000000000000000000000000000000000000000000000000007bffffffffffffffffffffffffffffffffffffffffffffffffffffffff1916827bffffffffffffffffffffffffffffffffffffffffffffffffffffffff1916145b8061111a575061111982611a7e565b5b9050919050565b61112a8161157c565b611169576040517f08c379a000000000000000000000000000000000000000000000000000000000815260040161116090612a74565b60405180910390fd5b50565b600033905090565b816004600083815260200190815260200160002060006101000a81548173ffffffffffffffffffffffffffffffffffffffff021916908373ffffffffffffffffffffffffffffffffffffffff160217905550808273ffffffffffffffffffffffffffffffffffffffff166111e783610912565b73ffffffffffffffffffffffffffffffffffffffff167f8c5be1e5ebec7d5bd14f71427d1e84f3dd0314c0f7b2291e5b200ac8c7c3b92560405160405180910390a45050565b60008061123983610912565b90508073ffffffffffffffffffffffffffffffffffffffff168473ffffffffffffffffffffffffffffffffffffffff16148061127b575061127a8185610fab565b5b806112b957508373ffffffffffffffffffffffffffffffffffffffff166112a184610550565b73ffffffffffffffffffffffffffffffffffffffff16145b91505092915050565b8273ffffffffffffffffffffffffffffffffffffffff166112e282610912565b73ffffffffffffffffffffffffffffffffffffffff1614611338576040517f08c379a000000000000000000000000000000000000000000000000000000000815260040161132f90612954565b60405180910390fd5b600073ffffffffffffffffffffffffffffffffffffffff168273ffffffffffffffffffffffffffffffffffffffff1614156113a8576040517f08c379a000000000000000000000000000000000000000000000000000000000815260040161139f90612994565b60405180910390fd5b6113b3838383611ae8565b6113be600082611174565b6001600360008573ffffffffffffffffffffffffffffffffffffffff1673ffffffffffffffffffffffffffffffffffffffff168152602001908152602001600020600082825461140e9190612c80565b925050819055506001600360008473ffffffffffffffffffffffffffffffffffffffff1673ffffffffffffffffffffffffffffffffffffffff16815260200190815260200160002060008282546114659190612bf9565b92505081905550816002600083815260200190815260200160002060006101000a81548173ffffffffffffffffffffffffffffffffffffffff021916908373ffffffffffffffffffffffffffffffffffffffff160217905550808273ffffffffffffffffffffffffffffffffffffffff168473ffffffffffffffffffffffffffffffffffffffff167fddf252ad1be2c89b69c2b068fc378daa952ba7f163c4a11628f55a4df523b3ef60405160405180910390a4611524838383611c11565b505050565b61153281611c16565b600060066000838152602001908152602001600020805461155290612d7c565b905014611579576006600082815260200190815260200160002060006115789190612053565b5b50565b60008073ffffffffffffffffffffffffffffffffffffffff166002600084815260200190815260200160002060009054906101000a900473ffffffffffffffffffffffffffffffffffffffff1673ffffffffffffffffffffffffffffffffffffffff1614159050919050565b600073ffffffffffffffffffffffffffffffffffffffff168273ffffffffffffffffffffffffffffffffffffffff161415611658576040517f08c379a000000000000000000000000000000000000000000000000000000000815260040161164f90612a34565b60405180910390fd5b6116618161157c565b156116a1576040517f08c379a000000000000000000000000000000000000000000000000000000000815260040161169890612974565b60405180910390fd5b6116ad60008383611ae8565b6001600360008473ffffffffffffffffffffffffffffffffffffffff1673ffffffffffffffffffffffffffffffffffffffff16815260200190815260200160002060008282546116fd9190612bf9565b92505081905550816002600083815260200190815260200160002060006101000a81548173ffffffffffffffffffffffffffffffffffffffff021916908373ffffffffffffffffffffffffffffffffffffffff160217905550808273ffffffffffffffffffffffffffffffffffffffff16600073ffffffffffffffffffffffffffffffffffffffff167fddf252ad1be2c89b69c2b068fc378daa952ba7f163c4a11628f55a4df523b3ef60405160405180910390a46117be60008383611c11565b5050565b6117cb8261157c565b61180a576040517f08c379a0000000000000000000000000000000000000000000000000000000008152600401611801906129f4565b60405180910390fd5b80600660008481526020019081526020016000209080519060200190611831929190612093565b505050565b8173ffffffffffffffffffffffffffffffffffffffff168373ffffffffffffffffffffffffffffffffffffffff1614156118a5576040517f08c379a000000000000000000000000000000000000000000000000000000000815260040161189c906129b4565b60405180910390fd5b80600560008573ffffffffffffffffffffffffffffffffffffffff1673ffffffffffffffffffffffffffffffffffffffff16815260200190815260200160002060008473ffffffffffffffffffffffffffffffffffffffff1673ffffffffffffffffffffffffffffffffffffffff16815260200190815260200160002060006101000a81548160ff0219169083151502179055508173ffffffffffffffffffffffffffffffffffffffff168373ffffffffffffffffffffffffffffffffffffffff167f17307eab39ab6107e8899845ad3d59bd9653f200f220920489ca2b5937696c318360405161199691906128dc565b60405180910390a3505050565b6119ae8484846112c2565b6119ba84848484611d33565b6119f9576040517f08c379a00000000000000000000000000000000000000000000000000000000081526004016119f090612934565b60405180910390fd5b50505050565b606060405180602001604052806000815250905090565b6060611a2182611121565b6000611a2b6119ff565b90506000815111611a4b5760405180602001604052806000815250611a76565b80611a5584611eca565b604051602001611a66929190612851565b6040516020818303038152906040525b915050919050565b60007f01ffc9a7000000000000000000000000000000000000000000000000000000007bffffffffffffffffffffffffffffffffffffffffffffffffffffffff1916827bffffffffffffffffffffffffffffffffffffffffffffffffffffffff1916149050919050565b611af383838361202b565b8173ffffffffffffffffffffffffffffffffffffffff168373ffffffffffffffffffffffffffffffffffffffff1614611c0c576040518060400160405280600073ffffffffffffffffffffffffffffffffffffffff16815260200160008152506007600083815260200190815260200160002060008201518160000160006101000a81548173ffffffffffffffffffffffffffffffffffffffff021916908373ffffffffffffffffffffffffffffffffffffffff16021790555060208201518160010155905050600073ffffffffffffffffffffffffffffffffffffffff16817f135732456dfc187c3b2375a697f9a28a49ed490cf3df0f68cd48643e1197b8596000604051611c0391906128f7565b60405180910390a35b505050565b505050565b6000611c2182610912565b9050611c2f81600084611ae8565b611c3a600083611174565b6001600360008373ffffffffffffffffffffffffffffffffffffffff1673ffffffffffffffffffffffffffffffffffffffff1681526020019081526020016000206000828254611c8a9190612c80565b925050819055506002600083815260200190815260200160002060006101000a81549073ffffffffffffffffffffffffffffffffffffffff021916905581600073ffffffffffffffffffffffffffffffffffffffff168273ffffffffffffffffffffffffffffffffffffffff167fddf252ad1be2c89b69c2b068fc378daa952ba7f163c4a11628f55a4df523b3ef60405160405180910390a4611d2f81600084611c11565b5050565b6000611d548473ffffffffffffffffffffffffffffffffffffffff16612030565b15611ebd578373ffffffffffffffffffffffffffffffffffffffff1663150b7a02611d7d61116c565b8786866040518563ffffffff1660e01b8152600401611d9f9493929190612890565b602060405180830381600087803b158015611db957600080fd5b505af1925050508015611dea57506040513d601f19601f82011682018060405250810190611de7919061246f565b60015b611e6d573d8060008114611e1a576040519150601f19603f3d011682016040523d82523d6000602084013e611e1f565b606091505b50600081511415611e65576040517f08c379a0000000000000000000000000000000000000000000000000000000008152600401611e5c90612934565b60405180910390fd5b805181602001fd5b63150b7a0260e01b7bffffffffffffffffffffffffffffffffffffffffffffffffffffffff1916817bffffffffffffffffffffffffffffffffffffffffffffffffffffffff191614915050611ec2565b600190505b949350505050565b60606000821415611f12576040518060400160405280600181526020017f30000000000000000000000000000000000000000000000000000000000000008152509050612026565b600082905060005b60008214611f44578080611f2d90612ddf565b915050600a82611f3d9190612c4f565b9150611f1a565b60008167ffffffffffffffff811115611f6057611f5f612f15565b5b6040519080825280601f01601f191660200182016040528015611f925781602001600182028036833780820191505090505b5090505b6000851461201f57600182611fab9190612c80565b9150600a85611fba9190612e28565b6030611fc69190612bf9565b60f81b818381518110611fdc57611fdb612ee6565b5b60200101907effffffffffffffffffffffffffffffffffffffffffffffffffffffffffffff1916908160001a905350600a856120189190612c4f565b9450611f96565b8093505050505b919050565b505050565b6000808273ffffffffffffffffffffffffffffffffffffffff163b119050919050565b50805461205f90612d7c565b6000825580601f106120715750612090565b601f01602090049060005260206000209081019061208f9190612119565b5b50565b82805461209f90612d7c565b90600052602060002090601f0160209004810192826120c15760008555612108565b82601f106120da57805160ff1916838001178555612108565b82800160010185558215612108579182015b828111156121075782518255916020019190600101906120ec565b5b5090506121159190612119565b5090565b5b8082111561213257600081600090555060010161211a565b5090565b600061214961214484612b54565b612b2f565b90508281526020810184848401111561216557612164612f49565b5b612170848285612d3a565b509392505050565b600061218b61218684612b85565b612b2f565b9050828152602081018484840111156121a7576121a6612f49565b5b6121b2848285612d49565b509392505050565b6000813590506121c981613326565b92915050565b6000813590506121de8161333d565b92915050565b6000813590506121f381613354565b92915050565b60008151905061220881613354565b92915050565b600082601f83011261222357612222612f44565b5b8135612233848260208601612136565b91505092915050565b600082601f83011261225157612250612f44565b5b8151612261848260208601612178565b91505092915050565b6000813590506122798161336b565b92915050565b60006020828403121561229557612294612f53565b5b60006122a3848285016121ba565b91505092915050565b600080604083850312156122c3576122c2612f53565b5b60006122d1858286016121ba565b92505060206122e2858286016121ba565b9150509250929050565b60008060006060848603121561230557612304612f53565b5b6000612313868287016121ba565b9350506020612324868287016121ba565b92505060406123358682870161226a565b9150509250925092565b6000806000806080858703121561235957612358612f53565b5b6000612367878288016121ba565b9450506020612378878288016121ba565b93505060406123898782880161226a565b925050606085013567ffffffffffffffff8111156123aa576123a9612f4e565b5b6123b68782880161220e565b91505092959194509250565b600080604083850312156123d9576123d8612f53565b5b60006123e7858286016121ba565b92505060206123f8858286016121cf565b9150509250929050565b6000806040838503121561241957612418612f53565b5b6000612427858286016121ba565b92505060206124388582860161226a565b9150509250929050565b60006020828403121561245857612457612f53565b5b6000612466848285016121e4565b91505092915050565b60006020828403121561248557612484612f53565b5b6000612493848285016121f9565b91505092915050565b6000602082840312156124b2576124b1612f53565b5b600082015167ffffffffffffffff8111156124d0576124cf612f4e565b5b6124dc8482850161223c565b91505092915050565b6000602082840312156124fb576124fa612f53565b5b60006125098482850161226a565b91505092915050565b60008060006060848603121561252b5761252a612f53565b5b60006125398682870161226a565b935050602061254a868287016121ba565b925050604061255b8682870161226a565b9150509250925092565b61256e81612cb4565b82525050565b61257d81612cc6565b82525050565b600061258e82612bb6565b6125988185612bcc565b93506125a8818560208601612d49565b6125b181612f58565b840191505092915050565b6125c581612d28565b82525050565b60006125d682612bc1565b6125e08185612bdd565b93506125f0818560208601612d49565b6125f981612f58565b840191505092915050565b600061260f82612bc1565b6126198185612bee565b9350612629818560208601612d49565b80840191505092915050565b6000612642603283612bdd565b915061264d82612f69565b604082019050919050565b6000612665602583612bdd565b915061267082612fb8565b604082019050919050565b6000612688601c83612bdd565b915061269382613007565b602082019050919050565b60006126ab602483612bdd565b91506126b682613030565b604082019050919050565b60006126ce601983612bdd565b91506126d98261307f565b602082019050919050565b60006126f1602983612bdd565b91506126fc826130a8565b604082019050919050565b6000612714602e83612bdd565b915061271f826130f7565b604082019050919050565b6000612737603e83612bdd565b915061274282613146565b604082019050919050565b600061275a602083612bdd565b915061276582613195565b602082019050919050565b600061277d601483612bdd565b9150612788826131be565b602082019050919050565b60006127a0601883612bdd565b91506127ab826131e7565b602082019050919050565b60006127c3602183612bdd565b91506127ce82613210565b604082019050919050565b60006127e6603183612bdd565b91506127f18261325f565b604082019050919050565b6000612809601483612bdd565b9150612814826132ae565b602082019050919050565b600061282c602e83612bdd565b9150612837826132d7565b604082019050919050565b61284b81612d1e565b82525050565b600061285d8285612604565b91506128698284612604565b91508190509392505050565b600060208201905061288a6000830184612565565b92915050565b60006080820190506128a56000830187612565565b6128b26020830186612565565b6128bf6040830185612842565b81810360608301526128d18184612583565b905095945050505050565b60006020820190506128f16000830184612574565b92915050565b600060208201905061290c60008301846125bc565b92915050565b6000602082019050818103600083015261292c81846125cb565b905092915050565b6000602082019050818103600083015261294d81612635565b9050919050565b6000602082019050818103600083015261296d81612658565b9050919050565b6000602082019050818103600083015261298d8161267b565b9050919050565b600060208201905081810360008301526129ad8161269e565b9050919050565b600060208201905081810360008301526129cd816126c1565b9050919050565b600060208201905081810360008301526129ed816126e4565b9050919050565b60006020820190508181036000830152612a0d81612707565b9050919050565b60006020820190508181036000830152612a2d8161272a565b9050919050565b60006020820190508181036000830152612a4d8161274d565b9050919050565b60006020820190508181036000830152612a6d81612770565b9050919050565b60006020820190508181036000830152612a8d81612793565b9050919050565b60006020820190508181036000830152612aad816127b6565b9050919050565b60006020820190508181036000830152612acd816127d9565b9050919050565b60006020820190508181036000830152612aed816127fc565b9050919050565b60006020820190508181036000830152612b0d8161281f565b9050919050565b6000602082019050612b296000830184612842565b92915050565b6000612b39612b4a565b9050612b458282612dae565b919050565b6000604051905090565b600067ffffffffffffffff821115612b6f57612b6e612f15565b5b612b7882612f58565b9050602081019050919050565b600067ffffffffffffffff821115612ba057612b9f612f15565b5b612ba982612f58565b9050602081019050919050565b600081519050919050565b600081519050919050565b600082825260208201905092915050565b600082825260208201905092915050565b600081905092915050565b6000612c0482612d1e565b9150612c0f83612d1e565b9250827fffffffffffffffffffffffffffffffffffffffffffffffffffffffffffffffff03821115612c4457612c43612e59565b5b828201905092915050565b6000612c5a82612d1e565b9150612c6583612d1e565b925082612c7557612c74612e88565b5b828204905092915050565b6000612c8b82612d1e565b9150612c9683612d1e565b925082821015612ca957612ca8612e59565b5b828203905092915050565b6000612cbf82612cfe565b9050919050565b60008115159050919050565b60007fffffffff0000000000000000000000000000000000000000000000000000000082169050919050565b600073ffffffffffffffffffffffffffffffffffffffff82169050919050565b6000819050919050565b6000612d3382612d1e565b9050919050565b82818337600083830152505050565b60005b83811015612d67578082015181840152602081019050612d4c565b83811115612d76576000848401525b50505050565b60006002820490506001821680612d9457607f821691505b60208210811415612da857612da7612eb7565b5b50919050565b612db782612f58565b810181811067ffffffffffffffff82111715612dd657612dd5612f15565b5b80604052505050565b6000612dea82612d1e565b91507fffffffffffffffffffffffffffffffffffffffffffffffffffffffffffffffff821415612e1d57612e1c612e59565b5b600182019050919050565b6000612e3382612d1e565b9150612e3e83612d1e565b925082612e4e57612e4d612e88565b5b828206905092915050565b7f4e487b7100000000000000000000000000000000000000000000000000000000600052601160045260246000fd5b7f4e487b7100000000000000000000000000000000000000000000000000000000600052601260045260246000fd5b7f4e487b7100000000000000000000000000000000000000000000000000000000600052602260045260246000fd5b7f4e487b7100000000000000000000000000000000000000000000000000000000600052603260045260246000fd5b7f4e487b7100000000000000000000000000000000000000000000000000000000600052604160045260246000fd5b600080fd5b600080fd5b600080fd5b600080fd5b6000601f19601f8301169050919050565b7f4552433732313a207472616e7366657220746f206e6f6e20455243373231526560008201527f63656976657220696d706c656d656e7465720000000000000000000000000000602082015250565b7f4552433732313a207472616e736665722066726f6d20696e636f72726563742060008201527f6f776e6572000000000000000000000000000000000000000000000000000000602082015250565b7f4552433732313a20746f6b656e20616c7265616479206d696e74656400000000600082015250565b7f4552433732313a207472616e7366657220746f20746865207a65726f2061646460008201527f7265737300000000000000000000000000000000000000000000000000000000602082015250565b7f4552433732313a20617070726f766520746f2063616c6c657200000000000000600082015250565b7f4552433732313a2061646472657373207a65726f206973206e6f74206120766160008201527f6c6964206f776e65720000000000000000000000000000000000000000000000602082015250565b7f45524337323155524953746f726167653a2055524920736574206f66206e6f6e60008201527f6578697374656e7420746f6b656e000000000000000000000000000000000000602082015250565b7f4552433732313a20617070726f76652063616c6c6572206973206e6f7420746f60008201527f6b656e206f776e6572206e6f7220617070726f76656420666f7220616c6c0000602082015250565b7f4552433732313a206d696e7420746f20746865207a65726f2061646472657373600082015250565b7f43616c6c6574206e6f7420617574686f72697479000000000000000000000000600082015250565b7f4552433732313a20696e76616c696420746f6b656e2049440000000000000000600082015250565b7f4552433732313a20617070726f76616c20746f2063757272656e74206f776e6560008201527f7200000000000000000000000000000000000000000000000000000000000000602082015250565b7f4552433732313a207472616e736665722063616c6c6572206973206e6f74206f60008201527f776e6572206e6f7220617070726f766564000000000000000000000000000000602082015250565b7f43616c6c6572206e6f7420617574686f72697479000000000000000000000000600082015250565b7f4552433732313a2063616c6c6572206973206e6f7420746f6b656e206f776e6560008201527f72206e6f7220617070726f766564000000000000000000000000000000000000602082015250565b61332f81612cb4565b811461333a57600080fd5b50565b61334681612cc6565b811461335157600080fd5b50565b61335d81612cd2565b811461336857600080fd5b50565b61337481612d1e565b811461337f57600080fd5b5056fea2646970667358221220f32614f5dc08d83b48c17d715d19d0158a89c632edbd78c4c436a67b563d805a64736f6c63430008070033",
  "linkReferences": {},
  "deployedLinkReferences": {}
}